ARM GAS  C:\Users\MATEUS~1\AppData\Local\Temp\ccYkUC78.s 			page 1


   1              		.syntax unified
   2              		.cpu cortex-m3
   3              		.fpu softvfp
   4              		.eabi_attribute 20, 1
   5              		.eabi_attribute 21, 1
   6              		.eabi_attribute 23, 3
   7              		.eabi_attribute 24, 1
   8              		.eabi_attribute 25, 1
   9              		.eabi_attribute 26, 1
  10              		.eabi_attribute 30, 1
  11              		.eabi_attribute 34, 1
  12              		.eabi_attribute 18, 4
  13              		.thumb
  14              		.syntax unified
  15              		.file	"CySpc.c"
  16              		.text
  17              	.Ltext0:
  18              		.cfi_sections	.debug_frame
  19              		.section	.text.CySpcStart,"ax",%progbits
  20              		.align	2
  21              		.global	CySpcStart
  22              		.thumb
  23              		.thumb_func
  24              		.type	CySpcStart, %function
  25              	CySpcStart:
  26              	.LFB0:
  27              		.file 1 "Generated_Source\\PSoC5\\CySpc.c"
   1:Generated_Source\PSoC5/CySpc.c **** /***************************************************************************//**
   2:Generated_Source\PSoC5/CySpc.c **** * \file CySpc.c
   3:Generated_Source\PSoC5/CySpc.c **** * \version 5.60
   4:Generated_Source\PSoC5/CySpc.c **** *
   5:Generated_Source\PSoC5/CySpc.c **** * \brief Provides an API for the System Performance Component.
   6:Generated_Source\PSoC5/CySpc.c **** * The SPC functions are not meant to be called directly by the user
   7:Generated_Source\PSoC5/CySpc.c **** * application.
   8:Generated_Source\PSoC5/CySpc.c **** *
   9:Generated_Source\PSoC5/CySpc.c **** ********************************************************************************
  10:Generated_Source\PSoC5/CySpc.c **** * \copyright
  11:Generated_Source\PSoC5/CySpc.c **** * Copyright 2008-2017, Cypress Semiconductor Corporation.  All rights reserved.
  12:Generated_Source\PSoC5/CySpc.c **** * You may use this file only in accordance with the license, terms, conditions,
  13:Generated_Source\PSoC5/CySpc.c **** * disclaimers, and limitations in the end user license agreement accompanying
  14:Generated_Source\PSoC5/CySpc.c **** * the software package with which this file was provided.
  15:Generated_Source\PSoC5/CySpc.c **** *******************************************************************************/
  16:Generated_Source\PSoC5/CySpc.c **** 
  17:Generated_Source\PSoC5/CySpc.c **** #include "CySpc.h"
  18:Generated_Source\PSoC5/CySpc.c **** 
  19:Generated_Source\PSoC5/CySpc.c **** #define CY_SPC_KEY_ONE                      (0xB6u)
  20:Generated_Source\PSoC5/CySpc.c **** #define CY_SPC_KEY_TWO(x)                   ((uint8) (((uint16) 0xD3u) + ((uint16) (x))))
  21:Generated_Source\PSoC5/CySpc.c **** 
  22:Generated_Source\PSoC5/CySpc.c **** /* Command Codes */
  23:Generated_Source\PSoC5/CySpc.c **** #define CY_SPC_CMD_LD_BYTE                  (0x00u)
  24:Generated_Source\PSoC5/CySpc.c **** #define CY_SPC_CMD_LD_MULTI_BYTE            (0x01u)
  25:Generated_Source\PSoC5/CySpc.c **** #define CY_SPC_CMD_LD_ROW                   (0x02u)
  26:Generated_Source\PSoC5/CySpc.c **** #define CY_SPC_CMD_RD_BYTE                  (0x03u)
  27:Generated_Source\PSoC5/CySpc.c **** #define CY_SPC_CMD_RD_MULTI_BYTE            (0x04u)
  28:Generated_Source\PSoC5/CySpc.c **** #define CY_SPC_CMD_WR_ROW                   (0x05u)
  29:Generated_Source\PSoC5/CySpc.c **** #define CY_SPC_CMD_WR_USER_NVL              (0x06u)
  30:Generated_Source\PSoC5/CySpc.c **** #define CY_SPC_CMD_PRG_ROW                  (0x07u)
ARM GAS  C:\Users\MATEUS~1\AppData\Local\Temp\ccYkUC78.s 			page 2


  31:Generated_Source\PSoC5/CySpc.c **** #define CY_SPC_CMD_ER_SECTOR                (0x08u)
  32:Generated_Source\PSoC5/CySpc.c **** #define CY_SPC_CMD_ER_ALL                   (0x09u)
  33:Generated_Source\PSoC5/CySpc.c **** #define CY_SPC_CMD_RD_HIDDEN                (0x0Au)
  34:Generated_Source\PSoC5/CySpc.c **** #define CY_SPC_CMD_PRG_PROTECT              (0x0Bu)
  35:Generated_Source\PSoC5/CySpc.c **** #define CY_SPC_CMD_CHECKSUM                 (0x0Cu)
  36:Generated_Source\PSoC5/CySpc.c **** #define CY_SPC_CMD_DWNLD_ALGORITHM          (0x0Du)
  37:Generated_Source\PSoC5/CySpc.c **** #define CY_SPC_CMD_GET_TEMP                 (0x0Eu)
  38:Generated_Source\PSoC5/CySpc.c **** #define CY_SPC_CMD_GET_ADC                  (0x0Fu)
  39:Generated_Source\PSoC5/CySpc.c **** #define CY_SPC_CMD_RD_NVL_VOLATILE          (0x10u)
  40:Generated_Source\PSoC5/CySpc.c **** #define CY_SPC_CMD_SETUP_TS                 (0x11u)
  41:Generated_Source\PSoC5/CySpc.c **** #define CY_SPC_CMD_DISABLE_TS               (0x12u)
  42:Generated_Source\PSoC5/CySpc.c **** #define CY_SPC_CMD_ER_ROW                   (0x13u)
  43:Generated_Source\PSoC5/CySpc.c **** 
  44:Generated_Source\PSoC5/CySpc.c **** /* Enable bit in Active and Alternate Active mode templates */
  45:Generated_Source\PSoC5/CySpc.c **** #define PM_SPC_PM_EN                        (0x08u)
  46:Generated_Source\PSoC5/CySpc.c **** 
  47:Generated_Source\PSoC5/CySpc.c **** /* Gate calls to the SPC. */
  48:Generated_Source\PSoC5/CySpc.c **** uint8 SpcLockState = CY_SPC_UNLOCKED;
  49:Generated_Source\PSoC5/CySpc.c **** 
  50:Generated_Source\PSoC5/CySpc.c **** 
  51:Generated_Source\PSoC5/CySpc.c **** #if(CY_PSOC5)
  52:Generated_Source\PSoC5/CySpc.c **** 
  53:Generated_Source\PSoC5/CySpc.c ****     /***************************************************************************
  54:Generated_Source\PSoC5/CySpc.c ****     * The wait-state pipeline must be enabled prior to accessing the SPC
  55:Generated_Source\PSoC5/CySpc.c ****     * register interface regardless of CPU frequency. The CySpcLock() saves
  56:Generated_Source\PSoC5/CySpc.c ****     * current wait-state pipeline state and enables it. The CySpcUnlock()
  57:Generated_Source\PSoC5/CySpc.c ****     * function, which must be called after SPC transaction, restores original
  58:Generated_Source\PSoC5/CySpc.c ****     * state.
  59:Generated_Source\PSoC5/CySpc.c ****     ***************************************************************************/
  60:Generated_Source\PSoC5/CySpc.c ****     static uint32 spcWaitPipeBypass = 0u;
  61:Generated_Source\PSoC5/CySpc.c **** 
  62:Generated_Source\PSoC5/CySpc.c **** #endif  /* (CY_PSOC5) */
  63:Generated_Source\PSoC5/CySpc.c **** 
  64:Generated_Source\PSoC5/CySpc.c **** 
  65:Generated_Source\PSoC5/CySpc.c **** /*******************************************************************************
  66:Generated_Source\PSoC5/CySpc.c **** * Function Name: CySpcStart
  67:Generated_Source\PSoC5/CySpc.c **** ****************************************************************************//**
  68:Generated_Source\PSoC5/CySpc.c **** *  Starts the SPC.
  69:Generated_Source\PSoC5/CySpc.c **** *
  70:Generated_Source\PSoC5/CySpc.c **** *******************************************************************************/
  71:Generated_Source\PSoC5/CySpc.c **** void CySpcStart(void) 
  72:Generated_Source\PSoC5/CySpc.c **** {
  28              		.loc 1 72 0
  29              		.cfi_startproc
  30              		@ args = 0, pretend = 0, frame = 0
  31              		@ frame_needed = 0, uses_anonymous_args = 0
  32 0000 08B5     		push	{r3, lr}
  33              		.cfi_def_cfa_offset 8
  34              		.cfi_offset 3, -8
  35              		.cfi_offset 14, -4
  73:Generated_Source\PSoC5/CySpc.c ****     /* Save current global interrupt enable and disable it */
  74:Generated_Source\PSoC5/CySpc.c ****     uint8 interruptState = CyEnterCriticalSection();
  36              		.loc 1 74 0
  37 0002 FFF7FEFF 		bl	CyEnterCriticalSection
  38              	.LVL0:
  75:Generated_Source\PSoC5/CySpc.c **** 
  76:Generated_Source\PSoC5/CySpc.c ****     CY_SPC_PM_ACT_REG  |= PM_SPC_PM_EN;
ARM GAS  C:\Users\MATEUS~1\AppData\Local\Temp\ccYkUC78.s 			page 3


  39              		.loc 1 76 0
  40 0006 064A     		ldr	r2, .L3
  41 0008 1378     		ldrb	r3, [r2]	@ zero_extendqisi2
  42 000a 43F00803 		orr	r3, r3, #8
  43 000e 1370     		strb	r3, [r2]
  77:Generated_Source\PSoC5/CySpc.c ****     CY_SPC_PM_STBY_REG |= PM_SPC_PM_EN;
  44              		.loc 1 77 0
  45 0010 1032     		adds	r2, r2, #16
  46 0012 1378     		ldrb	r3, [r2]	@ zero_extendqisi2
  47 0014 43F00803 		orr	r3, r3, #8
  48 0018 1370     		strb	r3, [r2]
  78:Generated_Source\PSoC5/CySpc.c **** 
  79:Generated_Source\PSoC5/CySpc.c ****     /* Restore global interrupt enable state */
  80:Generated_Source\PSoC5/CySpc.c ****     CyExitCriticalSection(interruptState);
  49              		.loc 1 80 0
  50 001a FFF7FEFF 		bl	CyExitCriticalSection
  51              	.LVL1:
  52 001e 08BD     		pop	{r3, pc}
  53              	.L4:
  54              		.align	2
  55              	.L3:
  56 0020 A0430040 		.word	1073759136
  57              		.cfi_endproc
  58              	.LFE0:
  59              		.size	CySpcStart, .-CySpcStart
  60              		.section	.text.CySpcStop,"ax",%progbits
  61              		.align	2
  62              		.global	CySpcStop
  63              		.thumb
  64              		.thumb_func
  65              		.type	CySpcStop, %function
  66              	CySpcStop:
  67              	.LFB1:
  81:Generated_Source\PSoC5/CySpc.c **** }
  82:Generated_Source\PSoC5/CySpc.c **** 
  83:Generated_Source\PSoC5/CySpc.c **** 
  84:Generated_Source\PSoC5/CySpc.c **** /*******************************************************************************
  85:Generated_Source\PSoC5/CySpc.c **** * Function Name: CySpcStop
  86:Generated_Source\PSoC5/CySpc.c **** ****************************************************************************//**
  87:Generated_Source\PSoC5/CySpc.c **** *  Stops the SPC.
  88:Generated_Source\PSoC5/CySpc.c **** *
  89:Generated_Source\PSoC5/CySpc.c **** *******************************************************************************/
  90:Generated_Source\PSoC5/CySpc.c **** void CySpcStop(void) 
  91:Generated_Source\PSoC5/CySpc.c **** {
  68              		.loc 1 91 0
  69              		.cfi_startproc
  70              		@ args = 0, pretend = 0, frame = 0
  71              		@ frame_needed = 0, uses_anonymous_args = 0
  72 0000 08B5     		push	{r3, lr}
  73              		.cfi_def_cfa_offset 8
  74              		.cfi_offset 3, -8
  75              		.cfi_offset 14, -4
  92:Generated_Source\PSoC5/CySpc.c ****     /* Save current global interrupt enable and disable it */
  93:Generated_Source\PSoC5/CySpc.c ****     uint8 interruptState = CyEnterCriticalSection();
  76              		.loc 1 93 0
  77 0002 FFF7FEFF 		bl	CyEnterCriticalSection
  78              	.LVL2:
ARM GAS  C:\Users\MATEUS~1\AppData\Local\Temp\ccYkUC78.s 			page 4


  94:Generated_Source\PSoC5/CySpc.c **** 
  95:Generated_Source\PSoC5/CySpc.c ****     CY_SPC_PM_ACT_REG  &= ((uint8)(~PM_SPC_PM_EN));
  79              		.loc 1 95 0
  80 0006 064A     		ldr	r2, .L7
  81 0008 1378     		ldrb	r3, [r2]	@ zero_extendqisi2
  82 000a 03F0F703 		and	r3, r3, #247
  83 000e 1370     		strb	r3, [r2]
  96:Generated_Source\PSoC5/CySpc.c ****     CY_SPC_PM_STBY_REG &= ((uint8)(~PM_SPC_PM_EN));
  84              		.loc 1 96 0
  85 0010 1032     		adds	r2, r2, #16
  86 0012 1378     		ldrb	r3, [r2]	@ zero_extendqisi2
  87 0014 03F0F703 		and	r3, r3, #247
  88 0018 1370     		strb	r3, [r2]
  97:Generated_Source\PSoC5/CySpc.c **** 
  98:Generated_Source\PSoC5/CySpc.c ****     /* Restore global interrupt enable state */
  99:Generated_Source\PSoC5/CySpc.c ****     CyExitCriticalSection(interruptState);
  89              		.loc 1 99 0
  90 001a FFF7FEFF 		bl	CyExitCriticalSection
  91              	.LVL3:
  92 001e 08BD     		pop	{r3, pc}
  93              	.L8:
  94              		.align	2
  95              	.L7:
  96 0020 A0430040 		.word	1073759136
  97              		.cfi_endproc
  98              	.LFE1:
  99              		.size	CySpcStop, .-CySpcStop
 100              		.section	.text.CySpcReadData,"ax",%progbits
 101              		.align	2
 102              		.global	CySpcReadData
 103              		.thumb
 104              		.thumb_func
 105              		.type	CySpcReadData, %function
 106              	CySpcReadData:
 107              	.LFB2:
 100:Generated_Source\PSoC5/CySpc.c **** }
 101:Generated_Source\PSoC5/CySpc.c **** 
 102:Generated_Source\PSoC5/CySpc.c **** 
 103:Generated_Source\PSoC5/CySpc.c **** /*******************************************************************************
 104:Generated_Source\PSoC5/CySpc.c **** * Function Name: CySpcReadData
 105:Generated_Source\PSoC5/CySpc.c **** ****************************************************************************//**
 106:Generated_Source\PSoC5/CySpc.c **** *  Reads data from the SPC.
 107:Generated_Source\PSoC5/CySpc.c **** *
 108:Generated_Source\PSoC5/CySpc.c **** *  \param uint8 buffer:
 109:Generated_Source\PSoC5/CySpc.c **** *   Address to store data read.
 110:Generated_Source\PSoC5/CySpc.c **** *
 111:Generated_Source\PSoC5/CySpc.c **** *  \param uint8 size:
 112:Generated_Source\PSoC5/CySpc.c **** *   Number of bytes to read from the SPC.
 113:Generated_Source\PSoC5/CySpc.c **** *
 114:Generated_Source\PSoC5/CySpc.c **** * \return
 115:Generated_Source\PSoC5/CySpc.c **** *  uint8:
 116:Generated_Source\PSoC5/CySpc.c **** *   The number of bytes read from the SPC.
 117:Generated_Source\PSoC5/CySpc.c **** *
 118:Generated_Source\PSoC5/CySpc.c **** *******************************************************************************/
 119:Generated_Source\PSoC5/CySpc.c **** uint8 CySpcReadData(uint8 buffer[], uint8 size) 
 120:Generated_Source\PSoC5/CySpc.c **** {
 108              		.loc 1 120 0
ARM GAS  C:\Users\MATEUS~1\AppData\Local\Temp\ccYkUC78.s 			page 5


 109              		.cfi_startproc
 110              		@ args = 0, pretend = 0, frame = 0
 111              		@ frame_needed = 0, uses_anonymous_args = 0
 112              	.LVL4:
 113 0000 70B5     		push	{r4, r5, r6, lr}
 114              		.cfi_def_cfa_offset 16
 115              		.cfi_offset 4, -16
 116              		.cfi_offset 5, -12
 117              		.cfi_offset 6, -8
 118              		.cfi_offset 14, -4
 119 0002 0646     		mov	r6, r0
 120 0004 0D46     		mov	r5, r1
 121              	.LVL5:
 121:Generated_Source\PSoC5/CySpc.c ****     uint8 i;
 122:Generated_Source\PSoC5/CySpc.c **** 
 123:Generated_Source\PSoC5/CySpc.c ****     for(i = 0u; i < size; i++)
 122              		.loc 1 123 0
 123 0006 0024     		movs	r4, #0
 124 0008 0CE0     		b	.L10
 125              	.LVL6:
 126              	.L11:
 124:Generated_Source\PSoC5/CySpc.c ****     {
 125:Generated_Source\PSoC5/CySpc.c ****         while(!CY_SPC_DATA_READY)
 126:Generated_Source\PSoC5/CySpc.c ****         {
 127:Generated_Source\PSoC5/CySpc.c ****             CyDelayUs(1u);
 127              		.loc 1 127 0
 128 000a 0120     		movs	r0, #1
 129 000c FFF7FEFF 		bl	CyDelayUs
 130              	.LVL7:
 131              	.L12:
 125:Generated_Source\PSoC5/CySpc.c ****         {
 132              		.loc 1 125 0
 133 0010 064B     		ldr	r3, .L14
 134 0012 1B78     		ldrb	r3, [r3]	@ zero_extendqisi2
 135 0014 13F0010F 		tst	r3, #1
 136 0018 F7D0     		beq	.L11
 128:Generated_Source\PSoC5/CySpc.c ****         }
 129:Generated_Source\PSoC5/CySpc.c ****         buffer[i] = CY_SPC_CPU_DATA_REG;
 137              		.loc 1 129 0 discriminator 2
 138 001a 054B     		ldr	r3, .L14+4
 139 001c 1B78     		ldrb	r3, [r3]	@ zero_extendqisi2
 140 001e 3355     		strb	r3, [r6, r4]
 123:Generated_Source\PSoC5/CySpc.c ****     {
 141              		.loc 1 123 0 discriminator 2
 142 0020 0134     		adds	r4, r4, #1
 143              	.LVL8:
 144 0022 E4B2     		uxtb	r4, r4
 145              	.LVL9:
 146              	.L10:
 123:Generated_Source\PSoC5/CySpc.c ****     {
 147              		.loc 1 123 0 is_stmt 0 discriminator 1
 148 0024 AC42     		cmp	r4, r5
 149 0026 F3D3     		bcc	.L12
 130:Generated_Source\PSoC5/CySpc.c ****     }
 131:Generated_Source\PSoC5/CySpc.c **** 
 132:Generated_Source\PSoC5/CySpc.c ****     return(i);
 133:Generated_Source\PSoC5/CySpc.c **** }
ARM GAS  C:\Users\MATEUS~1\AppData\Local\Temp\ccYkUC78.s 			page 6


 150              		.loc 1 133 0 is_stmt 1
 151 0028 2046     		mov	r0, r4
 152 002a 70BD     		pop	{r4, r5, r6, pc}
 153              	.LVL10:
 154              	.L15:
 155              		.align	2
 156              	.L14:
 157 002c 22470040 		.word	1073760034
 158 0030 20470040 		.word	1073760032
 159              		.cfi_endproc
 160              	.LFE2:
 161              		.size	CySpcReadData, .-CySpcReadData
 162              		.section	.text.CySpcLoadMultiByte,"ax",%progbits
 163              		.align	2
 164              		.global	CySpcLoadMultiByte
 165              		.thumb
 166              		.thumb_func
 167              		.type	CySpcLoadMultiByte, %function
 168              	CySpcLoadMultiByte:
 169              	.LFB3:
 134:Generated_Source\PSoC5/CySpc.c **** 
 135:Generated_Source\PSoC5/CySpc.c **** 
 136:Generated_Source\PSoC5/CySpc.c **** /*******************************************************************************
 137:Generated_Source\PSoC5/CySpc.c **** * Function Name: CySpcLoadMultiByte
 138:Generated_Source\PSoC5/CySpc.c **** ****************************************************************************//**
 139:Generated_Source\PSoC5/CySpc.c **** *  Loads 1 to 32 bytes of data into the row latch of a Flash/EEPROM array.
 140:Generated_Source\PSoC5/CySpc.c **** *
 141:Generated_Source\PSoC5/CySpc.c **** *  \param uint8 array:
 142:Generated_Source\PSoC5/CySpc.c **** *   Id of the array.
 143:Generated_Source\PSoC5/CySpc.c **** *
 144:Generated_Source\PSoC5/CySpc.c **** *  \param uint16 address:
 145:Generated_Source\PSoC5/CySpc.c **** *   Flash/eeprom addrress
 146:Generated_Source\PSoC5/CySpc.c **** *
 147:Generated_Source\PSoC5/CySpc.c **** *  \param uint8* buffer:
 148:Generated_Source\PSoC5/CySpc.c **** *   Data to load to the row latch
 149:Generated_Source\PSoC5/CySpc.c **** *
 150:Generated_Source\PSoC5/CySpc.c **** *  \param uint16 number:
 151:Generated_Source\PSoC5/CySpc.c **** *   Number bytes to load.
 152:Generated_Source\PSoC5/CySpc.c **** *
 153:Generated_Source\PSoC5/CySpc.c **** * \return
 154:Generated_Source\PSoC5/CySpc.c **** *  CYRET_STARTED
 155:Generated_Source\PSoC5/CySpc.c **** *  CYRET_CANCELED
 156:Generated_Source\PSoC5/CySpc.c **** *  CYRET_LOCKED
 157:Generated_Source\PSoC5/CySpc.c **** *  CYRET_BAD_PARAM
 158:Generated_Source\PSoC5/CySpc.c **** *
 159:Generated_Source\PSoC5/CySpc.c **** *******************************************************************************/
 160:Generated_Source\PSoC5/CySpc.c **** cystatus CySpcLoadMultiByte(uint8 array, uint16 address, const uint8 buffer[], uint8 size)\
 161:Generated_Source\PSoC5/CySpc.c **** 
 162:Generated_Source\PSoC5/CySpc.c **** {
 170              		.loc 1 162 0
 171              		.cfi_startproc
 172              		@ args = 0, pretend = 0, frame = 0
 173              		@ frame_needed = 0, uses_anonymous_args = 0
 174              		@ link register save eliminated.
 175              	.LVL11:
 176 0000 30B4     		push	{r4, r5}
 177              		.cfi_def_cfa_offset 8
ARM GAS  C:\Users\MATEUS~1\AppData\Local\Temp\ccYkUC78.s 			page 7


 178              		.cfi_offset 4, -8
 179              		.cfi_offset 5, -4
 180              	.LVL12:
 163:Generated_Source\PSoC5/CySpc.c ****     cystatus status = CYRET_STARTED;
 164:Generated_Source\PSoC5/CySpc.c ****     uint8 i;
 165:Generated_Source\PSoC5/CySpc.c **** 
 166:Generated_Source\PSoC5/CySpc.c ****     /***************************************************************************
 167:Generated_Source\PSoC5/CySpc.c ****     * Check if number is correct for array. Number must be less than
 168:Generated_Source\PSoC5/CySpc.c ****     * 32 for Flash or less than 16 for EEPROM.
 169:Generated_Source\PSoC5/CySpc.c ****     ***************************************************************************/
 170:Generated_Source\PSoC5/CySpc.c ****     if(((array < CY_SPC_LAST_FLASH_ARRAYID) && (size < 32u)) ||
 181              		.loc 1 170 0
 182 0002 3E28     		cmp	r0, #62
 183 0004 01D8     		bhi	.L17
 184              		.loc 1 170 0 is_stmt 0 discriminator 1
 185 0006 1F2B     		cmp	r3, #31
 186 0008 03D9     		bls	.L18
 187              	.L17:
 188              		.loc 1 170 0 discriminator 3
 189 000a 3F28     		cmp	r0, #63
 190 000c 27D9     		bls	.L22
 171:Generated_Source\PSoC5/CySpc.c ****        ((array > CY_SPC_LAST_FLASH_ARRAYID) && (size < 16u)))
 191              		.loc 1 171 0 is_stmt 1
 192 000e 0F2B     		cmp	r3, #15
 193 0010 27D8     		bhi	.L23
 194              	.L18:
 172:Generated_Source\PSoC5/CySpc.c ****     {
 173:Generated_Source\PSoC5/CySpc.c ****         if(CY_SPC_IDLE)
 195              		.loc 1 173 0
 196 0012 174C     		ldr	r4, .L27
 197 0014 2478     		ldrb	r4, [r4]	@ zero_extendqisi2
 198 0016 14F0020F 		tst	r4, #2
 199 001a 24D0     		beq	.L24
 174:Generated_Source\PSoC5/CySpc.c ****         {
 175:Generated_Source\PSoC5/CySpc.c ****             CY_SPC_CPU_DATA_REG = CY_SPC_KEY_ONE;
 200              		.loc 1 175 0
 201 001c 154C     		ldr	r4, .L27+4
 202 001e B625     		movs	r5, #182
 203 0020 2570     		strb	r5, [r4]
 176:Generated_Source\PSoC5/CySpc.c ****             CY_SPC_CPU_DATA_REG = CY_SPC_KEY_TWO(CY_SPC_CMD_LD_MULTI_BYTE);
 204              		.loc 1 176 0
 205 0022 D425     		movs	r5, #212
 206 0024 2570     		strb	r5, [r4]
 177:Generated_Source\PSoC5/CySpc.c ****             CY_SPC_CPU_DATA_REG = CY_SPC_CMD_LD_MULTI_BYTE;
 207              		.loc 1 177 0
 208 0026 0125     		movs	r5, #1
 209 0028 2570     		strb	r5, [r4]
 178:Generated_Source\PSoC5/CySpc.c **** 
 179:Generated_Source\PSoC5/CySpc.c ****             if(CY_SPC_BUSY)
 210              		.loc 1 179 0
 211 002a 0234     		adds	r4, r4, #2
 212 002c 2478     		ldrb	r4, [r4]	@ zero_extendqisi2
 213 002e 14F0020F 		tst	r4, #2
 214 0032 1AD1     		bne	.L25
 180:Generated_Source\PSoC5/CySpc.c ****             {
 181:Generated_Source\PSoC5/CySpc.c ****                 CY_SPC_CPU_DATA_REG = array;
 215              		.loc 1 181 0
ARM GAS  C:\Users\MATEUS~1\AppData\Local\Temp\ccYkUC78.s 			page 8


 216 0034 0F4C     		ldr	r4, .L27+4
 217 0036 2070     		strb	r0, [r4]
 182:Generated_Source\PSoC5/CySpc.c ****                 CY_SPC_CPU_DATA_REG = 1u & HI8(address);
 218              		.loc 1 182 0
 219 0038 C1F30020 		ubfx	r0, r1, #8, #1
 220              	.LVL13:
 221 003c 2070     		strb	r0, [r4]
 222              	.LVL14:
 183:Generated_Source\PSoC5/CySpc.c ****                 CY_SPC_CPU_DATA_REG = LO8(address);
 223              		.loc 1 183 0
 224 003e C9B2     		uxtb	r1, r1
 225              	.LVL15:
 226 0040 2170     		strb	r1, [r4]
 184:Generated_Source\PSoC5/CySpc.c ****                 CY_SPC_CPU_DATA_REG = ((uint8)(size - 1u));
 227              		.loc 1 184 0
 228 0042 591E     		subs	r1, r3, #1
 229 0044 C9B2     		uxtb	r1, r1
 230 0046 2170     		strb	r1, [r4]
 231              	.LVL16:
 185:Generated_Source\PSoC5/CySpc.c **** 
 186:Generated_Source\PSoC5/CySpc.c ****                 for(i = 0u; i < size; i++)
 232              		.loc 1 186 0
 233 0048 0021     		movs	r1, #0
 234 004a 04E0     		b	.L20
 235              	.LVL17:
 236              	.L21:
 187:Generated_Source\PSoC5/CySpc.c ****                 {
 188:Generated_Source\PSoC5/CySpc.c ****                     CY_SPC_CPU_DATA_REG = buffer[i];
 237              		.loc 1 188 0 discriminator 3
 238 004c 545C     		ldrb	r4, [r2, r1]	@ zero_extendqisi2
 239 004e 0948     		ldr	r0, .L27+4
 240 0050 0470     		strb	r4, [r0]
 186:Generated_Source\PSoC5/CySpc.c ****                 {
 241              		.loc 1 186 0 discriminator 3
 242 0052 0131     		adds	r1, r1, #1
 243              	.LVL18:
 244 0054 C9B2     		uxtb	r1, r1
 245              	.LVL19:
 246              	.L20:
 186:Generated_Source\PSoC5/CySpc.c ****                 {
 247              		.loc 1 186 0 is_stmt 0 discriminator 1
 248 0056 9942     		cmp	r1, r3
 249 0058 F8D3     		bcc	.L21
 163:Generated_Source\PSoC5/CySpc.c ****     uint8 i;
 250              		.loc 1 163 0 is_stmt 1
 251 005a 0720     		movs	r0, #7
 252 005c 06E0     		b	.L19
 253              	.LVL20:
 254              	.L22:
 189:Generated_Source\PSoC5/CySpc.c ****                 }
 190:Generated_Source\PSoC5/CySpc.c ****             }
 191:Generated_Source\PSoC5/CySpc.c ****             else
 192:Generated_Source\PSoC5/CySpc.c ****             {
 193:Generated_Source\PSoC5/CySpc.c ****                 status = CYRET_CANCELED;
 194:Generated_Source\PSoC5/CySpc.c ****             }
 195:Generated_Source\PSoC5/CySpc.c ****         }
 196:Generated_Source\PSoC5/CySpc.c ****         else
ARM GAS  C:\Users\MATEUS~1\AppData\Local\Temp\ccYkUC78.s 			page 9


 197:Generated_Source\PSoC5/CySpc.c ****         {
 198:Generated_Source\PSoC5/CySpc.c ****             status = CYRET_LOCKED;
 199:Generated_Source\PSoC5/CySpc.c ****         }
 200:Generated_Source\PSoC5/CySpc.c ****     }
 201:Generated_Source\PSoC5/CySpc.c ****     else
 202:Generated_Source\PSoC5/CySpc.c ****     {
 203:Generated_Source\PSoC5/CySpc.c ****         status = CYRET_BAD_PARAM;
 255              		.loc 1 203 0
 256 005e 0120     		movs	r0, #1
 257              	.LVL21:
 258 0060 04E0     		b	.L19
 259              	.LVL22:
 260              	.L23:
 261 0062 0120     		movs	r0, #1
 262              	.LVL23:
 263 0064 02E0     		b	.L19
 264              	.LVL24:
 265              	.L24:
 198:Generated_Source\PSoC5/CySpc.c ****         }
 266              		.loc 1 198 0
 267 0066 0420     		movs	r0, #4
 268              	.LVL25:
 269 0068 00E0     		b	.L19
 270              	.LVL26:
 271              	.L25:
 193:Generated_Source\PSoC5/CySpc.c ****             }
 272              		.loc 1 193 0
 273 006a 0920     		movs	r0, #9
 274              	.LVL27:
 275              	.L19:
 204:Generated_Source\PSoC5/CySpc.c ****     }
 205:Generated_Source\PSoC5/CySpc.c **** 
 206:Generated_Source\PSoC5/CySpc.c ****     return(status);
 207:Generated_Source\PSoC5/CySpc.c **** }
 276              		.loc 1 207 0
 277 006c 30BC     		pop	{r4, r5}
 278              		.cfi_restore 5
 279              		.cfi_restore 4
 280              		.cfi_def_cfa_offset 0
 281 006e 7047     		bx	lr
 282              	.L28:
 283              		.align	2
 284              	.L27:
 285 0070 22470040 		.word	1073760034
 286 0074 20470040 		.word	1073760032
 287              		.cfi_endproc
 288              	.LFE3:
 289              		.size	CySpcLoadMultiByte, .-CySpcLoadMultiByte
 290              		.section	.text.CySpcLoadRow,"ax",%progbits
 291              		.align	2
 292              		.global	CySpcLoadRow
 293              		.thumb
 294              		.thumb_func
 295              		.type	CySpcLoadRow, %function
 296              	CySpcLoadRow:
 297              	.LFB4:
 208:Generated_Source\PSoC5/CySpc.c **** 
ARM GAS  C:\Users\MATEUS~1\AppData\Local\Temp\ccYkUC78.s 			page 10


 209:Generated_Source\PSoC5/CySpc.c **** 
 210:Generated_Source\PSoC5/CySpc.c **** /*******************************************************************************
 211:Generated_Source\PSoC5/CySpc.c **** * Function Name: CySpcLoadRow
 212:Generated_Source\PSoC5/CySpc.c **** ****************************************************************************//**
 213:Generated_Source\PSoC5/CySpc.c **** *  Loads a row of data into the row latch of a Flash/EEPROM array.
 214:Generated_Source\PSoC5/CySpc.c **** *
 215:Generated_Source\PSoC5/CySpc.c **** *  The buffer pointer should point to the data that should be written to the
 216:Generated_Source\PSoC5/CySpc.c **** *  flash row directly (no data in ECC/flash will be preserved). It is Flash API
 217:Generated_Source\PSoC5/CySpc.c **** *  responsibility to prepare data: the preserved data are copied from flash into
 218:Generated_Source\PSoC5/CySpc.c **** *  array with the modified data.
 219:Generated_Source\PSoC5/CySpc.c **** *
 220:Generated_Source\PSoC5/CySpc.c **** *  \param uint8 array:
 221:Generated_Source\PSoC5/CySpc.c **** *   Id of the array.
 222:Generated_Source\PSoC5/CySpc.c **** *
 223:Generated_Source\PSoC5/CySpc.c **** *  \param uint8* buffer:
 224:Generated_Source\PSoC5/CySpc.c **** *   Data to be loaded to the row latch
 225:Generated_Source\PSoC5/CySpc.c **** *
 226:Generated_Source\PSoC5/CySpc.c **** *  \param uint8 size:
 227:Generated_Source\PSoC5/CySpc.c **** *   The number of data bytes that the SPC expects to be written. Depends on the
 228:Generated_Source\PSoC5/CySpc.c **** *   type of the array and, if the array is Flash, whether ECC is being enabled
 229:Generated_Source\PSoC5/CySpc.c **** *   or not. There are following values: flash row latch size with ECC enabled,
 230:Generated_Source\PSoC5/CySpc.c **** *   flash row latch size with ECC disabled and EEPROM row latch size.
 231:Generated_Source\PSoC5/CySpc.c **** *
 232:Generated_Source\PSoC5/CySpc.c **** * \return
 233:Generated_Source\PSoC5/CySpc.c **** *  CYRET_STARTED
 234:Generated_Source\PSoC5/CySpc.c **** *  CYRET_CANCELED
 235:Generated_Source\PSoC5/CySpc.c **** *  CYRET_LOCKED
 236:Generated_Source\PSoC5/CySpc.c **** *
 237:Generated_Source\PSoC5/CySpc.c **** *******************************************************************************/
 238:Generated_Source\PSoC5/CySpc.c **** cystatus CySpcLoadRow(uint8 array, const uint8 buffer[], uint16 size)
 239:Generated_Source\PSoC5/CySpc.c **** {
 298              		.loc 1 239 0
 299              		.cfi_startproc
 300              		@ args = 0, pretend = 0, frame = 0
 301              		@ frame_needed = 0, uses_anonymous_args = 0
 302              		@ link register save eliminated.
 303              	.LVL28:
 240:Generated_Source\PSoC5/CySpc.c ****     cystatus status = CYRET_STARTED;
 241:Generated_Source\PSoC5/CySpc.c ****     uint16 i;
 242:Generated_Source\PSoC5/CySpc.c **** 
 243:Generated_Source\PSoC5/CySpc.c ****     /* Make sure the SPC is ready to accept command */
 244:Generated_Source\PSoC5/CySpc.c ****     if(CY_SPC_IDLE)
 304              		.loc 1 244 0
 305 0000 114B     		ldr	r3, .L36
 306 0002 1B78     		ldrb	r3, [r3]	@ zero_extendqisi2
 307 0004 13F0020F 		tst	r3, #2
 308 0008 19D0     		beq	.L33
 239:Generated_Source\PSoC5/CySpc.c ****     cystatus status = CYRET_STARTED;
 309              		.loc 1 239 0
 310 000a 10B4     		push	{r4}
 311              		.cfi_def_cfa_offset 4
 312              		.cfi_offset 4, -4
 245:Generated_Source\PSoC5/CySpc.c ****     {
 246:Generated_Source\PSoC5/CySpc.c ****         CY_SPC_CPU_DATA_REG = CY_SPC_KEY_ONE;
 313              		.loc 1 246 0
 314 000c 0F4B     		ldr	r3, .L36+4
 315 000e B624     		movs	r4, #182
ARM GAS  C:\Users\MATEUS~1\AppData\Local\Temp\ccYkUC78.s 			page 11


 316 0010 1C70     		strb	r4, [r3]
 247:Generated_Source\PSoC5/CySpc.c ****         CY_SPC_CPU_DATA_REG = CY_SPC_KEY_TWO(CY_SPC_CMD_LD_ROW);
 317              		.loc 1 247 0
 318 0012 D524     		movs	r4, #213
 319 0014 1C70     		strb	r4, [r3]
 248:Generated_Source\PSoC5/CySpc.c ****         CY_SPC_CPU_DATA_REG = CY_SPC_CMD_LD_ROW;
 320              		.loc 1 248 0
 321 0016 0224     		movs	r4, #2
 322 0018 1C70     		strb	r4, [r3]
 249:Generated_Source\PSoC5/CySpc.c **** 
 250:Generated_Source\PSoC5/CySpc.c ****         /* Make sure the command was accepted */
 251:Generated_Source\PSoC5/CySpc.c ****         if(CY_SPC_BUSY)
 323              		.loc 1 251 0
 324 001a 0233     		adds	r3, r3, #2
 325 001c 1B78     		ldrb	r3, [r3]	@ zero_extendqisi2
 326 001e 13F0020F 		tst	r3, #2
 327 0022 0ED1     		bne	.L34
 252:Generated_Source\PSoC5/CySpc.c ****         {
 253:Generated_Source\PSoC5/CySpc.c ****             CY_SPC_CPU_DATA_REG = array;
 328              		.loc 1 253 0
 329 0024 094B     		ldr	r3, .L36+4
 330 0026 1870     		strb	r0, [r3]
 331              	.LVL29:
 254:Generated_Source\PSoC5/CySpc.c **** 
 255:Generated_Source\PSoC5/CySpc.c ****             for(i = 0u; i < size; i++)
 332              		.loc 1 255 0
 333 0028 0023     		movs	r3, #0
 334 002a 04E0     		b	.L31
 335              	.LVL30:
 336              	.L32:
 256:Generated_Source\PSoC5/CySpc.c ****             {
 257:Generated_Source\PSoC5/CySpc.c ****                 CY_SPC_CPU_DATA_REG = buffer[i];
 337              		.loc 1 257 0 discriminator 3
 338 002c CC5C     		ldrb	r4, [r1, r3]	@ zero_extendqisi2
 339 002e 0748     		ldr	r0, .L36+4
 340 0030 0470     		strb	r4, [r0]
 255:Generated_Source\PSoC5/CySpc.c ****             {
 341              		.loc 1 255 0 discriminator 3
 342 0032 0133     		adds	r3, r3, #1
 343              	.LVL31:
 344 0034 9BB2     		uxth	r3, r3
 345              	.LVL32:
 346              	.L31:
 255:Generated_Source\PSoC5/CySpc.c ****             {
 347              		.loc 1 255 0 is_stmt 0 discriminator 1
 348 0036 9342     		cmp	r3, r2
 349 0038 F8D3     		bcc	.L32
 240:Generated_Source\PSoC5/CySpc.c ****     uint16 i;
 350              		.loc 1 240 0 is_stmt 1
 351 003a 0720     		movs	r0, #7
 352 003c 02E0     		b	.L30
 353              	.LVL33:
 354              	.L33:
 355              		.cfi_def_cfa_offset 0
 356              		.cfi_restore 4
 258:Generated_Source\PSoC5/CySpc.c ****             }
 259:Generated_Source\PSoC5/CySpc.c ****         }
ARM GAS  C:\Users\MATEUS~1\AppData\Local\Temp\ccYkUC78.s 			page 12


 260:Generated_Source\PSoC5/CySpc.c ****         else
 261:Generated_Source\PSoC5/CySpc.c ****         {
 262:Generated_Source\PSoC5/CySpc.c ****             status = CYRET_CANCELED;
 263:Generated_Source\PSoC5/CySpc.c ****         }
 264:Generated_Source\PSoC5/CySpc.c ****     }
 265:Generated_Source\PSoC5/CySpc.c ****     else
 266:Generated_Source\PSoC5/CySpc.c ****     {
 267:Generated_Source\PSoC5/CySpc.c ****         status = CYRET_LOCKED;
 357              		.loc 1 267 0
 358 003e 0420     		movs	r0, #4
 359              	.LVL34:
 268:Generated_Source\PSoC5/CySpc.c ****     }
 269:Generated_Source\PSoC5/CySpc.c **** 
 270:Generated_Source\PSoC5/CySpc.c ****     return(status);
 271:Generated_Source\PSoC5/CySpc.c **** }
 360              		.loc 1 271 0
 361 0040 7047     		bx	lr
 362              	.LVL35:
 363              	.L34:
 364              		.cfi_def_cfa_offset 4
 365              		.cfi_offset 4, -4
 262:Generated_Source\PSoC5/CySpc.c ****         }
 366              		.loc 1 262 0
 367 0042 0920     		movs	r0, #9
 368              	.LVL36:
 369              	.L30:
 370              		.loc 1 271 0
 371 0044 10BC     		pop	{r4}
 372              		.cfi_restore 4
 373              		.cfi_def_cfa_offset 0
 374 0046 7047     		bx	lr
 375              	.L37:
 376              		.align	2
 377              	.L36:
 378 0048 22470040 		.word	1073760034
 379 004c 20470040 		.word	1073760032
 380              		.cfi_endproc
 381              	.LFE4:
 382              		.size	CySpcLoadRow, .-CySpcLoadRow
 383              		.section	.text.CySpcLoadRowFull,"ax",%progbits
 384              		.align	2
 385              		.global	CySpcLoadRowFull
 386              		.thumb
 387              		.thumb_func
 388              		.type	CySpcLoadRowFull, %function
 389              	CySpcLoadRowFull:
 390              	.LFB5:
 272:Generated_Source\PSoC5/CySpc.c **** 
 273:Generated_Source\PSoC5/CySpc.c **** 
 274:Generated_Source\PSoC5/CySpc.c **** /*******************************************************************************
 275:Generated_Source\PSoC5/CySpc.c **** * Function Name: CySpcLoadRowFull
 276:Generated_Source\PSoC5/CySpc.c **** ****************************************************************************//**
 277:Generated_Source\PSoC5/CySpc.c **** *  Loads a row of data into the row latch of a Flash/EEPROM array.
 278:Generated_Source\PSoC5/CySpc.c **** *
 279:Generated_Source\PSoC5/CySpc.c **** *  The only data that are going to be changed should be passed. The function
 280:Generated_Source\PSoC5/CySpc.c **** *  will handle unmodified data preservation based on DWR settings and input
 281:Generated_Source\PSoC5/CySpc.c **** *  parameters.
ARM GAS  C:\Users\MATEUS~1\AppData\Local\Temp\ccYkUC78.s 			page 13


 282:Generated_Source\PSoC5/CySpc.c **** *
 283:Generated_Source\PSoC5/CySpc.c **** *  \param uint8 array:
 284:Generated_Source\PSoC5/CySpc.c **** *   Id of the array.
 285:Generated_Source\PSoC5/CySpc.c **** *
 286:Generated_Source\PSoC5/CySpc.c **** *  \param uint16 row:
 287:Generated_Source\PSoC5/CySpc.c **** *   Flash row number to be loaded.
 288:Generated_Source\PSoC5/CySpc.c **** *
 289:Generated_Source\PSoC5/CySpc.c **** *  \param uint8* buffer:
 290:Generated_Source\PSoC5/CySpc.c **** *   Data to be loaded to the row latch
 291:Generated_Source\PSoC5/CySpc.c **** *
 292:Generated_Source\PSoC5/CySpc.c **** *  \param uint8 size:
 293:Generated_Source\PSoC5/CySpc.c **** *   The number of data bytes that the SPC expects to be written. Depends on the
 294:Generated_Source\PSoC5/CySpc.c **** *   type of the array and, if the array is Flash, whether ECC is being enabled
 295:Generated_Source\PSoC5/CySpc.c **** *   or not. There are following values: flash row latch size with ECC enabled,
 296:Generated_Source\PSoC5/CySpc.c **** *   flash row latch size with ECC disabled and EEPROM row latch size.
 297:Generated_Source\PSoC5/CySpc.c **** *
 298:Generated_Source\PSoC5/CySpc.c **** * \return
 299:Generated_Source\PSoC5/CySpc.c **** *  CYRET_STARTED
 300:Generated_Source\PSoC5/CySpc.c **** *  CYRET_CANCELED
 301:Generated_Source\PSoC5/CySpc.c **** *  CYRET_LOCKED
 302:Generated_Source\PSoC5/CySpc.c **** *
 303:Generated_Source\PSoC5/CySpc.c **** *******************************************************************************/
 304:Generated_Source\PSoC5/CySpc.c **** cystatus CySpcLoadRowFull(uint8 array, uint16 row, const uint8 buffer[], uint16 size)\
 305:Generated_Source\PSoC5/CySpc.c **** 
 306:Generated_Source\PSoC5/CySpc.c **** {
 391              		.loc 1 306 0
 392              		.cfi_startproc
 393              		@ args = 0, pretend = 0, frame = 0
 394              		@ frame_needed = 0, uses_anonymous_args = 0
 395              		@ link register save eliminated.
 396              	.LVL37:
 397 0000 70B4     		push	{r4, r5, r6}
 398              		.cfi_def_cfa_offset 12
 399              		.cfi_offset 4, -12
 400              		.cfi_offset 5, -8
 401              		.cfi_offset 6, -4
 402              	.LVL38:
 307:Generated_Source\PSoC5/CySpc.c ****     cystatus status = CYRET_STARTED;
 308:Generated_Source\PSoC5/CySpc.c ****     uint16 i;
 309:Generated_Source\PSoC5/CySpc.c **** 
 310:Generated_Source\PSoC5/CySpc.c ****     #if (CYDEV_ECC_ENABLE == 0)
 311:Generated_Source\PSoC5/CySpc.c ****         uint32 offset;
 312:Generated_Source\PSoC5/CySpc.c ****     #endif /* (CYDEV_ECC_ENABLE == 0) */
 313:Generated_Source\PSoC5/CySpc.c **** 
 314:Generated_Source\PSoC5/CySpc.c ****     /* Make sure the SPC is ready to accept command */
 315:Generated_Source\PSoC5/CySpc.c ****     if(CY_SPC_IDLE)
 403              		.loc 1 315 0
 404 0002 1D4C     		ldr	r4, .L49
 405 0004 2478     		ldrb	r4, [r4]	@ zero_extendqisi2
 406 0006 14F0020F 		tst	r4, #2
 407 000a 2CD0     		beq	.L44
 316:Generated_Source\PSoC5/CySpc.c ****     {
 317:Generated_Source\PSoC5/CySpc.c ****         CY_SPC_CPU_DATA_REG = CY_SPC_KEY_ONE;
 408              		.loc 1 317 0
 409 000c 1B4C     		ldr	r4, .L49+4
 410 000e B625     		movs	r5, #182
 411 0010 2570     		strb	r5, [r4]
ARM GAS  C:\Users\MATEUS~1\AppData\Local\Temp\ccYkUC78.s 			page 14


 318:Generated_Source\PSoC5/CySpc.c ****         CY_SPC_CPU_DATA_REG = CY_SPC_KEY_TWO(CY_SPC_CMD_LD_ROW);
 412              		.loc 1 318 0
 413 0012 D525     		movs	r5, #213
 414 0014 2570     		strb	r5, [r4]
 319:Generated_Source\PSoC5/CySpc.c ****         CY_SPC_CPU_DATA_REG = CY_SPC_CMD_LD_ROW;
 415              		.loc 1 319 0
 416 0016 0225     		movs	r5, #2
 417 0018 2570     		strb	r5, [r4]
 320:Generated_Source\PSoC5/CySpc.c **** 
 321:Generated_Source\PSoC5/CySpc.c ****         /* Make sure the command was accepted */
 322:Generated_Source\PSoC5/CySpc.c ****         if(CY_SPC_BUSY)
 418              		.loc 1 322 0
 419 001a 0234     		adds	r4, r4, #2
 420 001c 2478     		ldrb	r4, [r4]	@ zero_extendqisi2
 421 001e 14F0020F 		tst	r4, #2
 422 0022 22D1     		bne	.L45
 323:Generated_Source\PSoC5/CySpc.c ****         {
 324:Generated_Source\PSoC5/CySpc.c ****             CY_SPC_CPU_DATA_REG = array;
 423              		.loc 1 324 0
 424 0024 154C     		ldr	r4, .L49+4
 425 0026 2070     		strb	r0, [r4]
 426              	.LVL39:
 325:Generated_Source\PSoC5/CySpc.c **** 
 326:Generated_Source\PSoC5/CySpc.c ****             /*******************************************************************
 327:Generated_Source\PSoC5/CySpc.c ****             * If "Enable Error Correcting Code (ECC)" and "Store Configuration
 328:Generated_Source\PSoC5/CySpc.c ****             * Data in ECC" DWR options are disabled, ECC section is available
 329:Generated_Source\PSoC5/CySpc.c ****             * for user data.
 330:Generated_Source\PSoC5/CySpc.c ****             *******************************************************************/
 331:Generated_Source\PSoC5/CySpc.c ****             #if ((CYDEV_ECC_ENABLE == 0u) && (CYDEV_CONFIGURATION_ECC == 0u))
 332:Generated_Source\PSoC5/CySpc.c **** 
 333:Generated_Source\PSoC5/CySpc.c ****                 /*******************************************************************
 334:Generated_Source\PSoC5/CySpc.c ****                 * If size parameter equals size of the ECC row and selected array
 335:Generated_Source\PSoC5/CySpc.c ****                 * identification corresponds to the flash array (but not to EEPROM
 336:Generated_Source\PSoC5/CySpc.c ****                 * array) then data are going to be written to the ECC section.
 337:Generated_Source\PSoC5/CySpc.c ****                 * In this case flash data must be preserved. The flash data copied
 338:Generated_Source\PSoC5/CySpc.c ****                 * from flash data section to the SPC data register.
 339:Generated_Source\PSoC5/CySpc.c ****                 *******************************************************************/
 340:Generated_Source\PSoC5/CySpc.c ****                 if ((size == CYDEV_ECC_ROW_SIZE) && (array <= CY_SPC_LAST_FLASH_ARRAYID))
 341:Generated_Source\PSoC5/CySpc.c ****                 {
 342:Generated_Source\PSoC5/CySpc.c ****                     offset = CYDEV_FLS_BASE +
 343:Generated_Source\PSoC5/CySpc.c ****                              ((uint32) array * CYDEV_FLS_SECTOR_SIZE) +
 344:Generated_Source\PSoC5/CySpc.c ****                              ((uint32)   row * CYDEV_FLS_ROW_SIZE   );
 345:Generated_Source\PSoC5/CySpc.c **** 
 346:Generated_Source\PSoC5/CySpc.c ****                     for (i = 0u; i < CYDEV_FLS_ROW_SIZE; i++)
 347:Generated_Source\PSoC5/CySpc.c ****                     {
 348:Generated_Source\PSoC5/CySpc.c ****                         CY_SPC_CPU_DATA_REG = CY_GET_XTND_REG8((void CYFAR *)(offset + i));
 349:Generated_Source\PSoC5/CySpc.c ****                     }
 350:Generated_Source\PSoC5/CySpc.c ****                 }
 351:Generated_Source\PSoC5/CySpc.c **** 
 352:Generated_Source\PSoC5/CySpc.c ****             #endif /* ((CYDEV_ECC_ENABLE == 0u) && (CYDEV_CONFIGURATION_ECC == 0u)) */
 353:Generated_Source\PSoC5/CySpc.c **** 
 354:Generated_Source\PSoC5/CySpc.c **** 
 355:Generated_Source\PSoC5/CySpc.c ****             for(i = 0u; i < size; i++)
 427              		.loc 1 355 0
 428 0028 0024     		movs	r4, #0
 429 002a 04E0     		b	.L40
 430              	.LVL40:
ARM GAS  C:\Users\MATEUS~1\AppData\Local\Temp\ccYkUC78.s 			page 15


 431              	.L41:
 356:Generated_Source\PSoC5/CySpc.c ****             {
 357:Generated_Source\PSoC5/CySpc.c ****                 CY_SPC_CPU_DATA_REG = buffer[i];
 432              		.loc 1 357 0 discriminator 3
 433 002c 165D     		ldrb	r6, [r2, r4]	@ zero_extendqisi2
 434 002e 134D     		ldr	r5, .L49+4
 435 0030 2E70     		strb	r6, [r5]
 355:Generated_Source\PSoC5/CySpc.c ****             {
 436              		.loc 1 355 0 discriminator 3
 437 0032 0134     		adds	r4, r4, #1
 438              	.LVL41:
 439 0034 A4B2     		uxth	r4, r4
 440              	.LVL42:
 441              	.L40:
 355:Generated_Source\PSoC5/CySpc.c ****             {
 442              		.loc 1 355 0 is_stmt 0 discriminator 1
 443 0036 9C42     		cmp	r4, r3
 444 0038 F8D3     		bcc	.L41
 358:Generated_Source\PSoC5/CySpc.c ****             }
 359:Generated_Source\PSoC5/CySpc.c **** 
 360:Generated_Source\PSoC5/CySpc.c **** 
 361:Generated_Source\PSoC5/CySpc.c ****             /*******************************************************************
 362:Generated_Source\PSoC5/CySpc.c ****             * If "Enable Error Correcting Code (ECC)" DWR option is disabled,
 363:Generated_Source\PSoC5/CySpc.c ****             * ECC section can be used for storing device configuration data
 364:Generated_Source\PSoC5/CySpc.c ****             * ("Store Configuration Data in ECC" DWR option is enabled) or for
 365:Generated_Source\PSoC5/CySpc.c ****             * storing user data in the ECC section ("Store Configuration Data in
 366:Generated_Source\PSoC5/CySpc.c ****             * ECC" DWR option is enabled). In both cases, the data in the ECC
 367:Generated_Source\PSoC5/CySpc.c ****             * section must be preserved if flash data is written.
 368:Generated_Source\PSoC5/CySpc.c ****             *******************************************************************/
 369:Generated_Source\PSoC5/CySpc.c ****             #if (CYDEV_ECC_ENABLE == 0)
 370:Generated_Source\PSoC5/CySpc.c **** 
 371:Generated_Source\PSoC5/CySpc.c **** 
 372:Generated_Source\PSoC5/CySpc.c ****                 /*******************************************************************
 373:Generated_Source\PSoC5/CySpc.c ****                 * If size parameter equals size of the flash row and selected array
 374:Generated_Source\PSoC5/CySpc.c ****                 * identification corresponds to the flash array (but not to EEPROM
 375:Generated_Source\PSoC5/CySpc.c ****                 * array) then data are going to be written to the flash data
 376:Generated_Source\PSoC5/CySpc.c ****                 * section. In this case, ECC section data must be preserved.
 377:Generated_Source\PSoC5/CySpc.c ****                 * The ECC section data copied from ECC section to the SPC data
 378:Generated_Source\PSoC5/CySpc.c ****                 * register.
 379:Generated_Source\PSoC5/CySpc.c ****                 *******************************************************************/
 380:Generated_Source\PSoC5/CySpc.c ****                 if ((size == CYDEV_FLS_ROW_SIZE) && (array <= CY_SPC_LAST_FLASH_ARRAYID))
 445              		.loc 1 380 0 is_stmt 1
 446 003a B3F5807F 		cmp	r3, #256
 447 003e 16D1     		bne	.L46
 448              		.loc 1 380 0 is_stmt 0 discriminator 1
 449 0040 3F28     		cmp	r0, #63
 450 0042 16D8     		bhi	.L47
 381:Generated_Source\PSoC5/CySpc.c ****                 {
 382:Generated_Source\PSoC5/CySpc.c ****                     offset = CYDEV_ECC_BASE +
 383:Generated_Source\PSoC5/CySpc.c ****                             ((uint32) array * CYDEV_ECC_SECTOR_SIZE) +
 451              		.loc 1 383 0 is_stmt 1
 452 0044 00F51030 		add	r0, r0, #147456
 453              	.LVL43:
 454 0048 01EB0021 		add	r1, r1, r0, lsl #8
 455              	.LVL44:
 382:Generated_Source\PSoC5/CySpc.c ****                             ((uint32) array * CYDEV_ECC_SECTOR_SIZE) +
 456              		.loc 1 382 0
ARM GAS  C:\Users\MATEUS~1\AppData\Local\Temp\ccYkUC78.s 			page 16


 457 004c 4801     		lsls	r0, r1, #5
 458              	.LVL45:
 384:Generated_Source\PSoC5/CySpc.c ****                             ((uint32) row   * CYDEV_ECC_ROW_SIZE   );
 385:Generated_Source\PSoC5/CySpc.c **** 
 386:Generated_Source\PSoC5/CySpc.c ****                     for (i = 0u; i < CYDEV_ECC_ROW_SIZE; i++)
 459              		.loc 1 386 0
 460 004e 0023     		movs	r3, #0
 461              	.LVL46:
 462 0050 05E0     		b	.L42
 463              	.LVL47:
 464              	.L43:
 387:Generated_Source\PSoC5/CySpc.c ****                     {
 388:Generated_Source\PSoC5/CySpc.c ****                         CY_SPC_CPU_DATA_REG = CY_GET_XTND_REG8((void CYFAR *)(offset + i));
 465              		.loc 1 388 0 discriminator 3
 466 0052 1A5C     		ldrb	r2, [r3, r0]	@ zero_extendqisi2
 467 0054 D2B2     		uxtb	r2, r2
 468 0056 0949     		ldr	r1, .L49+4
 469 0058 0A70     		strb	r2, [r1]
 386:Generated_Source\PSoC5/CySpc.c ****                     {
 470              		.loc 1 386 0 discriminator 3
 471 005a 0133     		adds	r3, r3, #1
 472              	.LVL48:
 473 005c 9BB2     		uxth	r3, r3
 474              	.LVL49:
 475              	.L42:
 386:Generated_Source\PSoC5/CySpc.c ****                     {
 476              		.loc 1 386 0 is_stmt 0 discriminator 1
 477 005e 1F2B     		cmp	r3, #31
 478 0060 F7D9     		bls	.L43
 307:Generated_Source\PSoC5/CySpc.c ****     uint16 i;
 479              		.loc 1 307 0 is_stmt 1
 480 0062 0720     		movs	r0, #7
 481              	.LVL50:
 482 0064 06E0     		b	.L39
 483              	.LVL51:
 484              	.L44:
 389:Generated_Source\PSoC5/CySpc.c ****                     }
 390:Generated_Source\PSoC5/CySpc.c ****                 }
 391:Generated_Source\PSoC5/CySpc.c **** 
 392:Generated_Source\PSoC5/CySpc.c ****             #else
 393:Generated_Source\PSoC5/CySpc.c **** 
 394:Generated_Source\PSoC5/CySpc.c ****                 if(0u != row)
 395:Generated_Source\PSoC5/CySpc.c ****                 {
 396:Generated_Source\PSoC5/CySpc.c ****                     /* To remove unreferenced local variable warning */
 397:Generated_Source\PSoC5/CySpc.c ****                 }
 398:Generated_Source\PSoC5/CySpc.c **** 
 399:Generated_Source\PSoC5/CySpc.c ****             #endif /* (CYDEV_ECC_ENABLE == 0) */
 400:Generated_Source\PSoC5/CySpc.c ****         }
 401:Generated_Source\PSoC5/CySpc.c ****         else
 402:Generated_Source\PSoC5/CySpc.c ****         {
 403:Generated_Source\PSoC5/CySpc.c ****             status = CYRET_CANCELED;
 404:Generated_Source\PSoC5/CySpc.c ****         }
 405:Generated_Source\PSoC5/CySpc.c ****     }
 406:Generated_Source\PSoC5/CySpc.c ****     else
 407:Generated_Source\PSoC5/CySpc.c ****     {
 408:Generated_Source\PSoC5/CySpc.c ****         status = CYRET_LOCKED;
 485              		.loc 1 408 0
ARM GAS  C:\Users\MATEUS~1\AppData\Local\Temp\ccYkUC78.s 			page 17


 486 0066 0420     		movs	r0, #4
 487              	.LVL52:
 488 0068 04E0     		b	.L39
 489              	.LVL53:
 490              	.L45:
 403:Generated_Source\PSoC5/CySpc.c ****         }
 491              		.loc 1 403 0
 492 006a 0920     		movs	r0, #9
 493              	.LVL54:
 494 006c 02E0     		b	.L39
 495              	.LVL55:
 496              	.L46:
 307:Generated_Source\PSoC5/CySpc.c ****     uint16 i;
 497              		.loc 1 307 0
 498 006e 0720     		movs	r0, #7
 499              	.LVL56:
 500 0070 00E0     		b	.L39
 501              	.LVL57:
 502              	.L47:
 503 0072 0720     		movs	r0, #7
 504              	.LVL58:
 505              	.L39:
 409:Generated_Source\PSoC5/CySpc.c ****     }
 410:Generated_Source\PSoC5/CySpc.c **** 
 411:Generated_Source\PSoC5/CySpc.c ****     return(status);
 412:Generated_Source\PSoC5/CySpc.c **** }
 506              		.loc 1 412 0
 507 0074 70BC     		pop	{r4, r5, r6}
 508              		.cfi_restore 6
 509              		.cfi_restore 5
 510              		.cfi_restore 4
 511              		.cfi_def_cfa_offset 0
 512 0076 7047     		bx	lr
 513              	.L50:
 514              		.align	2
 515              	.L49:
 516 0078 22470040 		.word	1073760034
 517 007c 20470040 		.word	1073760032
 518              		.cfi_endproc
 519              	.LFE5:
 520              		.size	CySpcLoadRowFull, .-CySpcLoadRowFull
 521              		.section	.text.CySpcWriteRow,"ax",%progbits
 522              		.align	2
 523              		.global	CySpcWriteRow
 524              		.thumb
 525              		.thumb_func
 526              		.type	CySpcWriteRow, %function
 527              	CySpcWriteRow:
 528              	.LFB6:
 413:Generated_Source\PSoC5/CySpc.c **** 
 414:Generated_Source\PSoC5/CySpc.c **** 
 415:Generated_Source\PSoC5/CySpc.c **** /*******************************************************************************
 416:Generated_Source\PSoC5/CySpc.c **** * Function Name: CySpcWriteRow
 417:Generated_Source\PSoC5/CySpc.c **** ****************************************************************************//**
 418:Generated_Source\PSoC5/CySpc.c **** *  Erases then programs a row in Flash/EEPROM with data in row latch.
 419:Generated_Source\PSoC5/CySpc.c **** *
 420:Generated_Source\PSoC5/CySpc.c **** *  \param uint8 array:
ARM GAS  C:\Users\MATEUS~1\AppData\Local\Temp\ccYkUC78.s 			page 18


 421:Generated_Source\PSoC5/CySpc.c **** *   Id of the array.
 422:Generated_Source\PSoC5/CySpc.c **** *
 423:Generated_Source\PSoC5/CySpc.c **** *  \param uint16 address:
 424:Generated_Source\PSoC5/CySpc.c **** *   flash/eeprom addrress
 425:Generated_Source\PSoC5/CySpc.c **** *
 426:Generated_Source\PSoC5/CySpc.c **** *  \param uint8 tempPolarity:
 427:Generated_Source\PSoC5/CySpc.c **** *   temperature polarity.
 428:Generated_Source\PSoC5/CySpc.c **** *   \param 1: the Temp Magnitude is interpreted as a positive value
 429:Generated_Source\PSoC5/CySpc.c **** *   \param 0: the Temp Magnitude is interpreted as a negative value
 430:Generated_Source\PSoC5/CySpc.c **** *
 431:Generated_Source\PSoC5/CySpc.c **** *  \param uint8 tempMagnitude:
 432:Generated_Source\PSoC5/CySpc.c **** *   temperature magnitude.
 433:Generated_Source\PSoC5/CySpc.c **** *
 434:Generated_Source\PSoC5/CySpc.c **** * \return
 435:Generated_Source\PSoC5/CySpc.c **** *  CYRET_STARTED
 436:Generated_Source\PSoC5/CySpc.c **** *  CYRET_CANCELED
 437:Generated_Source\PSoC5/CySpc.c **** *  CYRET_LOCKED
 438:Generated_Source\PSoC5/CySpc.c **** *
 439:Generated_Source\PSoC5/CySpc.c **** *******************************************************************************/
 440:Generated_Source\PSoC5/CySpc.c **** cystatus CySpcWriteRow(uint8 array, uint16 address, uint8 tempPolarity, uint8 tempMagnitude)\
 441:Generated_Source\PSoC5/CySpc.c **** 
 442:Generated_Source\PSoC5/CySpc.c **** {
 529              		.loc 1 442 0
 530              		.cfi_startproc
 531              		@ args = 0, pretend = 0, frame = 0
 532              		@ frame_needed = 0, uses_anonymous_args = 0
 533              		@ link register save eliminated.
 534              	.LVL59:
 535 0000 30B4     		push	{r4, r5}
 536              		.cfi_def_cfa_offset 8
 537              		.cfi_offset 4, -8
 538              		.cfi_offset 5, -4
 539              	.LVL60:
 443:Generated_Source\PSoC5/CySpc.c ****     cystatus status = CYRET_STARTED;
 444:Generated_Source\PSoC5/CySpc.c **** 
 445:Generated_Source\PSoC5/CySpc.c ****     /* Make sure the SPC is ready to accept command */
 446:Generated_Source\PSoC5/CySpc.c ****     if(CY_SPC_IDLE)
 540              		.loc 1 446 0
 541 0002 104C     		ldr	r4, .L56
 542 0004 2478     		ldrb	r4, [r4]	@ zero_extendqisi2
 543 0006 14F0020F 		tst	r4, #2
 544 000a 15D0     		beq	.L53
 447:Generated_Source\PSoC5/CySpc.c ****     {
 448:Generated_Source\PSoC5/CySpc.c ****         CY_SPC_CPU_DATA_REG = CY_SPC_KEY_ONE;
 545              		.loc 1 448 0
 546 000c 0E4C     		ldr	r4, .L56+4
 547 000e B625     		movs	r5, #182
 548 0010 2570     		strb	r5, [r4]
 449:Generated_Source\PSoC5/CySpc.c ****         CY_SPC_CPU_DATA_REG = CY_SPC_KEY_TWO(CY_SPC_CMD_WR_ROW);
 549              		.loc 1 449 0
 550 0012 D825     		movs	r5, #216
 551 0014 2570     		strb	r5, [r4]
 450:Generated_Source\PSoC5/CySpc.c ****         CY_SPC_CPU_DATA_REG = CY_SPC_CMD_WR_ROW;
 552              		.loc 1 450 0
 553 0016 0525     		movs	r5, #5
 554 0018 2570     		strb	r5, [r4]
 451:Generated_Source\PSoC5/CySpc.c **** 
ARM GAS  C:\Users\MATEUS~1\AppData\Local\Temp\ccYkUC78.s 			page 19


 452:Generated_Source\PSoC5/CySpc.c ****         /* Make sure the command was accepted */
 453:Generated_Source\PSoC5/CySpc.c ****         if(CY_SPC_BUSY)
 555              		.loc 1 453 0
 556 001a 0234     		adds	r4, r4, #2
 557 001c 2478     		ldrb	r4, [r4]	@ zero_extendqisi2
 558 001e 14F0020F 		tst	r4, #2
 559 0022 0BD1     		bne	.L54
 454:Generated_Source\PSoC5/CySpc.c ****         {
 455:Generated_Source\PSoC5/CySpc.c ****             CY_SPC_CPU_DATA_REG = array;
 560              		.loc 1 455 0
 561 0024 084C     		ldr	r4, .L56+4
 562 0026 2070     		strb	r0, [r4]
 456:Generated_Source\PSoC5/CySpc.c ****             CY_SPC_CPU_DATA_REG = HI8(address);
 563              		.loc 1 456 0
 564 0028 080A     		lsrs	r0, r1, #8
 565              	.LVL61:
 566 002a 2070     		strb	r0, [r4]
 567              	.LVL62:
 457:Generated_Source\PSoC5/CySpc.c ****             CY_SPC_CPU_DATA_REG = LO8(address);
 568              		.loc 1 457 0
 569 002c C9B2     		uxtb	r1, r1
 570              	.LVL63:
 571 002e 2170     		strb	r1, [r4]
 458:Generated_Source\PSoC5/CySpc.c ****             CY_SPC_CPU_DATA_REG = tempPolarity;
 572              		.loc 1 458 0
 573 0030 2270     		strb	r2, [r4]
 459:Generated_Source\PSoC5/CySpc.c ****             CY_SPC_CPU_DATA_REG = tempMagnitude;
 574              		.loc 1 459 0
 575 0032 2370     		strb	r3, [r4]
 443:Generated_Source\PSoC5/CySpc.c **** 
 576              		.loc 1 443 0
 577 0034 0720     		movs	r0, #7
 578 0036 02E0     		b	.L52
 579              	.LVL64:
 580              	.L53:
 460:Generated_Source\PSoC5/CySpc.c ****         }
 461:Generated_Source\PSoC5/CySpc.c ****         else
 462:Generated_Source\PSoC5/CySpc.c ****         {
 463:Generated_Source\PSoC5/CySpc.c ****             status = CYRET_CANCELED;
 464:Generated_Source\PSoC5/CySpc.c ****         }
 465:Generated_Source\PSoC5/CySpc.c ****     }
 466:Generated_Source\PSoC5/CySpc.c ****     else
 467:Generated_Source\PSoC5/CySpc.c ****     {
 468:Generated_Source\PSoC5/CySpc.c ****         status = CYRET_LOCKED;
 581              		.loc 1 468 0
 582 0038 0420     		movs	r0, #4
 583              	.LVL65:
 584 003a 00E0     		b	.L52
 585              	.LVL66:
 586              	.L54:
 463:Generated_Source\PSoC5/CySpc.c ****         }
 587              		.loc 1 463 0
 588 003c 0920     		movs	r0, #9
 589              	.LVL67:
 590              	.L52:
 469:Generated_Source\PSoC5/CySpc.c ****     }
 470:Generated_Source\PSoC5/CySpc.c **** 
ARM GAS  C:\Users\MATEUS~1\AppData\Local\Temp\ccYkUC78.s 			page 20


 471:Generated_Source\PSoC5/CySpc.c ****     return(status);
 472:Generated_Source\PSoC5/CySpc.c **** }
 591              		.loc 1 472 0
 592 003e 30BC     		pop	{r4, r5}
 593              		.cfi_restore 5
 594              		.cfi_restore 4
 595              		.cfi_def_cfa_offset 0
 596 0040 7047     		bx	lr
 597              	.L57:
 598 0042 00BF     		.align	2
 599              	.L56:
 600 0044 22470040 		.word	1073760034
 601 0048 20470040 		.word	1073760032
 602              		.cfi_endproc
 603              	.LFE6:
 604              		.size	CySpcWriteRow, .-CySpcWriteRow
 605              		.section	.text.CySpcEraseSector,"ax",%progbits
 606              		.align	2
 607              		.global	CySpcEraseSector
 608              		.thumb
 609              		.thumb_func
 610              		.type	CySpcEraseSector, %function
 611              	CySpcEraseSector:
 612              	.LFB7:
 473:Generated_Source\PSoC5/CySpc.c **** 
 474:Generated_Source\PSoC5/CySpc.c **** 
 475:Generated_Source\PSoC5/CySpc.c **** /*******************************************************************************
 476:Generated_Source\PSoC5/CySpc.c **** * Function Name: CySpcEraseSector
 477:Generated_Source\PSoC5/CySpc.c **** ****************************************************************************//**
 478:Generated_Source\PSoC5/CySpc.c **** *  Erases all data in the addressed sector (block of 64 rows).
 479:Generated_Source\PSoC5/CySpc.c **** *
 480:Generated_Source\PSoC5/CySpc.c **** *  \param uint8 array:
 481:Generated_Source\PSoC5/CySpc.c **** *   Id of the array.
 482:Generated_Source\PSoC5/CySpc.c **** *
 483:Generated_Source\PSoC5/CySpc.c **** *  \param uint8 sectorNumber:
 484:Generated_Source\PSoC5/CySpc.c **** *   Zero based sector number within Flash/EEPROM array
 485:Generated_Source\PSoC5/CySpc.c **** *
 486:Generated_Source\PSoC5/CySpc.c **** * \return
 487:Generated_Source\PSoC5/CySpc.c **** *  CYRET_STARTED
 488:Generated_Source\PSoC5/CySpc.c **** *  CYRET_CANCELED
 489:Generated_Source\PSoC5/CySpc.c **** *  CYRET_LOCKED
 490:Generated_Source\PSoC5/CySpc.c **** *
 491:Generated_Source\PSoC5/CySpc.c **** *******************************************************************************/
 492:Generated_Source\PSoC5/CySpc.c **** cystatus CySpcEraseSector(uint8 array, uint8 sectorNumber)
 493:Generated_Source\PSoC5/CySpc.c **** {
 613              		.loc 1 493 0
 614              		.cfi_startproc
 615              		@ args = 0, pretend = 0, frame = 0
 616              		@ frame_needed = 0, uses_anonymous_args = 0
 617              		@ link register save eliminated.
 618              	.LVL68:
 494:Generated_Source\PSoC5/CySpc.c ****     cystatus status = CYRET_STARTED;
 495:Generated_Source\PSoC5/CySpc.c **** 
 496:Generated_Source\PSoC5/CySpc.c ****     /* Make sure the SPC is ready to accept command */
 497:Generated_Source\PSoC5/CySpc.c ****     if(CY_SPC_IDLE)
 619              		.loc 1 497 0
 620 0000 0C4B     		ldr	r3, .L62
ARM GAS  C:\Users\MATEUS~1\AppData\Local\Temp\ccYkUC78.s 			page 21


 621 0002 1B78     		ldrb	r3, [r3]	@ zero_extendqisi2
 622 0004 13F0020F 		tst	r3, #2
 623 0008 10D0     		beq	.L60
 498:Generated_Source\PSoC5/CySpc.c ****     {
 499:Generated_Source\PSoC5/CySpc.c ****         CY_SPC_CPU_DATA_REG = CY_SPC_KEY_ONE;
 624              		.loc 1 499 0
 625 000a 0B4B     		ldr	r3, .L62+4
 626 000c B622     		movs	r2, #182
 627 000e 1A70     		strb	r2, [r3]
 500:Generated_Source\PSoC5/CySpc.c ****         CY_SPC_CPU_DATA_REG = CY_SPC_KEY_TWO(CY_SPC_CMD_ER_SECTOR);
 628              		.loc 1 500 0
 629 0010 DB22     		movs	r2, #219
 630 0012 1A70     		strb	r2, [r3]
 501:Generated_Source\PSoC5/CySpc.c ****         CY_SPC_CPU_DATA_REG = CY_SPC_CMD_ER_SECTOR;
 631              		.loc 1 501 0
 632 0014 0822     		movs	r2, #8
 633 0016 1A70     		strb	r2, [r3]
 502:Generated_Source\PSoC5/CySpc.c **** 
 503:Generated_Source\PSoC5/CySpc.c ****         /* Make sure the command was accepted */
 504:Generated_Source\PSoC5/CySpc.c ****         if(CY_SPC_BUSY)
 634              		.loc 1 504 0
 635 0018 0233     		adds	r3, r3, #2
 636 001a 1B78     		ldrb	r3, [r3]	@ zero_extendqisi2
 637 001c 13F0020F 		tst	r3, #2
 638 0020 06D1     		bne	.L61
 505:Generated_Source\PSoC5/CySpc.c ****         {
 506:Generated_Source\PSoC5/CySpc.c ****             CY_SPC_CPU_DATA_REG = array;
 639              		.loc 1 506 0
 640 0022 054B     		ldr	r3, .L62+4
 641 0024 1870     		strb	r0, [r3]
 507:Generated_Source\PSoC5/CySpc.c ****             CY_SPC_CPU_DATA_REG = sectorNumber;
 642              		.loc 1 507 0
 643 0026 1970     		strb	r1, [r3]
 494:Generated_Source\PSoC5/CySpc.c **** 
 644              		.loc 1 494 0
 645 0028 0720     		movs	r0, #7
 646              	.LVL69:
 647 002a 7047     		bx	lr
 648              	.LVL70:
 649              	.L60:
 508:Generated_Source\PSoC5/CySpc.c ****         }
 509:Generated_Source\PSoC5/CySpc.c ****         else
 510:Generated_Source\PSoC5/CySpc.c ****         {
 511:Generated_Source\PSoC5/CySpc.c ****             status = CYRET_CANCELED;
 512:Generated_Source\PSoC5/CySpc.c ****         }
 513:Generated_Source\PSoC5/CySpc.c ****     }
 514:Generated_Source\PSoC5/CySpc.c ****     else
 515:Generated_Source\PSoC5/CySpc.c ****     {
 516:Generated_Source\PSoC5/CySpc.c ****         status = CYRET_LOCKED;
 650              		.loc 1 516 0
 651 002c 0420     		movs	r0, #4
 652              	.LVL71:
 653 002e 7047     		bx	lr
 654              	.LVL72:
 655              	.L61:
 511:Generated_Source\PSoC5/CySpc.c ****         }
 656              		.loc 1 511 0
ARM GAS  C:\Users\MATEUS~1\AppData\Local\Temp\ccYkUC78.s 			page 22


 657 0030 0920     		movs	r0, #9
 658              	.LVL73:
 517:Generated_Source\PSoC5/CySpc.c ****     }
 518:Generated_Source\PSoC5/CySpc.c **** 
 519:Generated_Source\PSoC5/CySpc.c ****     return(status);
 520:Generated_Source\PSoC5/CySpc.c **** }
 659              		.loc 1 520 0
 660 0032 7047     		bx	lr
 661              	.L63:
 662              		.align	2
 663              	.L62:
 664 0034 22470040 		.word	1073760034
 665 0038 20470040 		.word	1073760032
 666              		.cfi_endproc
 667              	.LFE7:
 668              		.size	CySpcEraseSector, .-CySpcEraseSector
 669              		.section	.text.CySpcGetTemp,"ax",%progbits
 670              		.align	2
 671              		.global	CySpcGetTemp
 672              		.thumb
 673              		.thumb_func
 674              		.type	CySpcGetTemp, %function
 675              	CySpcGetTemp:
 676              	.LFB8:
 521:Generated_Source\PSoC5/CySpc.c **** 
 522:Generated_Source\PSoC5/CySpc.c **** 
 523:Generated_Source\PSoC5/CySpc.c **** /*******************************************************************************
 524:Generated_Source\PSoC5/CySpc.c **** * Function Name: CySpcGetTemp
 525:Generated_Source\PSoC5/CySpc.c **** ****************************************************************************//**
 526:Generated_Source\PSoC5/CySpc.c **** *  Returns the internal die temperature
 527:Generated_Source\PSoC5/CySpc.c **** *
 528:Generated_Source\PSoC5/CySpc.c **** *  \param uint8 numSamples:
 529:Generated_Source\PSoC5/CySpc.c **** *   Number of samples. Valid values are 1-5, resulting in 2 - 32 samples
 530:Generated_Source\PSoC5/CySpc.c **** *   respectively.
 531:Generated_Source\PSoC5/CySpc.c **** *
 532:Generated_Source\PSoC5/CySpc.c **** * \param uint16 timerPeriod:
 533:Generated_Source\PSoC5/CySpc.c **** *   Number of ADC ACLK cycles. A valid 14 bit value is accepted, higher 2 bits
 534:Generated_Source\PSoC5/CySpc.c **** *   of 16 bit values are ignored.
 535:Generated_Source\PSoC5/CySpc.c **** *
 536:Generated_Source\PSoC5/CySpc.c **** * \param uint8 clkDivSelect:
 537:Generated_Source\PSoC5/CySpc.c **** *   ADC ACLK clock divide value. Valid values are 2 - 225.
 538:Generated_Source\PSoC5/CySpc.c **** *
 539:Generated_Source\PSoC5/CySpc.c **** * \return
 540:Generated_Source\PSoC5/CySpc.c **** *  CYRET_STARTED
 541:Generated_Source\PSoC5/CySpc.c **** *  CYRET_CANCELED
 542:Generated_Source\PSoC5/CySpc.c **** *  CYRET_LOCKED
 543:Generated_Source\PSoC5/CySpc.c **** *
 544:Generated_Source\PSoC5/CySpc.c **** *******************************************************************************/
 545:Generated_Source\PSoC5/CySpc.c **** cystatus CySpcGetTemp(uint8 numSamples)
 546:Generated_Source\PSoC5/CySpc.c **** {
 677              		.loc 1 546 0
 678              		.cfi_startproc
 679              		@ args = 0, pretend = 0, frame = 0
 680              		@ frame_needed = 0, uses_anonymous_args = 0
 681              		@ link register save eliminated.
 682              	.LVL74:
 547:Generated_Source\PSoC5/CySpc.c ****     cystatus status = CYRET_STARTED;
ARM GAS  C:\Users\MATEUS~1\AppData\Local\Temp\ccYkUC78.s 			page 23


 548:Generated_Source\PSoC5/CySpc.c **** 
 549:Generated_Source\PSoC5/CySpc.c ****     /* Make sure the SPC is ready to accept command */
 550:Generated_Source\PSoC5/CySpc.c ****     if(CY_SPC_IDLE)
 683              		.loc 1 550 0
 684 0000 0C4B     		ldr	r3, .L68
 685 0002 1B78     		ldrb	r3, [r3]	@ zero_extendqisi2
 686 0004 13F0020F 		tst	r3, #2
 687 0008 0FD0     		beq	.L66
 551:Generated_Source\PSoC5/CySpc.c ****     {
 552:Generated_Source\PSoC5/CySpc.c ****         CY_SPC_CPU_DATA_REG = CY_SPC_KEY_ONE;
 688              		.loc 1 552 0
 689 000a 0B4B     		ldr	r3, .L68+4
 690 000c B622     		movs	r2, #182
 691 000e 1A70     		strb	r2, [r3]
 553:Generated_Source\PSoC5/CySpc.c ****         CY_SPC_CPU_DATA_REG = CY_SPC_KEY_TWO(CY_SPC_CMD_GET_TEMP);
 692              		.loc 1 553 0
 693 0010 E122     		movs	r2, #225
 694 0012 1A70     		strb	r2, [r3]
 554:Generated_Source\PSoC5/CySpc.c ****         CY_SPC_CPU_DATA_REG = CY_SPC_CMD_GET_TEMP;
 695              		.loc 1 554 0
 696 0014 0E22     		movs	r2, #14
 697 0016 1A70     		strb	r2, [r3]
 555:Generated_Source\PSoC5/CySpc.c **** 
 556:Generated_Source\PSoC5/CySpc.c ****         /* Make sure the command was accepted */
 557:Generated_Source\PSoC5/CySpc.c ****         if(CY_SPC_BUSY)
 698              		.loc 1 557 0
 699 0018 0233     		adds	r3, r3, #2
 700 001a 1B78     		ldrb	r3, [r3]	@ zero_extendqisi2
 701 001c 13F0020F 		tst	r3, #2
 702 0020 05D1     		bne	.L67
 558:Generated_Source\PSoC5/CySpc.c ****         {
 559:Generated_Source\PSoC5/CySpc.c ****             CY_SPC_CPU_DATA_REG = numSamples;
 703              		.loc 1 559 0
 704 0022 054B     		ldr	r3, .L68+4
 705 0024 1870     		strb	r0, [r3]
 547:Generated_Source\PSoC5/CySpc.c **** 
 706              		.loc 1 547 0
 707 0026 0720     		movs	r0, #7
 708              	.LVL75:
 709 0028 7047     		bx	lr
 710              	.LVL76:
 711              	.L66:
 560:Generated_Source\PSoC5/CySpc.c ****         }
 561:Generated_Source\PSoC5/CySpc.c ****         else
 562:Generated_Source\PSoC5/CySpc.c ****         {
 563:Generated_Source\PSoC5/CySpc.c ****             status = CYRET_CANCELED;
 564:Generated_Source\PSoC5/CySpc.c ****         }
 565:Generated_Source\PSoC5/CySpc.c ****     }
 566:Generated_Source\PSoC5/CySpc.c ****     else
 567:Generated_Source\PSoC5/CySpc.c ****     {
 568:Generated_Source\PSoC5/CySpc.c ****         status = CYRET_LOCKED;
 712              		.loc 1 568 0
 713 002a 0420     		movs	r0, #4
 714              	.LVL77:
 715 002c 7047     		bx	lr
 716              	.LVL78:
 717              	.L67:
ARM GAS  C:\Users\MATEUS~1\AppData\Local\Temp\ccYkUC78.s 			page 24


 563:Generated_Source\PSoC5/CySpc.c ****         }
 718              		.loc 1 563 0
 719 002e 0920     		movs	r0, #9
 720              	.LVL79:
 569:Generated_Source\PSoC5/CySpc.c ****     }
 570:Generated_Source\PSoC5/CySpc.c **** 
 571:Generated_Source\PSoC5/CySpc.c ****     return(status);
 572:Generated_Source\PSoC5/CySpc.c **** }
 721              		.loc 1 572 0
 722 0030 7047     		bx	lr
 723              	.L69:
 724 0032 00BF     		.align	2
 725              	.L68:
 726 0034 22470040 		.word	1073760034
 727 0038 20470040 		.word	1073760032
 728              		.cfi_endproc
 729              	.LFE8:
 730              		.size	CySpcGetTemp, .-CySpcGetTemp
 731              		.section	.text.CySpcLock,"ax",%progbits
 732              		.align	2
 733              		.global	CySpcLock
 734              		.thumb
 735              		.thumb_func
 736              		.type	CySpcLock, %function
 737              	CySpcLock:
 738              	.LFB9:
 573:Generated_Source\PSoC5/CySpc.c **** 
 574:Generated_Source\PSoC5/CySpc.c **** 
 575:Generated_Source\PSoC5/CySpc.c **** /*******************************************************************************
 576:Generated_Source\PSoC5/CySpc.c **** * Function Name: CySpcLock
 577:Generated_Source\PSoC5/CySpc.c **** ****************************************************************************//**
 578:Generated_Source\PSoC5/CySpc.c **** *  Locks the SPC so it can not be used by someone else:
 579:Generated_Source\PSoC5/CySpc.c **** *   - Saves wait-pipeline enable state and enable pipeline (PSoC5)
 580:Generated_Source\PSoC5/CySpc.c **** *
 581:Generated_Source\PSoC5/CySpc.c **** * \return
 582:Generated_Source\PSoC5/CySpc.c **** *  CYRET_SUCCESS - if the resource was free.
 583:Generated_Source\PSoC5/CySpc.c **** *  CYRET_LOCKED  - if the SPC is in use.
 584:Generated_Source\PSoC5/CySpc.c **** *
 585:Generated_Source\PSoC5/CySpc.c **** *******************************************************************************/
 586:Generated_Source\PSoC5/CySpc.c **** cystatus CySpcLock(void)
 587:Generated_Source\PSoC5/CySpc.c **** {
 739              		.loc 1 587 0
 740              		.cfi_startproc
 741              		@ args = 0, pretend = 0, frame = 0
 742              		@ frame_needed = 0, uses_anonymous_args = 0
 743 0000 10B5     		push	{r4, lr}
 744              		.cfi_def_cfa_offset 8
 745              		.cfi_offset 4, -8
 746              		.cfi_offset 14, -4
 747              	.LVL80:
 588:Generated_Source\PSoC5/CySpc.c ****     cystatus status = CYRET_LOCKED;
 589:Generated_Source\PSoC5/CySpc.c ****     uint8 interruptState;
 590:Generated_Source\PSoC5/CySpc.c **** 
 591:Generated_Source\PSoC5/CySpc.c ****     /* Enter critical section */
 592:Generated_Source\PSoC5/CySpc.c ****     interruptState = CyEnterCriticalSection();
 748              		.loc 1 592 0
 749 0002 FFF7FEFF 		bl	CyEnterCriticalSection
ARM GAS  C:\Users\MATEUS~1\AppData\Local\Temp\ccYkUC78.s 			page 25


 750              	.LVL81:
 593:Generated_Source\PSoC5/CySpc.c **** 
 594:Generated_Source\PSoC5/CySpc.c ****     if(CY_SPC_UNLOCKED == SpcLockState)
 751              		.loc 1 594 0
 752 0006 0F4B     		ldr	r3, .L75
 753 0008 1B78     		ldrb	r3, [r3]	@ zero_extendqisi2
 754 000a A3B9     		cbnz	r3, .L72
 595:Generated_Source\PSoC5/CySpc.c ****     {
 596:Generated_Source\PSoC5/CySpc.c ****         SpcLockState = CY_SPC_LOCKED;
 755              		.loc 1 596 0
 756 000c 0122     		movs	r2, #1
 757 000e 0D4B     		ldr	r3, .L75
 758 0010 1A70     		strb	r2, [r3]
 759              	.LVL82:
 597:Generated_Source\PSoC5/CySpc.c ****         status = CYRET_SUCCESS;
 598:Generated_Source\PSoC5/CySpc.c **** 
 599:Generated_Source\PSoC5/CySpc.c ****         #if(CY_PSOC5)
 600:Generated_Source\PSoC5/CySpc.c **** 
 601:Generated_Source\PSoC5/CySpc.c ****             if(0u != (CY_SPC_CPU_WAITPIPE_REG & CY_SPC_CPU_WAITPIPE_BYPASS))
 760              		.loc 1 601 0
 761 0012 0D4B     		ldr	r3, .L75+4
 762 0014 1B68     		ldr	r3, [r3]
 763 0016 13F0010F 		tst	r3, #1
 764 001a 0ED0     		beq	.L73
 602:Generated_Source\PSoC5/CySpc.c ****             {
 603:Generated_Source\PSoC5/CySpc.c ****                 /* Enable pipeline registers */
 604:Generated_Source\PSoC5/CySpc.c ****                 CY_SPC_CPU_WAITPIPE_REG &= ((uint32)(~CY_SPC_CPU_WAITPIPE_BYPASS));
 765              		.loc 1 604 0
 766 001c 0A4A     		ldr	r2, .L75+4
 767 001e 1368     		ldr	r3, [r2]
 768 0020 23F00103 		bic	r3, r3, #1
 769 0024 1360     		str	r3, [r2]
 605:Generated_Source\PSoC5/CySpc.c **** 
 606:Generated_Source\PSoC5/CySpc.c ****                 /* At least 2 NOP instructions are recommended */
 607:Generated_Source\PSoC5/CySpc.c ****                 CY_NOP;
 770              		.loc 1 607 0
 771              		.syntax unified
 772              	@ 607 "Generated_Source\PSoC5\CySpc.c" 1
 773 0026 00BF     		NOP
 774              	
 775              	@ 0 "" 2
 608:Generated_Source\PSoC5/CySpc.c ****                 CY_NOP;
 776              		.loc 1 608 0
 777              	@ 608 "Generated_Source\PSoC5\CySpc.c" 1
 778 0028 00BF     		NOP
 779              	
 780              	@ 0 "" 2
 609:Generated_Source\PSoC5/CySpc.c ****                 CY_NOP;
 781              		.loc 1 609 0
 782              	@ 609 "Generated_Source\PSoC5\CySpc.c" 1
 783 002a 00BF     		NOP
 784              	
 785              	@ 0 "" 2
 610:Generated_Source\PSoC5/CySpc.c **** 
 611:Generated_Source\PSoC5/CySpc.c ****                 spcWaitPipeBypass = CY_SPC_CPU_WAITPIPE_BYPASS;
 786              		.loc 1 611 0
 787              		.thumb
ARM GAS  C:\Users\MATEUS~1\AppData\Local\Temp\ccYkUC78.s 			page 26


 788              		.syntax unified
 789 002c 0122     		movs	r2, #1
 790 002e 054B     		ldr	r3, .L75
 791 0030 5A60     		str	r2, [r3, #4]
 597:Generated_Source\PSoC5/CySpc.c **** 
 792              		.loc 1 597 0
 793 0032 0024     		movs	r4, #0
 794 0034 02E0     		b	.L71
 795              	.LVL83:
 796              	.L72:
 588:Generated_Source\PSoC5/CySpc.c ****     uint8 interruptState;
 797              		.loc 1 588 0
 798 0036 0424     		movs	r4, #4
 799 0038 00E0     		b	.L71
 800              	.LVL84:
 801              	.L73:
 597:Generated_Source\PSoC5/CySpc.c **** 
 802              		.loc 1 597 0
 803 003a 0024     		movs	r4, #0
 804              	.LVL85:
 805              	.L71:
 612:Generated_Source\PSoC5/CySpc.c ****             }
 613:Generated_Source\PSoC5/CySpc.c **** 
 614:Generated_Source\PSoC5/CySpc.c ****         #endif  /* (CY_PSOC5) */
 615:Generated_Source\PSoC5/CySpc.c ****     }
 616:Generated_Source\PSoC5/CySpc.c **** 
 617:Generated_Source\PSoC5/CySpc.c ****     /* Exit critical section */
 618:Generated_Source\PSoC5/CySpc.c ****     CyExitCriticalSection(interruptState);
 806              		.loc 1 618 0
 807 003c FFF7FEFF 		bl	CyExitCriticalSection
 808              	.LVL86:
 619:Generated_Source\PSoC5/CySpc.c **** 
 620:Generated_Source\PSoC5/CySpc.c ****     return(status);
 621:Generated_Source\PSoC5/CySpc.c **** }
 809              		.loc 1 621 0
 810 0040 2046     		mov	r0, r4
 811 0042 10BD     		pop	{r4, pc}
 812              	.LVL87:
 813              	.L76:
 814              		.align	2
 815              	.L75:
 816 0044 00000000 		.word	.LANCHOR0
 817 0048 04000840 		.word	1074266116
 818              		.cfi_endproc
 819              	.LFE9:
 820              		.size	CySpcLock, .-CySpcLock
 821              		.section	.text.CySpcUnlock,"ax",%progbits
 822              		.align	2
 823              		.global	CySpcUnlock
 824              		.thumb
 825              		.thumb_func
 826              		.type	CySpcUnlock, %function
 827              	CySpcUnlock:
 828              	.LFB10:
 622:Generated_Source\PSoC5/CySpc.c **** 
 623:Generated_Source\PSoC5/CySpc.c **** 
 624:Generated_Source\PSoC5/CySpc.c **** /*******************************************************************************
ARM GAS  C:\Users\MATEUS~1\AppData\Local\Temp\ccYkUC78.s 			page 27


 625:Generated_Source\PSoC5/CySpc.c **** * Function Name: CySpcUnlock
 626:Generated_Source\PSoC5/CySpc.c **** ****************************************************************************//**
 627:Generated_Source\PSoC5/CySpc.c **** *  Unlocks the SPC so it can be used by someone else:
 628:Generated_Source\PSoC5/CySpc.c **** *   - Restores wait-pipeline enable state (PSoC5)
 629:Generated_Source\PSoC5/CySpc.c **** *
 630:Generated_Source\PSoC5/CySpc.c **** *******************************************************************************/
 631:Generated_Source\PSoC5/CySpc.c **** void CySpcUnlock(void)
 632:Generated_Source\PSoC5/CySpc.c **** {
 829              		.loc 1 632 0
 830              		.cfi_startproc
 831              		@ args = 0, pretend = 0, frame = 0
 832              		@ frame_needed = 0, uses_anonymous_args = 0
 833 0000 08B5     		push	{r3, lr}
 834              		.cfi_def_cfa_offset 8
 835              		.cfi_offset 3, -8
 836              		.cfi_offset 14, -4
 633:Generated_Source\PSoC5/CySpc.c ****     uint8 interruptState;
 634:Generated_Source\PSoC5/CySpc.c **** 
 635:Generated_Source\PSoC5/CySpc.c ****     /* Enter critical section */
 636:Generated_Source\PSoC5/CySpc.c ****     interruptState = CyEnterCriticalSection();
 837              		.loc 1 636 0
 838 0002 FFF7FEFF 		bl	CyEnterCriticalSection
 839              	.LVL88:
 637:Generated_Source\PSoC5/CySpc.c **** 
 638:Generated_Source\PSoC5/CySpc.c ****     /* Release the SPC object */
 639:Generated_Source\PSoC5/CySpc.c ****     SpcLockState = CY_SPC_UNLOCKED;
 840              		.loc 1 639 0
 841 0006 0A4B     		ldr	r3, .L80
 842 0008 0022     		movs	r2, #0
 843 000a 1A70     		strb	r2, [r3]
 640:Generated_Source\PSoC5/CySpc.c **** 
 641:Generated_Source\PSoC5/CySpc.c ****     #if(CY_PSOC5)
 642:Generated_Source\PSoC5/CySpc.c **** 
 643:Generated_Source\PSoC5/CySpc.c ****         if(CY_SPC_CPU_WAITPIPE_BYPASS == spcWaitPipeBypass)
 844              		.loc 1 643 0
 845 000c 5B68     		ldr	r3, [r3, #4]
 846 000e 012B     		cmp	r3, #1
 847 0010 0AD1     		bne	.L78
 644:Generated_Source\PSoC5/CySpc.c ****         {
 645:Generated_Source\PSoC5/CySpc.c ****             /* Force to bypass pipeline registers */
 646:Generated_Source\PSoC5/CySpc.c ****             CY_SPC_CPU_WAITPIPE_REG |= CY_SPC_CPU_WAITPIPE_BYPASS;
 848              		.loc 1 646 0
 849 0012 084A     		ldr	r2, .L80+4
 850 0014 1368     		ldr	r3, [r2]
 851 0016 43F00103 		orr	r3, r3, #1
 852 001a 1360     		str	r3, [r2]
 647:Generated_Source\PSoC5/CySpc.c **** 
 648:Generated_Source\PSoC5/CySpc.c ****             /* At least 2 NOP instructions are recommended */
 649:Generated_Source\PSoC5/CySpc.c ****             CY_NOP;
 853              		.loc 1 649 0
 854              		.syntax unified
 855              	@ 649 "Generated_Source\PSoC5\CySpc.c" 1
 856 001c 00BF     		NOP
 857              	
 858              	@ 0 "" 2
 650:Generated_Source\PSoC5/CySpc.c ****             CY_NOP;
 859              		.loc 1 650 0
ARM GAS  C:\Users\MATEUS~1\AppData\Local\Temp\ccYkUC78.s 			page 28


 860              	@ 650 "Generated_Source\PSoC5\CySpc.c" 1
 861 001e 00BF     		NOP
 862              	
 863              	@ 0 "" 2
 651:Generated_Source\PSoC5/CySpc.c ****             CY_NOP;
 864              		.loc 1 651 0
 865              	@ 651 "Generated_Source\PSoC5\CySpc.c" 1
 866 0020 00BF     		NOP
 867              	
 868              	@ 0 "" 2
 652:Generated_Source\PSoC5/CySpc.c **** 
 653:Generated_Source\PSoC5/CySpc.c ****             spcWaitPipeBypass = 0u;
 869              		.loc 1 653 0
 870              		.thumb
 871              		.syntax unified
 872 0022 0022     		movs	r2, #0
 873 0024 024B     		ldr	r3, .L80
 874 0026 5A60     		str	r2, [r3, #4]
 875              	.L78:
 654:Generated_Source\PSoC5/CySpc.c ****         }
 655:Generated_Source\PSoC5/CySpc.c **** 
 656:Generated_Source\PSoC5/CySpc.c ****     #endif  /* (CY_PSOC5) */
 657:Generated_Source\PSoC5/CySpc.c **** 
 658:Generated_Source\PSoC5/CySpc.c ****     /* Exit critical section */
 659:Generated_Source\PSoC5/CySpc.c ****     CyExitCriticalSection(interruptState);
 876              		.loc 1 659 0
 877 0028 FFF7FEFF 		bl	CyExitCriticalSection
 878              	.LVL89:
 879 002c 08BD     		pop	{r3, pc}
 880              	.L81:
 881 002e 00BF     		.align	2
 882              	.L80:
 883 0030 00000000 		.word	.LANCHOR0
 884 0034 04000840 		.word	1074266116
 885              		.cfi_endproc
 886              	.LFE10:
 887              		.size	CySpcUnlock, .-CySpcUnlock
 888              		.section	.text.CySpcGetAlgorithm,"ax",%progbits
 889              		.align	2
 890              		.global	CySpcGetAlgorithm
 891              		.thumb
 892              		.thumb_func
 893              		.type	CySpcGetAlgorithm, %function
 894              	CySpcGetAlgorithm:
 895              	.LFB11:
 660:Generated_Source\PSoC5/CySpc.c **** }
 661:Generated_Source\PSoC5/CySpc.c **** 
 662:Generated_Source\PSoC5/CySpc.c **** 
 663:Generated_Source\PSoC5/CySpc.c **** /*******************************************************************************
 664:Generated_Source\PSoC5/CySpc.c **** * Function Name: CySpcGetAlgorithm
 665:Generated_Source\PSoC5/CySpc.c **** ****************************************************************************//**
 666:Generated_Source\PSoC5/CySpc.c **** *  Downloads SPC algorithm from SPC SROM into SRAM.
 667:Generated_Source\PSoC5/CySpc.c **** *
 668:Generated_Source\PSoC5/CySpc.c **** * \return
 669:Generated_Source\PSoC5/CySpc.c **** *  CYRET_STARTED
 670:Generated_Source\PSoC5/CySpc.c **** *  CYRET_LOCKED
 671:Generated_Source\PSoC5/CySpc.c **** *
ARM GAS  C:\Users\MATEUS~1\AppData\Local\Temp\ccYkUC78.s 			page 29


 672:Generated_Source\PSoC5/CySpc.c **** *******************************************************************************/
 673:Generated_Source\PSoC5/CySpc.c **** cystatus CySpcGetAlgorithm(void)
 674:Generated_Source\PSoC5/CySpc.c **** {
 896              		.loc 1 674 0
 897              		.cfi_startproc
 898              		@ args = 0, pretend = 0, frame = 0
 899              		@ frame_needed = 0, uses_anonymous_args = 0
 900              		@ link register save eliminated.
 901              	.LVL90:
 675:Generated_Source\PSoC5/CySpc.c ****     cystatus status = CYRET_STARTED;
 676:Generated_Source\PSoC5/CySpc.c **** 
 677:Generated_Source\PSoC5/CySpc.c ****     /* Make sure the SPC is ready to accept command */
 678:Generated_Source\PSoC5/CySpc.c ****     if(CY_SPC_IDLE)
 902              		.loc 1 678 0
 903 0000 074B     		ldr	r3, .L85
 904 0002 1B78     		ldrb	r3, [r3]	@ zero_extendqisi2
 905 0004 13F0020F 		tst	r3, #2
 906 0008 08D0     		beq	.L84
 679:Generated_Source\PSoC5/CySpc.c ****     {
 680:Generated_Source\PSoC5/CySpc.c ****         CY_SPC_CPU_DATA_REG = CY_SPC_KEY_ONE;
 907              		.loc 1 680 0
 908 000a 064B     		ldr	r3, .L85+4
 909 000c B622     		movs	r2, #182
 910 000e 1A70     		strb	r2, [r3]
 681:Generated_Source\PSoC5/CySpc.c ****         CY_SPC_CPU_DATA_REG = CY_SPC_KEY_TWO(CY_SPC_CMD_DWNLD_ALGORITHM);
 911              		.loc 1 681 0
 912 0010 E022     		movs	r2, #224
 913 0012 1A70     		strb	r2, [r3]
 682:Generated_Source\PSoC5/CySpc.c ****         CY_SPC_CPU_DATA_REG = CY_SPC_CMD_DWNLD_ALGORITHM;
 914              		.loc 1 682 0
 915 0014 0D22     		movs	r2, #13
 916 0016 1A70     		strb	r2, [r3]
 675:Generated_Source\PSoC5/CySpc.c **** 
 917              		.loc 1 675 0
 918 0018 0720     		movs	r0, #7
 919 001a 7047     		bx	lr
 920              	.L84:
 683:Generated_Source\PSoC5/CySpc.c ****     }
 684:Generated_Source\PSoC5/CySpc.c ****     else
 685:Generated_Source\PSoC5/CySpc.c ****     {
 686:Generated_Source\PSoC5/CySpc.c ****         status = CYRET_LOCKED;
 921              		.loc 1 686 0
 922 001c 0420     		movs	r0, #4
 923              	.LVL91:
 687:Generated_Source\PSoC5/CySpc.c ****     }
 688:Generated_Source\PSoC5/CySpc.c **** 
 689:Generated_Source\PSoC5/CySpc.c ****     return(status);
 690:Generated_Source\PSoC5/CySpc.c **** }
 924              		.loc 1 690 0
 925 001e 7047     		bx	lr
 926              	.L86:
 927              		.align	2
 928              	.L85:
 929 0020 22470040 		.word	1073760034
 930 0024 20470040 		.word	1073760032
 931              		.cfi_endproc
 932              	.LFE11:
ARM GAS  C:\Users\MATEUS~1\AppData\Local\Temp\ccYkUC78.s 			page 30


 933              		.size	CySpcGetAlgorithm, .-CySpcGetAlgorithm
 934              		.global	SpcLockState
 935              		.bss
 936              		.align	2
 937              		.set	.LANCHOR0,. + 0
 938              		.type	SpcLockState, %object
 939              		.size	SpcLockState, 1
 940              	SpcLockState:
 941 0000 00       		.space	1
 942 0001 000000   		.space	3
 943              		.type	spcWaitPipeBypass, %object
 944              		.size	spcWaitPipeBypass, 4
 945              	spcWaitPipeBypass:
 946 0004 00000000 		.space	4
 947              		.text
 948              	.Letext0:
 949              		.file 2 "Generated_Source\\PSoC5\\cytypes.h"
 950              		.file 3 "Generated_Source\\PSoC5\\CyLib.h"
