ARM GAS  C:\Users\MATEUS~1\AppData\Local\Temp\cc8IRglA.s 			page 1


   1              		.syntax unified
   2              		.cpu cortex-m3
   3              		.fpu softvfp
   4              		.eabi_attribute 20, 1
   5              		.eabi_attribute 21, 1
   6              		.eabi_attribute 23, 3
   7              		.eabi_attribute 24, 1
   8              		.eabi_attribute 25, 1
   9              		.eabi_attribute 26, 1
  10              		.eabi_attribute 30, 1
  11              		.eabi_attribute 34, 1
  12              		.eabi_attribute 18, 4
  13              		.thumb
  14              		.syntax unified
  15              		.file	"LCD_Char_1_LCDPort.c"
  16              		.text
  17              	.Ltext0:
  18              		.cfi_sections	.debug_frame
  19              		.section	.text.LCD_Char_1_LCDPort_Write,"ax",%progbits
  20              		.align	2
  21              		.global	LCD_Char_1_LCDPort_Write
  22              		.thumb
  23              		.thumb_func
  24              		.type	LCD_Char_1_LCDPort_Write, %function
  25              	LCD_Char_1_LCDPort_Write:
  26              	.LFB0:
  27              		.file 1 "Generated_Source\\PSoC5\\LCD_Char_1_LCDPort.c"
   1:Generated_Source\PSoC5/LCD_Char_1_LCDPort.c **** /*******************************************************************************
   2:Generated_Source\PSoC5/LCD_Char_1_LCDPort.c **** * File Name: LCD_Char_1_LCDPort.c  
   3:Generated_Source\PSoC5/LCD_Char_1_LCDPort.c **** * Version 2.20
   4:Generated_Source\PSoC5/LCD_Char_1_LCDPort.c **** *
   5:Generated_Source\PSoC5/LCD_Char_1_LCDPort.c **** * Description:
   6:Generated_Source\PSoC5/LCD_Char_1_LCDPort.c **** *  This file contains API to enable firmware control of a Pins component.
   7:Generated_Source\PSoC5/LCD_Char_1_LCDPort.c **** *
   8:Generated_Source\PSoC5/LCD_Char_1_LCDPort.c **** * Note:
   9:Generated_Source\PSoC5/LCD_Char_1_LCDPort.c **** *
  10:Generated_Source\PSoC5/LCD_Char_1_LCDPort.c **** ********************************************************************************
  11:Generated_Source\PSoC5/LCD_Char_1_LCDPort.c **** * Copyright 2008-2015, Cypress Semiconductor Corporation.  All rights reserved.
  12:Generated_Source\PSoC5/LCD_Char_1_LCDPort.c **** * You may use this file only in accordance with the license, terms, conditions, 
  13:Generated_Source\PSoC5/LCD_Char_1_LCDPort.c **** * disclaimers, and limitations in the end user license agreement accompanying 
  14:Generated_Source\PSoC5/LCD_Char_1_LCDPort.c **** * the software package with which this file was provided.
  15:Generated_Source\PSoC5/LCD_Char_1_LCDPort.c **** *******************************************************************************/
  16:Generated_Source\PSoC5/LCD_Char_1_LCDPort.c **** 
  17:Generated_Source\PSoC5/LCD_Char_1_LCDPort.c **** #include "cytypes.h"
  18:Generated_Source\PSoC5/LCD_Char_1_LCDPort.c **** #include "LCD_Char_1_LCDPort.h"
  19:Generated_Source\PSoC5/LCD_Char_1_LCDPort.c **** 
  20:Generated_Source\PSoC5/LCD_Char_1_LCDPort.c **** /* APIs are not generated for P15[7:6] on PSoC 5 */
  21:Generated_Source\PSoC5/LCD_Char_1_LCDPort.c **** #if !(CY_PSOC5A &&\
  22:Generated_Source\PSoC5/LCD_Char_1_LCDPort.c **** 	 LCD_Char_1_LCDPort__PORT == 15 && ((LCD_Char_1_LCDPort__MASK & 0xC0) != 0))
  23:Generated_Source\PSoC5/LCD_Char_1_LCDPort.c **** 
  24:Generated_Source\PSoC5/LCD_Char_1_LCDPort.c **** 
  25:Generated_Source\PSoC5/LCD_Char_1_LCDPort.c **** /*******************************************************************************
  26:Generated_Source\PSoC5/LCD_Char_1_LCDPort.c **** * Function Name: LCD_Char_1_LCDPort_Write
  27:Generated_Source\PSoC5/LCD_Char_1_LCDPort.c **** ****************************************************************************//**
  28:Generated_Source\PSoC5/LCD_Char_1_LCDPort.c **** *
  29:Generated_Source\PSoC5/LCD_Char_1_LCDPort.c **** * \brief Writes the value to the physical port (data output register), masking
  30:Generated_Source\PSoC5/LCD_Char_1_LCDPort.c **** *  and shifting the bits appropriately. 
ARM GAS  C:\Users\MATEUS~1\AppData\Local\Temp\cc8IRglA.s 			page 2


  31:Generated_Source\PSoC5/LCD_Char_1_LCDPort.c **** *
  32:Generated_Source\PSoC5/LCD_Char_1_LCDPort.c **** * The data output register controls the signal applied to the physical pin in 
  33:Generated_Source\PSoC5/LCD_Char_1_LCDPort.c **** * conjunction with the drive mode parameter. This function avoids changing 
  34:Generated_Source\PSoC5/LCD_Char_1_LCDPort.c **** * other bits in the port by using the appropriate method (read-modify-write or
  35:Generated_Source\PSoC5/LCD_Char_1_LCDPort.c **** * bit banding).
  36:Generated_Source\PSoC5/LCD_Char_1_LCDPort.c **** *
  37:Generated_Source\PSoC5/LCD_Char_1_LCDPort.c **** * <b>Note</b> This function should not be used on a hardware digital output pin 
  38:Generated_Source\PSoC5/LCD_Char_1_LCDPort.c **** * as it is driven by the hardware signal attached to it.
  39:Generated_Source\PSoC5/LCD_Char_1_LCDPort.c **** *
  40:Generated_Source\PSoC5/LCD_Char_1_LCDPort.c **** * \param value
  41:Generated_Source\PSoC5/LCD_Char_1_LCDPort.c **** *  Value to write to the component instance.
  42:Generated_Source\PSoC5/LCD_Char_1_LCDPort.c **** *
  43:Generated_Source\PSoC5/LCD_Char_1_LCDPort.c **** * \return 
  44:Generated_Source\PSoC5/LCD_Char_1_LCDPort.c **** *  None 
  45:Generated_Source\PSoC5/LCD_Char_1_LCDPort.c **** *
  46:Generated_Source\PSoC5/LCD_Char_1_LCDPort.c **** * \sideeffect
  47:Generated_Source\PSoC5/LCD_Char_1_LCDPort.c **** *  If you use read-modify-write operations that are not atomic; the Interrupt 
  48:Generated_Source\PSoC5/LCD_Char_1_LCDPort.c **** *  Service Routines (ISR) can cause corruption of this function. An ISR that 
  49:Generated_Source\PSoC5/LCD_Char_1_LCDPort.c **** *  interrupts this function and performs writes to the Pins component data 
  50:Generated_Source\PSoC5/LCD_Char_1_LCDPort.c **** *  register can cause corrupted port data. To avoid this issue, you should 
  51:Generated_Source\PSoC5/LCD_Char_1_LCDPort.c **** *  either use the Per-Pin APIs (primary method) or disable interrupts around 
  52:Generated_Source\PSoC5/LCD_Char_1_LCDPort.c **** *  this function.
  53:Generated_Source\PSoC5/LCD_Char_1_LCDPort.c **** *
  54:Generated_Source\PSoC5/LCD_Char_1_LCDPort.c **** * \funcusage
  55:Generated_Source\PSoC5/LCD_Char_1_LCDPort.c **** *  \snippet LCD_Char_1_LCDPort_SUT.c usage_LCD_Char_1_LCDPort_Write
  56:Generated_Source\PSoC5/LCD_Char_1_LCDPort.c **** *******************************************************************************/
  57:Generated_Source\PSoC5/LCD_Char_1_LCDPort.c **** void LCD_Char_1_LCDPort_Write(uint8 value)
  58:Generated_Source\PSoC5/LCD_Char_1_LCDPort.c **** {
  28              		.loc 1 58 0
  29              		.cfi_startproc
  30              		@ args = 0, pretend = 0, frame = 0
  31              		@ frame_needed = 0, uses_anonymous_args = 0
  32              		@ link register save eliminated.
  33              	.LVL0:
  59:Generated_Source\PSoC5/LCD_Char_1_LCDPort.c ****     uint8 staticBits = (LCD_Char_1_LCDPort_DR & (uint8)(~LCD_Char_1_LCDPort_MASK));
  34              		.loc 1 59 0
  35 0000 044A     		ldr	r2, .L2
  36 0002 1378     		ldrb	r3, [r2]	@ zero_extendqisi2
  37 0004 03F08003 		and	r3, r3, #128
  38              	.LVL1:
  60:Generated_Source\PSoC5/LCD_Char_1_LCDPort.c ****     LCD_Char_1_LCDPort_DR = staticBits | ((uint8)(value << LCD_Char_1_LCDPort_SHIFT) & LCD_Char_1_L
  39              		.loc 1 60 0
  40 0008 00F07F00 		and	r0, r0, #127
  41              	.LVL2:
  42 000c 1843     		orrs	r0, r0, r3
  43 000e 1070     		strb	r0, [r2]
  44 0010 7047     		bx	lr
  45              	.L3:
  46 0012 00BF     		.align	2
  47              	.L2:
  48 0014 20510040 		.word	1073762592
  49              		.cfi_endproc
  50              	.LFE0:
  51              		.size	LCD_Char_1_LCDPort_Write, .-LCD_Char_1_LCDPort_Write
  52              		.section	.text.LCD_Char_1_LCDPort_SetDriveMode,"ax",%progbits
  53              		.align	2
  54              		.global	LCD_Char_1_LCDPort_SetDriveMode
ARM GAS  C:\Users\MATEUS~1\AppData\Local\Temp\cc8IRglA.s 			page 3


  55              		.thumb
  56              		.thumb_func
  57              		.type	LCD_Char_1_LCDPort_SetDriveMode, %function
  58              	LCD_Char_1_LCDPort_SetDriveMode:
  59              	.LFB1:
  61:Generated_Source\PSoC5/LCD_Char_1_LCDPort.c **** }
  62:Generated_Source\PSoC5/LCD_Char_1_LCDPort.c **** 
  63:Generated_Source\PSoC5/LCD_Char_1_LCDPort.c **** 
  64:Generated_Source\PSoC5/LCD_Char_1_LCDPort.c **** /*******************************************************************************
  65:Generated_Source\PSoC5/LCD_Char_1_LCDPort.c **** * Function Name: LCD_Char_1_LCDPort_SetDriveMode
  66:Generated_Source\PSoC5/LCD_Char_1_LCDPort.c **** ****************************************************************************//**
  67:Generated_Source\PSoC5/LCD_Char_1_LCDPort.c **** *
  68:Generated_Source\PSoC5/LCD_Char_1_LCDPort.c **** * \brief Sets the drive mode for each of the Pins component's pins.
  69:Generated_Source\PSoC5/LCD_Char_1_LCDPort.c **** * 
  70:Generated_Source\PSoC5/LCD_Char_1_LCDPort.c **** * <b>Note</b> This affects all pins in the Pins component instance. Use the
  71:Generated_Source\PSoC5/LCD_Char_1_LCDPort.c **** * Per-Pin APIs if you wish to control individual pin's drive modes.
  72:Generated_Source\PSoC5/LCD_Char_1_LCDPort.c **** *
  73:Generated_Source\PSoC5/LCD_Char_1_LCDPort.c **** * \param mode
  74:Generated_Source\PSoC5/LCD_Char_1_LCDPort.c **** *  Mode for the selected signals. Valid options are documented in 
  75:Generated_Source\PSoC5/LCD_Char_1_LCDPort.c **** *  \ref driveMode.
  76:Generated_Source\PSoC5/LCD_Char_1_LCDPort.c **** *
  77:Generated_Source\PSoC5/LCD_Char_1_LCDPort.c **** * \return
  78:Generated_Source\PSoC5/LCD_Char_1_LCDPort.c **** *  None
  79:Generated_Source\PSoC5/LCD_Char_1_LCDPort.c **** *
  80:Generated_Source\PSoC5/LCD_Char_1_LCDPort.c **** * \sideeffect
  81:Generated_Source\PSoC5/LCD_Char_1_LCDPort.c **** *  If you use read-modify-write operations that are not atomic, the ISR can
  82:Generated_Source\PSoC5/LCD_Char_1_LCDPort.c **** *  cause corruption of this function. An ISR that interrupts this function 
  83:Generated_Source\PSoC5/LCD_Char_1_LCDPort.c **** *  and performs writes to the Pins component Drive Mode registers can cause 
  84:Generated_Source\PSoC5/LCD_Char_1_LCDPort.c **** *  corrupted port data. To avoid this issue, you should either use the Per-Pin
  85:Generated_Source\PSoC5/LCD_Char_1_LCDPort.c **** *  APIs (primary method) or disable interrupts around this function.
  86:Generated_Source\PSoC5/LCD_Char_1_LCDPort.c **** *
  87:Generated_Source\PSoC5/LCD_Char_1_LCDPort.c **** * \funcusage
  88:Generated_Source\PSoC5/LCD_Char_1_LCDPort.c **** *  \snippet LCD_Char_1_LCDPort_SUT.c usage_LCD_Char_1_LCDPort_SetDriveMode
  89:Generated_Source\PSoC5/LCD_Char_1_LCDPort.c **** *******************************************************************************/
  90:Generated_Source\PSoC5/LCD_Char_1_LCDPort.c **** void LCD_Char_1_LCDPort_SetDriveMode(uint8 mode)
  91:Generated_Source\PSoC5/LCD_Char_1_LCDPort.c **** {
  60              		.loc 1 91 0
  61              		.cfi_startproc
  62              		@ args = 0, pretend = 0, frame = 0
  63              		@ frame_needed = 0, uses_anonymous_args = 0
  64              		@ link register save eliminated.
  65              	.LVL3:
  92:Generated_Source\PSoC5/LCD_Char_1_LCDPort.c **** 	CyPins_SetPinDriveMode(LCD_Char_1_LCDPort_0, mode);
  66              		.loc 1 92 0
  67 0000 164A     		ldr	r2, .L5
  68 0002 1378     		ldrb	r3, [r2]	@ zero_extendqisi2
  69 0004 00F00E00 		and	r0, r0, #14
  70              	.LVL4:
  71 0008 03F0F103 		and	r3, r3, #241
  72 000c 0343     		orrs	r3, r3, r0
  73 000e 1370     		strb	r3, [r2]
  93:Generated_Source\PSoC5/LCD_Char_1_LCDPort.c **** 	CyPins_SetPinDriveMode(LCD_Char_1_LCDPort_1, mode);
  74              		.loc 1 93 0
  75 0010 0132     		adds	r2, r2, #1
  76 0012 1378     		ldrb	r3, [r2]	@ zero_extendqisi2
  77 0014 03F0F103 		and	r3, r3, #241
  78 0018 0343     		orrs	r3, r3, r0
ARM GAS  C:\Users\MATEUS~1\AppData\Local\Temp\cc8IRglA.s 			page 4


  79 001a 1370     		strb	r3, [r2]
  94:Generated_Source\PSoC5/LCD_Char_1_LCDPort.c **** 	CyPins_SetPinDriveMode(LCD_Char_1_LCDPort_2, mode);
  80              		.loc 1 94 0
  81 001c 0132     		adds	r2, r2, #1
  82 001e 1378     		ldrb	r3, [r2]	@ zero_extendqisi2
  83 0020 03F0F103 		and	r3, r3, #241
  84 0024 0343     		orrs	r3, r3, r0
  85 0026 1370     		strb	r3, [r2]
  95:Generated_Source\PSoC5/LCD_Char_1_LCDPort.c **** 	CyPins_SetPinDriveMode(LCD_Char_1_LCDPort_3, mode);
  86              		.loc 1 95 0
  87 0028 0132     		adds	r2, r2, #1
  88 002a 1378     		ldrb	r3, [r2]	@ zero_extendqisi2
  89 002c 03F0F103 		and	r3, r3, #241
  90 0030 0343     		orrs	r3, r3, r0
  91 0032 1370     		strb	r3, [r2]
  96:Generated_Source\PSoC5/LCD_Char_1_LCDPort.c **** 	CyPins_SetPinDriveMode(LCD_Char_1_LCDPort_4, mode);
  92              		.loc 1 96 0
  93 0034 0132     		adds	r2, r2, #1
  94 0036 1378     		ldrb	r3, [r2]	@ zero_extendqisi2
  95 0038 03F0F103 		and	r3, r3, #241
  96 003c 0343     		orrs	r3, r3, r0
  97 003e 1370     		strb	r3, [r2]
  97:Generated_Source\PSoC5/LCD_Char_1_LCDPort.c **** 	CyPins_SetPinDriveMode(LCD_Char_1_LCDPort_5, mode);
  98              		.loc 1 97 0
  99 0040 0132     		adds	r2, r2, #1
 100 0042 1378     		ldrb	r3, [r2]	@ zero_extendqisi2
 101 0044 03F0F103 		and	r3, r3, #241
 102 0048 0343     		orrs	r3, r3, r0
 103 004a 1370     		strb	r3, [r2]
  98:Generated_Source\PSoC5/LCD_Char_1_LCDPort.c **** 	CyPins_SetPinDriveMode(LCD_Char_1_LCDPort_6, mode);
 104              		.loc 1 98 0
 105 004c 0132     		adds	r2, r2, #1
 106 004e 1378     		ldrb	r3, [r2]	@ zero_extendqisi2
 107 0050 03F0F103 		and	r3, r3, #241
 108 0054 1843     		orrs	r0, r0, r3
 109 0056 1070     		strb	r0, [r2]
 110 0058 7047     		bx	lr
 111              	.L6:
 112 005a 00BF     		.align	2
 113              	.L5:
 114 005c 10500040 		.word	1073762320
 115              		.cfi_endproc
 116              	.LFE1:
 117              		.size	LCD_Char_1_LCDPort_SetDriveMode, .-LCD_Char_1_LCDPort_SetDriveMode
 118              		.section	.text.LCD_Char_1_LCDPort_Read,"ax",%progbits
 119              		.align	2
 120              		.global	LCD_Char_1_LCDPort_Read
 121              		.thumb
 122              		.thumb_func
 123              		.type	LCD_Char_1_LCDPort_Read, %function
 124              	LCD_Char_1_LCDPort_Read:
 125              	.LFB2:
  99:Generated_Source\PSoC5/LCD_Char_1_LCDPort.c **** }
 100:Generated_Source\PSoC5/LCD_Char_1_LCDPort.c **** 
 101:Generated_Source\PSoC5/LCD_Char_1_LCDPort.c **** 
 102:Generated_Source\PSoC5/LCD_Char_1_LCDPort.c **** /*******************************************************************************
 103:Generated_Source\PSoC5/LCD_Char_1_LCDPort.c **** * Function Name: LCD_Char_1_LCDPort_Read
ARM GAS  C:\Users\MATEUS~1\AppData\Local\Temp\cc8IRglA.s 			page 5


 104:Generated_Source\PSoC5/LCD_Char_1_LCDPort.c **** ****************************************************************************//**
 105:Generated_Source\PSoC5/LCD_Char_1_LCDPort.c **** *
 106:Generated_Source\PSoC5/LCD_Char_1_LCDPort.c **** * \brief Reads the associated physical port (pin status register) and masks 
 107:Generated_Source\PSoC5/LCD_Char_1_LCDPort.c **** *  the required bits according to the width and bit position of the component
 108:Generated_Source\PSoC5/LCD_Char_1_LCDPort.c **** *  instance. 
 109:Generated_Source\PSoC5/LCD_Char_1_LCDPort.c **** *
 110:Generated_Source\PSoC5/LCD_Char_1_LCDPort.c **** * The pin's status register returns the current logic level present on the 
 111:Generated_Source\PSoC5/LCD_Char_1_LCDPort.c **** * physical pin.
 112:Generated_Source\PSoC5/LCD_Char_1_LCDPort.c **** *
 113:Generated_Source\PSoC5/LCD_Char_1_LCDPort.c **** * \return 
 114:Generated_Source\PSoC5/LCD_Char_1_LCDPort.c **** *  The current value for the pins in the component as a right justified number.
 115:Generated_Source\PSoC5/LCD_Char_1_LCDPort.c **** *
 116:Generated_Source\PSoC5/LCD_Char_1_LCDPort.c **** * \funcusage
 117:Generated_Source\PSoC5/LCD_Char_1_LCDPort.c **** *  \snippet LCD_Char_1_LCDPort_SUT.c usage_LCD_Char_1_LCDPort_Read  
 118:Generated_Source\PSoC5/LCD_Char_1_LCDPort.c **** *******************************************************************************/
 119:Generated_Source\PSoC5/LCD_Char_1_LCDPort.c **** uint8 LCD_Char_1_LCDPort_Read(void)
 120:Generated_Source\PSoC5/LCD_Char_1_LCDPort.c **** {
 126              		.loc 1 120 0
 127              		.cfi_startproc
 128              		@ args = 0, pretend = 0, frame = 0
 129              		@ frame_needed = 0, uses_anonymous_args = 0
 130              		@ link register save eliminated.
 121:Generated_Source\PSoC5/LCD_Char_1_LCDPort.c ****     return (LCD_Char_1_LCDPort_PS & LCD_Char_1_LCDPort_MASK) >> LCD_Char_1_LCDPort_SHIFT;
 131              		.loc 1 121 0
 132 0000 024B     		ldr	r3, .L8
 133 0002 1878     		ldrb	r0, [r3]	@ zero_extendqisi2
 122:Generated_Source\PSoC5/LCD_Char_1_LCDPort.c **** }
 134              		.loc 1 122 0
 135 0004 00F07F00 		and	r0, r0, #127
 136 0008 7047     		bx	lr
 137              	.L9:
 138 000a 00BF     		.align	2
 139              	.L8:
 140 000c 21510040 		.word	1073762593
 141              		.cfi_endproc
 142              	.LFE2:
 143              		.size	LCD_Char_1_LCDPort_Read, .-LCD_Char_1_LCDPort_Read
 144              		.section	.text.LCD_Char_1_LCDPort_ReadDataReg,"ax",%progbits
 145              		.align	2
 146              		.global	LCD_Char_1_LCDPort_ReadDataReg
 147              		.thumb
 148              		.thumb_func
 149              		.type	LCD_Char_1_LCDPort_ReadDataReg, %function
 150              	LCD_Char_1_LCDPort_ReadDataReg:
 151              	.LFB3:
 123:Generated_Source\PSoC5/LCD_Char_1_LCDPort.c **** 
 124:Generated_Source\PSoC5/LCD_Char_1_LCDPort.c **** 
 125:Generated_Source\PSoC5/LCD_Char_1_LCDPort.c **** /*******************************************************************************
 126:Generated_Source\PSoC5/LCD_Char_1_LCDPort.c **** * Function Name: LCD_Char_1_LCDPort_ReadDataReg
 127:Generated_Source\PSoC5/LCD_Char_1_LCDPort.c **** ****************************************************************************//**
 128:Generated_Source\PSoC5/LCD_Char_1_LCDPort.c **** *
 129:Generated_Source\PSoC5/LCD_Char_1_LCDPort.c **** * \brief Reads the associated physical port's data output register and masks 
 130:Generated_Source\PSoC5/LCD_Char_1_LCDPort.c **** *  the correct bits according to the width and bit position of the component 
 131:Generated_Source\PSoC5/LCD_Char_1_LCDPort.c **** *  instance. 
 132:Generated_Source\PSoC5/LCD_Char_1_LCDPort.c **** *
 133:Generated_Source\PSoC5/LCD_Char_1_LCDPort.c **** * The data output register controls the signal applied to the physical pin in 
 134:Generated_Source\PSoC5/LCD_Char_1_LCDPort.c **** * conjunction with the drive mode parameter. This is not the same as the 
ARM GAS  C:\Users\MATEUS~1\AppData\Local\Temp\cc8IRglA.s 			page 6


 135:Generated_Source\PSoC5/LCD_Char_1_LCDPort.c **** * preferred LCD_Char_1_LCDPort_Read() API because the 
 136:Generated_Source\PSoC5/LCD_Char_1_LCDPort.c **** * LCD_Char_1_LCDPort_ReadDataReg() reads the data register instead of the status 
 137:Generated_Source\PSoC5/LCD_Char_1_LCDPort.c **** * register. For output pins this is a useful function to determine the value 
 138:Generated_Source\PSoC5/LCD_Char_1_LCDPort.c **** * just written to the pin.
 139:Generated_Source\PSoC5/LCD_Char_1_LCDPort.c **** *
 140:Generated_Source\PSoC5/LCD_Char_1_LCDPort.c **** * \return 
 141:Generated_Source\PSoC5/LCD_Char_1_LCDPort.c **** *  The current value of the data register masked and shifted into a right 
 142:Generated_Source\PSoC5/LCD_Char_1_LCDPort.c **** *  justified number for the component instance.
 143:Generated_Source\PSoC5/LCD_Char_1_LCDPort.c **** *
 144:Generated_Source\PSoC5/LCD_Char_1_LCDPort.c **** * \funcusage
 145:Generated_Source\PSoC5/LCD_Char_1_LCDPort.c **** *  \snippet LCD_Char_1_LCDPort_SUT.c usage_LCD_Char_1_LCDPort_ReadDataReg 
 146:Generated_Source\PSoC5/LCD_Char_1_LCDPort.c **** *******************************************************************************/
 147:Generated_Source\PSoC5/LCD_Char_1_LCDPort.c **** uint8 LCD_Char_1_LCDPort_ReadDataReg(void)
 148:Generated_Source\PSoC5/LCD_Char_1_LCDPort.c **** {
 152              		.loc 1 148 0
 153              		.cfi_startproc
 154              		@ args = 0, pretend = 0, frame = 0
 155              		@ frame_needed = 0, uses_anonymous_args = 0
 156              		@ link register save eliminated.
 149:Generated_Source\PSoC5/LCD_Char_1_LCDPort.c ****     return (LCD_Char_1_LCDPort_DR & LCD_Char_1_LCDPort_MASK) >> LCD_Char_1_LCDPort_SHIFT;
 157              		.loc 1 149 0
 158 0000 024B     		ldr	r3, .L11
 159 0002 1878     		ldrb	r0, [r3]	@ zero_extendqisi2
 150:Generated_Source\PSoC5/LCD_Char_1_LCDPort.c **** }
 160              		.loc 1 150 0
 161 0004 00F07F00 		and	r0, r0, #127
 162 0008 7047     		bx	lr
 163              	.L12:
 164 000a 00BF     		.align	2
 165              	.L11:
 166 000c 20510040 		.word	1073762592
 167              		.cfi_endproc
 168              	.LFE3:
 169              		.size	LCD_Char_1_LCDPort_ReadDataReg, .-LCD_Char_1_LCDPort_ReadDataReg
 170              		.text
 171              	.Letext0:
 172              		.file 2 "Generated_Source\\PSoC5\\cytypes.h"
