Archive member included to satisfy reference by file (symbol)

.\CortexM3\ARM_GCC_541\Debug\ProjekPUSOC.a(IR_PIN.o)
                              .\CortexM3\ARM_GCC_541\Debug\main.o (IR_PIN_Read)
.\CortexM3\ARM_GCC_541\Debug\ProjekPUSOC.a(IR_INT.o)
                              .\CortexM3\ARM_GCC_541\Debug\main.o (IR_INT_StartEx)
.\CortexM3\ARM_GCC_541\Debug\ProjekPUSOC.a(CyLib.o)
                              .\CortexM3\ARM_GCC_541\Debug\Cm3Start.o (CyHalt)
.\CortexM3\ARM_GCC_541\Debug\ProjekPUSOC.a(cyPm.o)
                              .\CortexM3\ARM_GCC_541\Debug\ProjekPUSOC.a(CyLib.o) (CyPmReadStatus)
.\CortexM3\ARM_GCC_541\Debug\ProjekPUSOC.a(Timer_1.o)
                              .\CortexM3\ARM_GCC_541\Debug\main.o (Timer_1_Start)
.\CortexM3\ARM_GCC_541\Debug\ProjekPUSOC.a(LCD_Char_1.o)
                              .\CortexM3\ARM_GCC_541\Debug\main.o (LCD_Char_1_PrintString)
.\CortexM3\ARM_GCC_541\Debug\ProjekPUSOC.a(Timer_1_OVR.o)
                              .\CortexM3\ARM_GCC_541\Debug\main.o (Timer_1_OVR_StartEx)
.\CortexM3\ARM_GCC_541\Debug\ProjekPUSOC.a(LED4.o)
                              .\CortexM3\ARM_GCC_541\Debug\main.o (LED4_Write)
.\CortexM3\ARM_GCC_541\Debug\ProjekPUSOC.a(LED3.o)
                              .\CortexM3\ARM_GCC_541\Debug\main.o (LED3_Write)
.\CortexM3\ARM_GCC_541\Debug\ProjekPUSOC.a(CyBootAsmGnu.o)
                              .\CortexM3\ARM_GCC_541\Debug\cyfitter_cfg.o (CyDelayCycles)
.\CortexM3\ARM_GCC_541\Debug\ProjekPUSOC.a(CyFlash.o)
                              .\CortexM3\ARM_GCC_541\Debug\ProjekPUSOC.a(cyPm.o) (CyFlash_SetWaitCycles)
.\CortexM3\ARM_GCC_541\Debug\ProjekPUSOC.a(CySpc.o)
                              .\CortexM3\ARM_GCC_541\Debug\ProjekPUSOC.a(CyFlash.o) (CySpcStart)
c:/program files (x86)/cypress/psoc creator/4.1/psoc creator/import/gnu/arm/5.4.1/bin/../lib/gcc/arm-none-eabi/5.4.1/../../../../arm-none-eabi/lib/armv7-m\libg_nano.a(lib_a-errno.o)
                              .\CortexM3\ARM_GCC_541\Debug\Cm3Start.o (__errno)
c:/program files (x86)/cypress/psoc creator/4.1/psoc creator/import/gnu/arm/5.4.1/bin/../lib/gcc/arm-none-eabi/5.4.1/../../../../arm-none-eabi/lib/armv7-m\libg_nano.a(lib_a-exit.o)
                              c:/program files (x86)/cypress/psoc creator/4.1/psoc creator/import/gnu/arm/5.4.1/bin/../lib/gcc/arm-none-eabi/5.4.1/../../../../arm-none-eabi/lib/armv7-m/crt0.o (exit)
c:/program files (x86)/cypress/psoc creator/4.1/psoc creator/import/gnu/arm/5.4.1/bin/../lib/gcc/arm-none-eabi/5.4.1/../../../../arm-none-eabi/lib/armv7-m\libg_nano.a(lib_a-impure.o)
                              c:/program files (x86)/cypress/psoc creator/4.1/psoc creator/import/gnu/arm/5.4.1/bin/../lib/gcc/arm-none-eabi/5.4.1/../../../../arm-none-eabi/lib/armv7-m\libg_nano.a(lib_a-exit.o) (_global_impure_ptr)
c:/program files (x86)/cypress/psoc creator/4.1/psoc creator/import/gnu/arm/5.4.1/bin/../lib/gcc/arm-none-eabi/5.4.1/../../../../arm-none-eabi/lib/armv7-m\libg_nano.a(lib_a-init.o)
                              c:/program files (x86)/cypress/psoc creator/4.1/psoc creator/import/gnu/arm/5.4.1/bin/../lib/gcc/arm-none-eabi/5.4.1/../../../../arm-none-eabi/lib/armv7-m/crt0.o (__libc_init_array)
c:/program files (x86)/cypress/psoc creator/4.1/psoc creator/import/gnu/arm/5.4.1/bin/../lib/gcc/arm-none-eabi/5.4.1/../../../../arm-none-eabi/lib/armv7-m\libg_nano.a(lib_a-memcpy-stub.o)
                              .\CortexM3\ARM_GCC_541\Debug\cyfitter_cfg.o (memcpy)
c:/program files (x86)/cypress/psoc creator/4.1/psoc creator/import/gnu/arm/5.4.1/bin/../lib/gcc/arm-none-eabi/5.4.1/../../../../arm-none-eabi/lib/armv7-m\libg_nano.a(lib_a-memset.o)
                              c:/program files (x86)/cypress/psoc creator/4.1/psoc creator/import/gnu/arm/5.4.1/bin/../lib/gcc/arm-none-eabi/5.4.1/../../../../arm-none-eabi/lib/armv7-m/crt0.o (memset)

Allocating common symbols
Common symbol       size              file

dieTemperature      0x2               .\CortexM3\ARM_GCC_541\Debug\ProjekPUSOC.a(CyFlash.o)

Discarded input sections

 .text          0x00000000        0x0 c:/program files (x86)/cypress/psoc creator/4.1/psoc creator/import/gnu/arm/5.4.1/bin/../lib/gcc/arm-none-eabi/5.4.1/armv7-m/crti.o
 .data          0x00000000        0x0 c:/program files (x86)/cypress/psoc creator/4.1/psoc creator/import/gnu/arm/5.4.1/bin/../lib/gcc/arm-none-eabi/5.4.1/armv7-m/crti.o
 .bss           0x00000000        0x0 c:/program files (x86)/cypress/psoc creator/4.1/psoc creator/import/gnu/arm/5.4.1/bin/../lib/gcc/arm-none-eabi/5.4.1/armv7-m/crti.o
 .data          0x00000000        0x4 c:/program files (x86)/cypress/psoc creator/4.1/psoc creator/import/gnu/arm/5.4.1/bin/../lib/gcc/arm-none-eabi/5.4.1/armv7-m/crtbegin.o
 .text          0x00000000       0x74 c:/program files (x86)/cypress/psoc creator/4.1/psoc creator/import/gnu/arm/5.4.1/bin/../lib/gcc/arm-none-eabi/5.4.1/../../../../arm-none-eabi/lib/armv7-m/crt0.o
 .data          0x00000000        0x0 c:/program files (x86)/cypress/psoc creator/4.1/psoc creator/import/gnu/arm/5.4.1/bin/../lib/gcc/arm-none-eabi/5.4.1/../../../../arm-none-eabi/lib/armv7-m/crt0.o
 .bss           0x00000000        0x0 c:/program files (x86)/cypress/psoc creator/4.1/psoc creator/import/gnu/arm/5.4.1/bin/../lib/gcc/arm-none-eabi/5.4.1/../../../../arm-none-eabi/lib/armv7-m/crt0.o
 .ARM.extab     0x00000000        0x0 c:/program files (x86)/cypress/psoc creator/4.1/psoc creator/import/gnu/arm/5.4.1/bin/../lib/gcc/arm-none-eabi/5.4.1/../../../../arm-none-eabi/lib/armv7-m/crt0.o
 .ARM.exidx     0x00000000        0x8 c:/program files (x86)/cypress/psoc creator/4.1/psoc creator/import/gnu/arm/5.4.1/bin/../lib/gcc/arm-none-eabi/5.4.1/../../../../arm-none-eabi/lib/armv7-m/crt0.o
 .text          0x00000000        0x0 .\CortexM3\ARM_GCC_541\Debug\main.o
 .text          0x00000000        0x0 .\CortexM3\ARM_GCC_541\Debug\cyfitter_cfg.o
 .data          0x00000000        0x0 .\CortexM3\ARM_GCC_541\Debug\cyfitter_cfg.o
 .bss           0x00000000        0x0 .\CortexM3\ARM_GCC_541\Debug\cyfitter_cfg.o
 .text.SetAnalogRoutingPumps
                0x00000000       0x10 .\CortexM3\ARM_GCC_541\Debug\cyfitter_cfg.o
 .text          0x00000000        0x0 .\CortexM3\ARM_GCC_541\Debug\cymetadata.o
 .data          0x00000000        0x0 .\CortexM3\ARM_GCC_541\Debug\cymetadata.o
 .bss           0x00000000        0x0 .\CortexM3\ARM_GCC_541\Debug\cymetadata.o
Memory Configuration

Name             Origin             Length             Attributes
rom              0x00000000         0x00040000         xr
ram              0x1fff8000         0x00010000         xrw
*default*        0x00000000         0xffffffff

Linker script and memory map

LOAD c:/program files (x86)/cypress/psoc creator/4.1/psoc creator/import/gnu/arm/5.4.1/bin/../lib/gcc/arm-none-eabi/5.4.1/armv7-m/crti.o
LOAD c:/program files (x86)/cypress/psoc creator/4.1/psoc creator/import/gnu/arm/5.4.1/bin/../lib/gcc/arm-none-eabi/5.4.1/armv7-m/crtbegin.o
LOAD c:/program files (x86)/cypress/psoc creator/4.1/psoc creator/import/gnu/arm/5.4.1/bin/../lib/gcc/arm-none-eabi/5.4.1/../../../../arm-none-eabi/lib/armv7-m/crt0.o
START GROUP
LOAD .\CortexM3\ARM_GCC_541\Debug\main.o
LOAD .\CortexM3\ARM_GCC_541\Debug\cyfitter_cfg.o
LOAD .\CortexM3\ARM_GCC_541\Debug\cymetadata.o
LOAD .\CortexM3\ARM_GCC_541\Debug\Cm3Start.o
LOAD .\CortexM3\ARM_GCC_541\Debug\ProjekPUSOC.a
LOAD C:\Program Files (x86)\Cypress\PSoC Creator\4.1\PSoC Creator\psoc\content\cycomponentlibrary\CyComponentLibrary.cylib\CortexM3\ARM_GCC_541\Debug\CyComponentLibrary.a
END GROUP
START GROUP
LOAD c:/program files (x86)/cypress/psoc creator/4.1/psoc creator/import/gnu/arm/5.4.1/bin/../lib/gcc/arm-none-eabi/5.4.1/armv7-m\libgcc.a
LOAD c:/program files (x86)/cypress/psoc creator/4.1/psoc creator/import/gnu/arm/5.4.1/bin/../lib/gcc/arm-none-eabi/5.4.1/../../../../arm-none-eabi/lib/armv7-m\libg_nano.a
LOAD c:/program files (x86)/cypress/psoc creator/4.1/psoc creator/import/gnu/arm/5.4.1/bin/../lib/gcc/arm-none-eabi/5.4.1/../../../../arm-none-eabi/lib/armv7-m\libc_nano.a
END GROUP
START GROUP
LOAD c:/program files (x86)/cypress/psoc creator/4.1/psoc creator/import/gnu/arm/5.4.1/bin/../lib/gcc/arm-none-eabi/5.4.1/armv7-m\libgcc.a
LOAD c:/program files (x86)/cypress/psoc creator/4.1/psoc creator/import/gnu/arm/5.4.1/bin/../lib/gcc/arm-none-eabi/5.4.1/../../../../arm-none-eabi/lib/armv7-m\libc_nano.a
END GROUP
LOAD c:/program files (x86)/cypress/psoc creator/4.1/psoc creator/import/gnu/arm/5.4.1/bin/../lib/gcc/arm-none-eabi/5.4.1/armv7-m/crtend.o
LOAD c:/program files (x86)/cypress/psoc creator/4.1/psoc creator/import/gnu/arm/5.4.1/bin/../lib/gcc/arm-none-eabi/5.4.1/armv7-m/crtn.o
START GROUP
LOAD c:/program files (x86)/cypress/psoc creator/4.1/psoc creator/import/gnu/arm/5.4.1/bin/../lib/gcc/arm-none-eabi/5.4.1/armv7-m\libgcc.a
LOAD c:/program files (x86)/cypress/psoc creator/4.1/psoc creator/import/gnu/arm/5.4.1/bin/../lib/gcc/arm-none-eabi/5.4.1/../../../../arm-none-eabi/lib/armv7-m\libc.a
LOAD c:/program files (x86)/cypress/psoc creator/4.1/psoc creator/import/gnu/arm/5.4.1/bin/../lib/gcc/arm-none-eabi/5.4.1/../../../../arm-none-eabi/lib/armv7-m\libnosys.a
END GROUP
                0x00000000                CY_APPL_ORIGIN = 0x0
                0x00000100                CY_FLASH_ROW_SIZE = 0x100
                0x00000020                CY_ECC_ROW_SIZE = 0x20
                0x00000000                CY_EE_IN_BTLDR = 0x0
                0x00000000                CY_APPL_LOADABLE = 0x0
                0x00000800                CY_EE_SIZE = 0x800
                0x00000001                CY_APPL_NUM = 0x1
                0x00000001                CY_APPL_MAX = 0x1
                0x00000040                CY_METADATA_SIZE = 0x40
                0x00000000                CY_APPL_LOADABLE = 0x0
                0x00000000                CY_CHECKSUM_EXCLUDE_SIZE = ALIGN (0x0, CY_FLASH_ROW_SIZE)
                [!provide]                PROVIDE (__cy_heap_start, _end)
                0x00000001                PROVIDE (__cy_region_num, ((__cy_regions_end - __cy_regions) / 0x10))
                0x20008000                PROVIDE (__cy_stack, (ORIGIN (ram) + LENGTH (ram)))
                [!provide]                PROVIDE (__cy_heap_end, (__cy_stack - 0x800))

.cybootloader   0x00000000        0x0
 *(.cybootloader)
                0x00000000                appl1_start = CY_APPL_ORIGIN?CY_APPL_ORIGIN:ALIGN (CY_FLASH_ROW_SIZE)
                0x0001ff00                appl2_start = (appl1_start + ALIGN ((((LENGTH (rom) - appl1_start) - (0x2 * CY_FLASH_ROW_SIZE)) / 0x2), CY_FLASH_ROW_SIZE))
                0x00000000                appl_start = (CY_APPL_NUM == 0x1)?appl1_start:appl2_start
                0x00000000                ecc_offset = ((appl_start / CY_FLASH_ROW_SIZE) * CY_ECC_ROW_SIZE)
                0x00000000                ee_offset = (CY_APPL_LOADABLE && ! (CY_EE_IN_BTLDR))?((CY_EE_SIZE / CY_APPL_MAX) * (CY_APPL_NUM - 0x1)):0x0
                0x00000800                ee_size = (CY_APPL_LOADABLE && ! (CY_EE_IN_BTLDR))?(CY_EE_SIZE / CY_APPL_MAX):CY_EE_SIZE
                [!provide]                PROVIDE (CY_ECC_OFFSET, ecc_offset)

.text           0x00000000      0xbf6
 CREATE_OBJECT_SYMBOLS
                0x00000000                PROVIDE (__cy_interrupt_vector, RomVectors)
 *(.romvectors)
 .romvectors    0x00000000       0x10 .\CortexM3\ARM_GCC_541\Debug\Cm3Start.o
                0x00000000                RomVectors
                0x00000001                ASSERT ((. != __cy_interrupt_vector), No interrupt vector)
                0x00000001                ASSERT (CY_APPL_ORIGIN?(SIZEOF (.cybootloader) <= CY_APPL_ORIGIN):0x1, Wrong image location)
                0x00000010                PROVIDE (__cy_reset, Reset)
 *(.text.Reset)
 .text.Reset    0x00000010       0x18 .\CortexM3\ARM_GCC_541\Debug\Cm3Start.o
                0x00000010                Reset
                0x00000001                ASSERT ((. != __cy_reset), No reset code)
 *(.dma_init)
                0x00000001                ASSERT ((((appl_start + .) <= 0x10000) || 0x1), DMA Init must be within the first 64k of flash)
 *(.text .text.* .gnu.linkonce.t.*)
 .text          0x00000028       0x5c c:/program files (x86)/cypress/psoc creator/4.1/psoc creator/import/gnu/arm/5.4.1/bin/../lib/gcc/arm-none-eabi/5.4.1/armv7-m/crtbegin.o
 .text.IR_ISR   0x00000084       0x24 .\CortexM3\ARM_GCC_541\Debug\main.o
                0x00000084                IR_ISR
 .text.Timer_1_OVR_ISR
                0x000000a8       0x28 .\CortexM3\ARM_GCC_541\Debug\main.o
                0x000000a8                Timer_1_OVR_ISR
 .text.nec_logic
                0x000000d0       0x20 .\CortexM3\ARM_GCC_541\Debug\main.o
                0x000000d0                nec_logic
 .text.endIRreceive
                0x000000f0       0x14 .\CortexM3\ARM_GCC_541\Debug\main.o
                0x000000f0                endIRreceive
 .text.nec_init
                0x00000104      0x120 .\CortexM3\ARM_GCC_541\Debug\main.o
                0x00000104                nec_init
 .text.recognizeCommand
                0x00000224       0x78 .\CortexM3\ARM_GCC_541\Debug\main.o
                0x00000224                recognizeCommand
 .text.main     0x0000029c       0xa0 .\CortexM3\ARM_GCC_541\Debug\main.o
                0x0000029c                main
 .text.CyClockStartupError
                0x0000033c        0x4 .\CortexM3\ARM_GCC_541\Debug\cyfitter_cfg.o
 .text.cfg_write_bytes32
                0x00000340       0x34 .\CortexM3\ARM_GCC_541\Debug\cyfitter_cfg.o
 .text.AnalogSetDefault
                0x00000374       0x28 .\CortexM3\ARM_GCC_541\Debug\cyfitter_cfg.o
 .text.CYMEMZERO
                0x0000039c        0xc .\CortexM3\ARM_GCC_541\Debug\cyfitter_cfg.o
 .text.ClockSetup
                0x000003a8       0x9c .\CortexM3\ARM_GCC_541\Debug\cyfitter_cfg.o
 .text.CYCONFIGCPY
                0x00000444        0x8 .\CortexM3\ARM_GCC_541\Debug\cyfitter_cfg.o
 .text.cyfitter_cfg
                0x0000044c      0x100 .\CortexM3\ARM_GCC_541\Debug\cyfitter_cfg.o
                0x0000044c                cyfitter_cfg
 .text.IntDefaultHandler
                0x0000054c       0x10 .\CortexM3\ARM_GCC_541\Debug\Cm3Start.o
                0x0000054c                IntDefaultHandler
 .text.Start_c  0x0000055c       0x4c .\CortexM3\ARM_GCC_541\Debug\Cm3Start.o
                0x0000055c                Start_c
 .text.initialize_psoc
                0x000005a8       0x68 .\CortexM3\ARM_GCC_541\Debug\Cm3Start.o
                0x000005a8                initialize_psoc
 .text.IR_PIN_Read
                0x00000610        0xc .\CortexM3\ARM_GCC_541\Debug\ProjekPUSOC.a(IR_PIN.o)
                0x00000610                IR_PIN_Read
 .text.IR_INT_SetVector
                0x0000061c        0xc .\CortexM3\ARM_GCC_541\Debug\ProjekPUSOC.a(IR_INT.o)
                0x0000061c                IR_INT_SetVector
 .text.IR_INT_SetPriority
                0x00000628       0x10 .\CortexM3\ARM_GCC_541\Debug\ProjekPUSOC.a(IR_INT.o)
                0x00000628                IR_INT_SetPriority
 .text.IR_INT_Enable
                0x00000638        0xc .\CortexM3\ARM_GCC_541\Debug\ProjekPUSOC.a(IR_INT.o)
                0x00000638                IR_INT_Enable
 .text.IR_INT_Disable
                0x00000644        0xc .\CortexM3\ARM_GCC_541\Debug\ProjekPUSOC.a(IR_INT.o)
                0x00000644                IR_INT_Disable
 .text.IR_INT_StartEx
                0x00000650       0x1c .\CortexM3\ARM_GCC_541\Debug\ProjekPUSOC.a(IR_INT.o)
                0x00000650                IR_INT_StartEx
 .text.CyDelay  0x0000066c       0x2c .\CortexM3\ARM_GCC_541\Debug\ProjekPUSOC.a(CyLib.o)
                0x0000066c                CyDelay
 .text.CyDelayUs
                0x00000698       0x14 .\CortexM3\ARM_GCC_541\Debug\ProjekPUSOC.a(CyLib.o)
                0x00000698                CyDelayUs
 .text.Timer_1_Enable
                0x000006ac       0x28 .\CortexM3\ARM_GCC_541\Debug\ProjekPUSOC.a(Timer_1.o)
                0x000006ac                Timer_1_Enable
 .text.Timer_1_SetInterruptMode
                0x000006d4        0xc .\CortexM3\ARM_GCC_541\Debug\ProjekPUSOC.a(Timer_1.o)
                0x000006d4                Timer_1_SetInterruptMode
 .text.Timer_1_WritePeriod
                0x000006e0        0xc .\CortexM3\ARM_GCC_541\Debug\ProjekPUSOC.a(Timer_1.o)
                0x000006e0                Timer_1_WritePeriod
 .text.Timer_1_WriteCounter
                0x000006ec        0xc .\CortexM3\ARM_GCC_541\Debug\ProjekPUSOC.a(Timer_1.o)
                0x000006ec                Timer_1_WriteCounter
 .text.Timer_1_Init
                0x000006f8       0x68 .\CortexM3\ARM_GCC_541\Debug\ProjekPUSOC.a(Timer_1.o)
                0x000006f8                Timer_1_Init
 .text.Timer_1_Start
                0x00000760       0x1c .\CortexM3\ARM_GCC_541\Debug\ProjekPUSOC.a(Timer_1.o)
                0x00000760                Timer_1_Start
 .text.Timer_1_ReadCounter
                0x0000077c       0x14 .\CortexM3\ARM_GCC_541\Debug\ProjekPUSOC.a(Timer_1.o)
                0x0000077c                Timer_1_ReadCounter
 .text.LCD_Char_1_WrCntrlNib
                0x00000790       0x34 .\CortexM3\ARM_GCC_541\Debug\ProjekPUSOC.a(LCD_Char_1.o)
 .text.LCD_Char_1_WrDatNib
                0x000007c4       0x44 .\CortexM3\ARM_GCC_541\Debug\ProjekPUSOC.a(LCD_Char_1.o)
 .text.LCD_Char_1_IsReady
                0x00000808       0xe4 .\CortexM3\ARM_GCC_541\Debug\ProjekPUSOC.a(LCD_Char_1.o)
                0x00000808                LCD_Char_1_IsReady
 .text.LCD_Char_1_WriteData
                0x000008ec       0x18 .\CortexM3\ARM_GCC_541\Debug\ProjekPUSOC.a(LCD_Char_1.o)
                0x000008ec                LCD_Char_1_WriteData
 .text.LCD_Char_1_PrintString
                0x00000904       0x1c .\CortexM3\ARM_GCC_541\Debug\ProjekPUSOC.a(LCD_Char_1.o)
                0x00000904                LCD_Char_1_PrintString
 .text.LCD_Char_1_PutChar
                0x00000920        0x8 .\CortexM3\ARM_GCC_541\Debug\ProjekPUSOC.a(LCD_Char_1.o)
                0x00000920                LCD_Char_1_PutChar
 .text.LCD_Char_1_WriteControl
                0x00000928       0x18 .\CortexM3\ARM_GCC_541\Debug\ProjekPUSOC.a(LCD_Char_1.o)
                0x00000928                LCD_Char_1_WriteControl
 .text.LCD_Char_1_Init
                0x00000940       0x6c .\CortexM3\ARM_GCC_541\Debug\ProjekPUSOC.a(LCD_Char_1.o)
                0x00000940                LCD_Char_1_Init
 .text.LCD_Char_1_Enable
                0x000009ac       0x14 .\CortexM3\ARM_GCC_541\Debug\ProjekPUSOC.a(LCD_Char_1.o)
                0x000009ac                LCD_Char_1_Enable
 .text.LCD_Char_1_Start
                0x000009c0       0x1c .\CortexM3\ARM_GCC_541\Debug\ProjekPUSOC.a(LCD_Char_1.o)
                0x000009c0                LCD_Char_1_Start
 .text.LCD_Char_1_Position
                0x000009dc       0x3c .\CortexM3\ARM_GCC_541\Debug\ProjekPUSOC.a(LCD_Char_1.o)
                0x000009dc                LCD_Char_1_Position
 .text.LCD_Char_1_PrintInt8
                0x00000a18       0x20 .\CortexM3\ARM_GCC_541\Debug\ProjekPUSOC.a(LCD_Char_1.o)
                0x00000a18                LCD_Char_1_PrintInt8
 .text.LCD_Char_1_PrintInt32
                0x00000a38       0x1c .\CortexM3\ARM_GCC_541\Debug\ProjekPUSOC.a(LCD_Char_1.o)
                0x00000a38                LCD_Char_1_PrintInt32
 .text.LCD_Char_1_PrintU32Number
                0x00000a54       0x64 .\CortexM3\ARM_GCC_541\Debug\ProjekPUSOC.a(LCD_Char_1.o)
                0x00000a54                LCD_Char_1_PrintU32Number
 .text.Timer_1_OVR_SetVector
                0x00000ab8        0xc .\CortexM3\ARM_GCC_541\Debug\ProjekPUSOC.a(Timer_1_OVR.o)
                0x00000ab8                Timer_1_OVR_SetVector
 .text.Timer_1_OVR_SetPriority
                0x00000ac4       0x10 .\CortexM3\ARM_GCC_541\Debug\ProjekPUSOC.a(Timer_1_OVR.o)
                0x00000ac4                Timer_1_OVR_SetPriority
 .text.Timer_1_OVR_Enable
                0x00000ad4        0xc .\CortexM3\ARM_GCC_541\Debug\ProjekPUSOC.a(Timer_1_OVR.o)
                0x00000ad4                Timer_1_OVR_Enable
 .text.Timer_1_OVR_Disable
                0x00000ae0        0xc .\CortexM3\ARM_GCC_541\Debug\ProjekPUSOC.a(Timer_1_OVR.o)
                0x00000ae0                Timer_1_OVR_Disable
 .text.Timer_1_OVR_StartEx
                0x00000aec       0x1c .\CortexM3\ARM_GCC_541\Debug\ProjekPUSOC.a(Timer_1_OVR.o)
                0x00000aec                Timer_1_OVR_StartEx
 .text.LED4_Write
                0x00000b08       0x18 .\CortexM3\ARM_GCC_541\Debug\ProjekPUSOC.a(LED4.o)
                0x00000b08                LED4_Write
 .text.LED4_Read
                0x00000b20       0x10 .\CortexM3\ARM_GCC_541\Debug\ProjekPUSOC.a(LED4.o)
                0x00000b20                LED4_Read
 .text.LED3_Write
                0x00000b30       0x18 .\CortexM3\ARM_GCC_541\Debug\ProjekPUSOC.a(LED3.o)
                0x00000b30                LED3_Write
 .text.LED3_Read
                0x00000b48       0x10 .\CortexM3\ARM_GCC_541\Debug\ProjekPUSOC.a(LED3.o)
                0x00000b48                LED3_Read
 .text          0x00000b58       0x20 .\CortexM3\ARM_GCC_541\Debug\ProjekPUSOC.a(CyBootAsmGnu.o)
                0x00000b58                CyDelayCycles
                0x00000b68                CyEnterCriticalSection
                0x00000b70                CyExitCriticalSection
 .text.__errno  0x00000b78        0xc c:/program files (x86)/cypress/psoc creator/4.1/psoc creator/import/gnu/arm/5.4.1/bin/../lib/gcc/arm-none-eabi/5.4.1/../../../../arm-none-eabi/lib/armv7-m\libg_nano.a(lib_a-errno.o)
                0x00000b78                __errno
 .text.__libc_init_array
                0x00000b84       0x4c c:/program files (x86)/cypress/psoc creator/4.1/psoc creator/import/gnu/arm/5.4.1/bin/../lib/gcc/arm-none-eabi/5.4.1/../../../../arm-none-eabi/lib/armv7-m\libg_nano.a(lib_a-init.o)
                0x00000b84                __libc_init_array
 .text.memcpy   0x00000bd0       0x16 c:/program files (x86)/cypress/psoc creator/4.1/psoc creator/import/gnu/arm/5.4.1/bin/../lib/gcc/arm-none-eabi/5.4.1/../../../../arm-none-eabi/lib/armv7-m\libg_nano.a(lib_a-memcpy-stub.o)
                0x00000bd0                memcpy
 .text.memset   0x00000be6       0x10 c:/program files (x86)/cypress/psoc creator/4.1/psoc creator/import/gnu/arm/5.4.1/bin/../lib/gcc/arm-none-eabi/5.4.1/../../../../arm-none-eabi/lib/armv7-m\libg_nano.a(lib_a-memset.o)
                0x00000be6                memset
 *(.plt)
 *(.gnu.warning)
 *(.glue_7t)
 .glue_7t       0x00000bf6        0x0 linker stubs
 *(.glue_7)
 .glue_7        0x00000bf6        0x0 linker stubs
 *(.vfp11_veneer)
 .vfp11_veneer  0x00000bf6        0x0 linker stubs
 *(.bootloader)
 *(.ARM.extab* .gnu.linkonce.armextab.*)
 *(.gcc_except_table)

.v4_bx          0x00000bf8        0x0
 .v4_bx         0x00000bf8        0x0 linker stubs

.iplt           0x00000bf8        0x0
 .iplt          0x00000bf8        0x0 c:/program files (x86)/cypress/psoc creator/4.1/psoc creator/import/gnu/arm/5.4.1/bin/../lib/gcc/arm-none-eabi/5.4.1/armv7-m/crtbegin.o

.eh_frame_hdr
 *(.eh_frame_hdr)

.eh_frame       0x00000bf8        0x4
 *(.eh_frame)
 .eh_frame      0x00000bf8        0x0 c:/program files (x86)/cypress/psoc creator/4.1/psoc creator/import/gnu/arm/5.4.1/bin/../lib/gcc/arm-none-eabi/5.4.1/armv7-m/crtbegin.o
 .eh_frame      0x00000bf8        0x4 c:/program files (x86)/cypress/psoc creator/4.1/psoc creator/import/gnu/arm/5.4.1/bin/../lib/gcc/arm-none-eabi/5.4.1/armv7-m/crtend.o
                [!provide]                PROVIDE (__exidx_start, .)

.ARM.exidx
 *(.ARM.exidx* .gnu.linkonce.armexidx.*)
                0x00000bfc                __exidx_end = .

.rodata         0x00000bfc       0xcc
 *(.rodata .rodata.* .gnu.linkonce.r.*)
 .rodata        0x00000bfc       0x28 .\CortexM3\ARM_GCC_541\Debug\main.o
 .rodata.str1.4
                0x00000c24       0x1c .\CortexM3\ARM_GCC_541\Debug\main.o
                                 0x1b (size before relaxing)
 .rodata        0x00000c40       0x3c .\CortexM3\ARM_GCC_541\Debug\cyfitter_cfg.o
 .rodata        0x00000c7c       0x10 .\CortexM3\ARM_GCC_541\Debug\ProjekPUSOC.a(LCD_Char_1.o)
 .rodata.str1.1
                0x00000c8c        0x2 c:/program files (x86)/cypress/psoc creator/4.1/psoc creator/import/gnu/arm/5.4.1/bin/../lib/gcc/arm-none-eabi/5.4.1/../../../../arm-none-eabi/lib/armv7-m\libg_nano.a(lib_a-impure.o)
                0x00000c90                . = ALIGN (0x4)
 *fill*         0x00000c8e        0x2 
 *(.init)
 .init          0x00000c90        0x4 c:/program files (x86)/cypress/psoc creator/4.1/psoc creator/import/gnu/arm/5.4.1/bin/../lib/gcc/arm-none-eabi/5.4.1/armv7-m/crti.o
                0x00000c90                _init
 .init          0x00000c94        0x8 c:/program files (x86)/cypress/psoc creator/4.1/psoc creator/import/gnu/arm/5.4.1/bin/../lib/gcc/arm-none-eabi/5.4.1/armv7-m/crtn.o
                0x00000c9c                . = ALIGN (0x4)
                0x00000c9c                __preinit_array_start = .
 *(.preinit_array)
                0x00000c9c                __preinit_array_end = .
                0x00000c9c                . = ALIGN (0x4)
                0x00000c9c                __init_array_start = .
 *(SORT(.init_array.*))
 *(.init_array)
 .init_array    0x00000c9c        0x4 c:/program files (x86)/cypress/psoc creator/4.1/psoc creator/import/gnu/arm/5.4.1/bin/../lib/gcc/arm-none-eabi/5.4.1/armv7-m/crtbegin.o
 .init_array    0x00000ca0        0x4 .\CortexM3\ARM_GCC_541\Debug\Cm3Start.o
                0x00000ca4                __init_array_end = .
                0x00000ca4                . = ALIGN (0x4)
 *(.fini)
 .fini          0x00000ca4        0x4 c:/program files (x86)/cypress/psoc creator/4.1/psoc creator/import/gnu/arm/5.4.1/bin/../lib/gcc/arm-none-eabi/5.4.1/armv7-m/crti.o
                0x00000ca4                _fini
 .fini          0x00000ca8        0x8 c:/program files (x86)/cypress/psoc creator/4.1/psoc creator/import/gnu/arm/5.4.1/bin/../lib/gcc/arm-none-eabi/5.4.1/armv7-m/crtn.o
                0x00000cb0                . = ALIGN (0x4)
                0x00000cb0                __fini_array_start = .
 *(.fini_array)
 .fini_array    0x00000cb0        0x4 c:/program files (x86)/cypress/psoc creator/4.1/psoc creator/import/gnu/arm/5.4.1/bin/../lib/gcc/arm-none-eabi/5.4.1/armv7-m/crtbegin.o
 *(SORT(.fini_array.*))
                0x00000cb4                __fini_array_end = .
                0x00000cb4                . = ALIGN (0x4)
 *crtbegin.o(.ctors)
 *(EXCLUDE_FILE(*crtend.o) .ctors)
 *(SORT(.ctors.*))
 *crtend.o(.ctors)
                0x00000cb4                . = ALIGN (0x4)
 *crtbegin.o(.dtors)
 *(EXCLUDE_FILE(*crtend.o) .dtors)
 *(SORT(.dtors.*))
 *crtend.o(.dtors)
                0x00000cb4                . = ALIGN (0x4)
                0x00000cb4                __cy_regions = .
                0x00000cb4        0x4 LONG 0xcc8 __cy_region_init_ram
                0x00000cb8        0x4 LONG 0x1fff80c8 __cy_region_start_data
                0x00000cbc        0x4 LONG 0x80 __cy_region_init_size_ram
                0x00000cc0        0x4 LONG 0x30 __cy_region_zero_size_ram
                0x00000cc4                __cy_regions_end = .
                0x00000cc8                . = ALIGN (0x8)
 *fill*         0x00000cc4        0x4 
                0x00000cc8                _etext = .

.cy_checksum_exclude
                0x00000cc8        0x0
 *(.cy_checksum_exclude)

.ramvectors     0x1fff8000       0xc0
                0x1fff8000                __cy_region_start_ram = .
 *(.ramvectors)
 .ramvectors    0x1fff8000       0xc0 .\CortexM3\ARM_GCC_541\Debug\Cm3Start.o
                0x1fff8000                CyRamVectors

.noinit         0x1fff80c0        0x1
 *(.noinit)
 .noinit        0x1fff80c0        0x1 .\CortexM3\ARM_GCC_541\Debug\ProjekPUSOC.a(CyLib.o)
                0x1fff80c0                CyResetStatus

.data           0x1fff80c8       0x80 load address 0x00000cc8
                0x1fff80c8                __cy_region_start_data = .
 *(.jcr)
 .jcr           0x1fff80c8        0x0 c:/program files (x86)/cypress/psoc creator/4.1/psoc creator/import/gnu/arm/5.4.1/bin/../lib/gcc/arm-none-eabi/5.4.1/armv7-m/crtbegin.o
 .jcr           0x1fff80c8        0x4 c:/program files (x86)/cypress/psoc creator/4.1/psoc creator/import/gnu/arm/5.4.1/bin/../lib/gcc/arm-none-eabi/5.4.1/armv7-m/crtend.o
 *(.got.plt)
 *(.got)
 *(.shdata)
 *(.data .data.* .gnu.linkonce.d.*)
 .data          0x1fff80cc        0x8 .\CortexM3\ARM_GCC_541\Debug\main.o
                0x1fff80cc                allowNextData
                0x1fff80d0                deviceNumber
 .data          0x1fff80d4       0x10 .\CortexM3\ARM_GCC_541\Debug\ProjekPUSOC.a(CyLib.o)
                0x1fff80d4                cydelay_32k_ms
                0x1fff80d8                cydelay_freq_khz
                0x1fff80dc                cydelay_freq_mhz
                0x1fff80e0                cydelay_freq_hz
 .data.impure_data
                0x1fff80e4       0x60 c:/program files (x86)/cypress/psoc creator/4.1/psoc creator/import/gnu/arm/5.4.1/bin/../lib/gcc/arm-none-eabi/5.4.1/../../../../arm-none-eabi/lib/armv7-m\libg_nano.a(lib_a-impure.o)
 .data._impure_ptr
                0x1fff8144        0x4 c:/program files (x86)/cypress/psoc creator/4.1/psoc creator/import/gnu/arm/5.4.1/bin/../lib/gcc/arm-none-eabi/5.4.1/../../../../arm-none-eabi/lib/armv7-m\libg_nano.a(lib_a-impure.o)
                0x1fff8144                _impure_ptr
                0x1fff8148                . = ALIGN (0x8)
 *(.ram)
                0x1fff8148                _edata = .

.igot.plt       0x1fff8148        0x0 load address 0x00000d48
 .igot.plt      0x1fff8148        0x0 c:/program files (x86)/cypress/psoc creator/4.1/psoc creator/import/gnu/arm/5.4.1/bin/../lib/gcc/arm-none-eabi/5.4.1/armv7-m/crtbegin.o

.bss            0x1fff8148       0x30 load address 0x00000d48
                0x1fff8148                PROVIDE (__bss_start__, .)
 *(.shbss)
 *(.bss .bss.* .gnu.linkonce.b.*)
 .bss           0x1fff8148       0x1c c:/program files (x86)/cypress/psoc creator/4.1/psoc creator/import/gnu/arm/5.4.1/bin/../lib/gcc/arm-none-eabi/5.4.1/armv7-m/crtbegin.o
 .bss           0x1fff8164       0x10 .\CortexM3\ARM_GCC_541\Debug\main.o
                0x1fff8164                ir_receiving
                0x1fff8168                ir_received
                0x1fff816c                timer1OVRcounter
                0x1fff8170                counter
 .bss           0x1fff8174        0x1 .\CortexM3\ARM_GCC_541\Debug\ProjekPUSOC.a(Timer_1.o)
                0x1fff8174                Timer_1_initVar
 .bss           0x1fff8175        0x2 .\CortexM3\ARM_GCC_541\Debug\ProjekPUSOC.a(LCD_Char_1.o)
                0x1fff8175                LCD_Char_1_enableState
                0x1fff8176                LCD_Char_1_initVar
 *(COMMON)
                0x1fff8178                . = ALIGN (0x8)
 *fill*         0x1fff8177        0x1 
 *(.ram.b)
                0x1fff8178                _end = .
                0x1fff8178                __end = .
                0x1fff8178                PROVIDE (end, .)
                0x1fff8178                PROVIDE (__bss_end__, .)
                0x00000cc8                __cy_region_init_ram = LOADADDR (.data)
                0x00000080                __cy_region_init_size_ram = (_edata - ADDR (.data))
                0x00000030                __cy_region_zero_size_ram = (_end - _edata)

.heap           0x1fff8178       0x80 load address 0x00000d48
                0x1fff8178                . = _end
                0x1fff81f8                . = (. + 0x80)
 *fill*         0x1fff8178       0x80 
                0x1fff81f8                __cy_heap_limit = .

.stack          0x20007800      0x800
                0x20007800                __cy_stack_limit = .
                0x20008000                . = (. + 0x800)
 *fill*         0x20007800      0x800 
                0x00000001                ASSERT ((__cy_stack_limit >= __cy_heap_limit), region RAM overflowed with stack)
                0x00000000                cy_checksum_exclude_size = (CY_APPL_LOADABLE == 0x1)?SIZEOF (.cy_checksum_exclude):0x0
                0x00000001                ASSERT ((cy_checksum_exclude_size <= CY_CHECKSUM_EXCLUDE_SIZE), CY_BOOT: Section .cy_checksum_exclude size exceedes specified limit.)

.cyloadermeta
 *(.cyloadermeta)

.cyloadablemeta
 *(.cyloadablemeta)

.cyconfigecc    0x80000000       0x8c
 *(.cyconfigecc)
 .cyconfigecc   0x80000000       0x8c .\CortexM3\ARM_GCC_541\Debug\cymetadata.o
                0x80000000                cy_meta_configecc

.cycustnvl      0x90000000        0x4
 *(.cycustnvl)
 .cycustnvl     0x90000000        0x4 .\CortexM3\ARM_GCC_541\Debug\cymetadata.o
                0x90000000                cy_meta_custnvl

.cywolatch      0x90100000        0x4
 *(.cywolatch)
 .cywolatch     0x90100000        0x4 .\CortexM3\ARM_GCC_541\Debug\cymetadata.o
                0x90100000                cy_meta_wonvl

.cyeeprom       0x90200000        0x0
 *(.cyeeprom)
                0x00000001                ASSERT ((. <= ((0x90200000 + ee_offset) + ee_size)), .cyeeprom data will not fit in EEPROM)

.cyflashprotect
                0x90400000      0x100
 *(.cyflashprotect)
 .cyflashprotect
                0x90400000      0x100 .\CortexM3\ARM_GCC_541\Debug\cymetadata.o
                0x90400000                cy_meta_flashprotect

.cymeta         0x90500000        0xc
 *(.cymeta)
 .cymeta        0x90500000        0xc .\CortexM3\ARM_GCC_541\Debug\cymetadata.o
                0x90500000                cy_metadata

.rel.dyn        0x00000d48        0x0 load address 0x9050000c
 .rel.iplt      0x00000d48        0x0 c:/program files (x86)/cypress/psoc creator/4.1/psoc creator/import/gnu/arm/5.4.1/bin/../lib/gcc/arm-none-eabi/5.4.1/armv7-m/crtbegin.o

.stab
 *(.stab)

.stabstr
 *(.stabstr)

.debug
 *(.debug)

.line
 *(.line)

.debug_srcinfo
 *(.debug_srcinfo)

.debug_sfnames
 *(.debug_sfnames)

.debug_aranges  0x00000000      0x820
 *(.debug_aranges)
 .debug_aranges
                0x00000000       0x50 .\CortexM3\ARM_GCC_541\Debug\main.o
 .debug_aranges
                0x00000050       0x58 .\CortexM3\ARM_GCC_541\Debug\cyfitter_cfg.o
 .debug_aranges
                0x000000a8       0x18 .\CortexM3\ARM_GCC_541\Debug\cymetadata.o
 .debug_aranges
                0x000000c0       0x48 .\CortexM3\ARM_GCC_541\Debug\Cm3Start.o
 .debug_aranges
                0x00000108       0x38 .\CortexM3\ARM_GCC_541\Debug\ProjekPUSOC.a(IR_PIN.o)
 .debug_aranges
                0x00000140       0x80 .\CortexM3\ARM_GCC_541\Debug\ProjekPUSOC.a(IR_INT.o)
 .debug_aranges
                0x000001c0      0x2a0 .\CortexM3\ARM_GCC_541\Debug\ProjekPUSOC.a(CyLib.o)
 .debug_aranges
                0x00000460       0x98 .\CortexM3\ARM_GCC_541\Debug\ProjekPUSOC.a(cyPm.o)
 .debug_aranges
                0x000004f8       0x88 .\CortexM3\ARM_GCC_541\Debug\ProjekPUSOC.a(Timer_1.o)
 .debug_aranges
                0x00000580       0x98 .\CortexM3\ARM_GCC_541\Debug\ProjekPUSOC.a(LCD_Char_1.o)
 .debug_aranges
                0x00000618       0x80 .\CortexM3\ARM_GCC_541\Debug\ProjekPUSOC.a(Timer_1_OVR.o)
 .debug_aranges
                0x00000698       0x38 .\CortexM3\ARM_GCC_541\Debug\ProjekPUSOC.a(LED4.o)
 .debug_aranges
                0x000006d0       0x38 .\CortexM3\ARM_GCC_541\Debug\ProjekPUSOC.a(LED3.o)
 .debug_aranges
                0x00000708       0x20 .\CortexM3\ARM_GCC_541\Debug\ProjekPUSOC.a(CyBootAsmGnu.o)
 .debug_aranges
                0x00000728       0x80 .\CortexM3\ARM_GCC_541\Debug\ProjekPUSOC.a(CyFlash.o)
 .debug_aranges
                0x000007a8       0x78 .\CortexM3\ARM_GCC_541\Debug\ProjekPUSOC.a(CySpc.o)

.debug_pubnames
 *(.debug_pubnames)

.debug_info     0x00000000     0x4ac4
 *(.debug_info .gnu.linkonce.wi.*)
 .debug_info    0x00000000      0x567 .\CortexM3\ARM_GCC_541\Debug\main.o
 .debug_info    0x00000567      0x4ee .\CortexM3\ARM_GCC_541\Debug\cyfitter_cfg.o
 .debug_info    0x00000a55      0x134 .\CortexM3\ARM_GCC_541\Debug\cymetadata.o
 .debug_info    0x00000b89      0x3bb .\CortexM3\ARM_GCC_541\Debug\Cm3Start.o
 .debug_info    0x00000f44      0x11f .\CortexM3\ARM_GCC_541\Debug\ProjekPUSOC.a(IR_PIN.o)
 .debug_info    0x00001063      0x2d2 .\CortexM3\ARM_GCC_541\Debug\ProjekPUSOC.a(IR_INT.o)
 .debug_info    0x00001335     0x1374 .\CortexM3\ARM_GCC_541\Debug\ProjekPUSOC.a(CyLib.o)
 .debug_info    0x000026a9      0xa2a .\CortexM3\ARM_GCC_541\Debug\ProjekPUSOC.a(cyPm.o)
 .debug_info    0x000030d3      0x293 .\CortexM3\ARM_GCC_541\Debug\ProjekPUSOC.a(Timer_1.o)
 .debug_info    0x00003366      0x715 .\CortexM3\ARM_GCC_541\Debug\ProjekPUSOC.a(LCD_Char_1.o)
 .debug_info    0x00003a7b      0x2d2 .\CortexM3\ARM_GCC_541\Debug\ProjekPUSOC.a(Timer_1_OVR.o)
 .debug_info    0x00003d4d      0x11f .\CortexM3\ARM_GCC_541\Debug\ProjekPUSOC.a(LED4.o)
 .debug_info    0x00003e6c      0x11f .\CortexM3\ARM_GCC_541\Debug\ProjekPUSOC.a(LED3.o)
 .debug_info    0x00003f8b       0x98 .\CortexM3\ARM_GCC_541\Debug\ProjekPUSOC.a(CyBootAsmGnu.o)
 .debug_info    0x00004023      0x5b8 .\CortexM3\ARM_GCC_541\Debug\ProjekPUSOC.a(CyFlash.o)
 .debug_info    0x000045db      0x4e9 .\CortexM3\ARM_GCC_541\Debug\ProjekPUSOC.a(CySpc.o)

.debug_abbrev   0x00000000     0x1435
 *(.debug_abbrev)
 .debug_abbrev  0x00000000      0x1ac .\CortexM3\ARM_GCC_541\Debug\main.o
 .debug_abbrev  0x000001ac      0x1fe .\CortexM3\ARM_GCC_541\Debug\cyfitter_cfg.o
 .debug_abbrev  0x000003aa       0x5d .\CortexM3\ARM_GCC_541\Debug\cymetadata.o
 .debug_abbrev  0x00000407      0x1e8 .\CortexM3\ARM_GCC_541\Debug\Cm3Start.o
 .debug_abbrev  0x000005ef       0x90 .\CortexM3\ARM_GCC_541\Debug\ProjekPUSOC.a(IR_PIN.o)
 .debug_abbrev  0x0000067f      0x173 .\CortexM3\ARM_GCC_541\Debug\ProjekPUSOC.a(IR_INT.o)
 .debug_abbrev  0x000007f2      0x254 .\CortexM3\ARM_GCC_541\Debug\ProjekPUSOC.a(CyLib.o)
 .debug_abbrev  0x00000a46      0x1ab .\CortexM3\ARM_GCC_541\Debug\ProjekPUSOC.a(cyPm.o)
 .debug_abbrev  0x00000bf1      0x11a .\CortexM3\ARM_GCC_541\Debug\ProjekPUSOC.a(Timer_1.o)
 .debug_abbrev  0x00000d0b      0x157 .\CortexM3\ARM_GCC_541\Debug\ProjekPUSOC.a(LCD_Char_1.o)
 .debug_abbrev  0x00000e62      0x173 .\CortexM3\ARM_GCC_541\Debug\ProjekPUSOC.a(Timer_1_OVR.o)
 .debug_abbrev  0x00000fd5       0x90 .\CortexM3\ARM_GCC_541\Debug\ProjekPUSOC.a(LED4.o)
 .debug_abbrev  0x00001065       0x90 .\CortexM3\ARM_GCC_541\Debug\ProjekPUSOC.a(LED3.o)
 .debug_abbrev  0x000010f5       0x14 .\CortexM3\ARM_GCC_541\Debug\ProjekPUSOC.a(CyBootAsmGnu.o)
 .debug_abbrev  0x00001109      0x198 .\CortexM3\ARM_GCC_541\Debug\ProjekPUSOC.a(CyFlash.o)
 .debug_abbrev  0x000012a1      0x194 .\CortexM3\ARM_GCC_541\Debug\ProjekPUSOC.a(CySpc.o)

.debug_line     0x00000000     0x1f54
 *(.debug_line)
 .debug_line    0x00000000      0x2aa .\CortexM3\ARM_GCC_541\Debug\main.o
 .debug_line    0x000002aa      0x1d5 .\CortexM3\ARM_GCC_541\Debug\cyfitter_cfg.o
 .debug_line    0x0000047f      0x141 .\CortexM3\ARM_GCC_541\Debug\cymetadata.o
 .debug_line    0x000005c0      0x234 .\CortexM3\ARM_GCC_541\Debug\Cm3Start.o
 .debug_line    0x000007f4       0x93 .\CortexM3\ARM_GCC_541\Debug\ProjekPUSOC.a(IR_PIN.o)
 .debug_line    0x00000887      0x133 .\CortexM3\ARM_GCC_541\Debug\ProjekPUSOC.a(IR_INT.o)
 .debug_line    0x000009ba      0x816 .\CortexM3\ARM_GCC_541\Debug\ProjekPUSOC.a(CyLib.o)
 .debug_line    0x000011d0      0x367 .\CortexM3\ARM_GCC_541\Debug\ProjekPUSOC.a(cyPm.o)
 .debug_line    0x00001537      0x155 .\CortexM3\ARM_GCC_541\Debug\ProjekPUSOC.a(Timer_1.o)
 .debug_line    0x0000168c      0x1e3 .\CortexM3\ARM_GCC_541\Debug\ProjekPUSOC.a(LCD_Char_1.o)
 .debug_line    0x0000186f      0x138 .\CortexM3\ARM_GCC_541\Debug\ProjekPUSOC.a(Timer_1_OVR.o)
 .debug_line    0x000019a7       0x91 .\CortexM3\ARM_GCC_541\Debug\ProjekPUSOC.a(LED4.o)
 .debug_line    0x00001a38       0x91 .\CortexM3\ARM_GCC_541\Debug\ProjekPUSOC.a(LED3.o)
 .debug_line    0x00001ac9       0x66 .\CortexM3\ARM_GCC_541\Debug\ProjekPUSOC.a(CyBootAsmGnu.o)
 .debug_line    0x00001b2f      0x1e9 .\CortexM3\ARM_GCC_541\Debug\ProjekPUSOC.a(CyFlash.o)
 .debug_line    0x00001d18      0x23c .\CortexM3\ARM_GCC_541\Debug\ProjekPUSOC.a(CySpc.o)

.debug_frame    0x00000000     0x1500
 *(.debug_frame)
 .debug_frame   0x00000000       0xbc .\CortexM3\ARM_GCC_541\Debug\main.o
 .debug_frame   0x000000bc       0xe4 .\CortexM3\ARM_GCC_541\Debug\cyfitter_cfg.o
 .debug_frame   0x000001a0       0xb8 .\CortexM3\ARM_GCC_541\Debug\Cm3Start.o
 .debug_frame   0x00000258       0x50 .\CortexM3\ARM_GCC_541\Debug\ProjekPUSOC.a(IR_PIN.o)
 .debug_frame   0x000002a8      0x104 .\CortexM3\ARM_GCC_541\Debug\ProjekPUSOC.a(IR_INT.o)
 .debug_frame   0x000003ac      0x738 .\CortexM3\ARM_GCC_541\Debug\ProjekPUSOC.a(CyLib.o)
 .debug_frame   0x00000ae4      0x1f8 .\CortexM3\ARM_GCC_541\Debug\ProjekPUSOC.a(cyPm.o)
 .debug_frame   0x00000cdc      0x108 .\CortexM3\ARM_GCC_541\Debug\ProjekPUSOC.a(Timer_1.o)
 .debug_frame   0x00000de4      0x1e8 .\CortexM3\ARM_GCC_541\Debug\ProjekPUSOC.a(LCD_Char_1.o)
 .debug_frame   0x00000fcc      0x104 .\CortexM3\ARM_GCC_541\Debug\ProjekPUSOC.a(Timer_1_OVR.o)
 .debug_frame   0x000010d0       0x50 .\CortexM3\ARM_GCC_541\Debug\ProjekPUSOC.a(LED4.o)
 .debug_frame   0x00001120       0x50 .\CortexM3\ARM_GCC_541\Debug\ProjekPUSOC.a(LED3.o)
 .debug_frame   0x00001170      0x174 .\CortexM3\ARM_GCC_541\Debug\ProjekPUSOC.a(CyFlash.o)
 .debug_frame   0x000012e4      0x160 .\CortexM3\ARM_GCC_541\Debug\ProjekPUSOC.a(CySpc.o)
 .debug_frame   0x00001444       0x20 c:/program files (x86)/cypress/psoc creator/4.1/psoc creator/import/gnu/arm/5.4.1/bin/../lib/gcc/arm-none-eabi/5.4.1/../../../../arm-none-eabi/lib/armv7-m\libg_nano.a(lib_a-errno.o)
 .debug_frame   0x00001464       0x28 c:/program files (x86)/cypress/psoc creator/4.1/psoc creator/import/gnu/arm/5.4.1/bin/../lib/gcc/arm-none-eabi/5.4.1/../../../../arm-none-eabi/lib/armv7-m\libg_nano.a(lib_a-exit.o)
 .debug_frame   0x0000148c       0x2c c:/program files (x86)/cypress/psoc creator/4.1/psoc creator/import/gnu/arm/5.4.1/bin/../lib/gcc/arm-none-eabi/5.4.1/../../../../arm-none-eabi/lib/armv7-m\libg_nano.a(lib_a-init.o)
 .debug_frame   0x000014b8       0x28 c:/program files (x86)/cypress/psoc creator/4.1/psoc creator/import/gnu/arm/5.4.1/bin/../lib/gcc/arm-none-eabi/5.4.1/../../../../arm-none-eabi/lib/armv7-m\libg_nano.a(lib_a-memcpy-stub.o)
 .debug_frame   0x000014e0       0x20 c:/program files (x86)/cypress/psoc creator/4.1/psoc creator/import/gnu/arm/5.4.1/bin/../lib/gcc/arm-none-eabi/5.4.1/../../../../arm-none-eabi/lib/armv7-m\libg_nano.a(lib_a-memset.o)

.debug_str      0x00000000     0x1a4e
 *(.debug_str)
 .debug_str     0x00000000      0x372 .\CortexM3\ARM_GCC_541\Debug\main.o
                                0x3e0 (size before relaxing)
 .debug_str     0x00000372      0x173 .\CortexM3\ARM_GCC_541\Debug\cyfitter_cfg.o
                                0x317 (size before relaxing)
 .debug_str     0x000004e5       0x75 .\CortexM3\ARM_GCC_541\Debug\cymetadata.o
                                0x1ec (size before relaxing)
 .debug_str     0x0000055a      0x13f .\CortexM3\ARM_GCC_541\Debug\Cm3Start.o
                                0x312 (size before relaxing)
 .debug_str     0x00000699       0x64 .\CortexM3\ARM_GCC_541\Debug\ProjekPUSOC.a(IR_PIN.o)
                                0x1ef (size before relaxing)
 .debug_str     0x000006fd       0xfd .\CortexM3\ARM_GCC_541\Debug\ProjekPUSOC.a(IR_INT.o)
                                0x2bc (size before relaxing)
 .debug_str     0x000007fa      0x837 .\CortexM3\ARM_GCC_541\Debug\ProjekPUSOC.a(CyLib.o)
                                0xa4f (size before relaxing)
 .debug_str     0x00001031      0x365 .\CortexM3\ARM_GCC_541\Debug\ProjekPUSOC.a(cyPm.o)
                                0x73b (size before relaxing)
 .debug_str     0x00001396      0x158 .\CortexM3\ARM_GCC_541\Debug\ProjekPUSOC.a(Timer_1.o)
                                0x31d (size before relaxing)
 .debug_str     0x000014ee      0x170 .\CortexM3\ARM_GCC_541\Debug\ProjekPUSOC.a(LCD_Char_1.o)
                                0x3bf (size before relaxing)
 .debug_str     0x0000165e      0x126 .\CortexM3\ARM_GCC_541\Debug\ProjekPUSOC.a(Timer_1_OVR.o)
                                0x302 (size before relaxing)
 .debug_str     0x00001784       0x41 .\CortexM3\ARM_GCC_541\Debug\ProjekPUSOC.a(LED4.o)
                                0x1e5 (size before relaxing)
 .debug_str     0x000017c5       0x41 .\CortexM3\ARM_GCC_541\Debug\ProjekPUSOC.a(LED3.o)
                                0x1e5 (size before relaxing)
 .debug_str     0x00001806      0x19c .\CortexM3\ARM_GCC_541\Debug\ProjekPUSOC.a(CyFlash.o)
                                0x3a9 (size before relaxing)
 .debug_str     0x000019a2       0xac .\CortexM3\ARM_GCC_541\Debug\ProjekPUSOC.a(CySpc.o)
                                0x332 (size before relaxing)

.debug_loc      0x00000000     0x201e
 *(.debug_loc)
 .debug_loc     0x00000000      0x297 .\CortexM3\ARM_GCC_541\Debug\main.o
 .debug_loc     0x00000297      0x1d7 .\CortexM3\ARM_GCC_541\Debug\cyfitter_cfg.o
 .debug_loc     0x0000046e      0x144 .\CortexM3\ARM_GCC_541\Debug\Cm3Start.o
 .debug_loc     0x000005b2       0x42 .\CortexM3\ARM_GCC_541\Debug\ProjekPUSOC.a(IR_PIN.o)
 .debug_loc     0x000005f4       0x56 .\CortexM3\ARM_GCC_541\Debug\ProjekPUSOC.a(IR_INT.o)
 .debug_loc     0x0000064a      0xa11 .\CortexM3\ARM_GCC_541\Debug\ProjekPUSOC.a(CyLib.o)
 .debug_loc     0x0000105b      0x1e4 .\CortexM3\ARM_GCC_541\Debug\ProjekPUSOC.a(cyPm.o)
 .debug_loc     0x0000123f      0x3c6 .\CortexM3\ARM_GCC_541\Debug\ProjekPUSOC.a(LCD_Char_1.o)
 .debug_loc     0x00001605       0x56 .\CortexM3\ARM_GCC_541\Debug\ProjekPUSOC.a(Timer_1_OVR.o)
 .debug_loc     0x0000165b       0x42 .\CortexM3\ARM_GCC_541\Debug\ProjekPUSOC.a(LED4.o)
 .debug_loc     0x0000169d       0x42 .\CortexM3\ARM_GCC_541\Debug\ProjekPUSOC.a(LED3.o)
 .debug_loc     0x000016df      0x2f2 .\CortexM3\ARM_GCC_541\Debug\ProjekPUSOC.a(CyFlash.o)
 .debug_loc     0x000019d1      0x64d .\CortexM3\ARM_GCC_541\Debug\ProjekPUSOC.a(CySpc.o)

.debug_macinfo
 *(.debug_macinfo)

.debug_ranges   0x00000000      0x708
 *(.debug_ranges)
 .debug_ranges  0x00000000       0x40 .\CortexM3\ARM_GCC_541\Debug\main.o
 .debug_ranges  0x00000040       0x48 .\CortexM3\ARM_GCC_541\Debug\cyfitter_cfg.o
 .debug_ranges  0x00000088       0x38 .\CortexM3\ARM_GCC_541\Debug\Cm3Start.o
 .debug_ranges  0x000000c0       0x28 .\CortexM3\ARM_GCC_541\Debug\ProjekPUSOC.a(IR_PIN.o)
 .debug_ranges  0x000000e8       0x70 .\CortexM3\ARM_GCC_541\Debug\ProjekPUSOC.a(IR_INT.o)
 .debug_ranges  0x00000158      0x290 .\CortexM3\ARM_GCC_541\Debug\ProjekPUSOC.a(CyLib.o)
 .debug_ranges  0x000003e8       0x88 .\CortexM3\ARM_GCC_541\Debug\ProjekPUSOC.a(cyPm.o)
 .debug_ranges  0x00000470       0x78 .\CortexM3\ARM_GCC_541\Debug\ProjekPUSOC.a(Timer_1.o)
 .debug_ranges  0x000004e8       0x88 .\CortexM3\ARM_GCC_541\Debug\ProjekPUSOC.a(LCD_Char_1.o)
 .debug_ranges  0x00000570       0x70 .\CortexM3\ARM_GCC_541\Debug\ProjekPUSOC.a(Timer_1_OVR.o)
 .debug_ranges  0x000005e0       0x28 .\CortexM3\ARM_GCC_541\Debug\ProjekPUSOC.a(LED4.o)
 .debug_ranges  0x00000608       0x28 .\CortexM3\ARM_GCC_541\Debug\ProjekPUSOC.a(LED3.o)
 .debug_ranges  0x00000630       0x70 .\CortexM3\ARM_GCC_541\Debug\ProjekPUSOC.a(CyFlash.o)
 .debug_ranges  0x000006a0       0x68 .\CortexM3\ARM_GCC_541\Debug\ProjekPUSOC.a(CySpc.o)

.comment        0x00000000       0x6e
 .comment       0x00000000       0x6e .\CortexM3\ARM_GCC_541\Debug\main.o
                                 0x6f (size before relaxing)
 .comment       0x0000006e       0x6f .\CortexM3\ARM_GCC_541\Debug\cyfitter_cfg.o
 .comment       0x0000006e       0x6f .\CortexM3\ARM_GCC_541\Debug\cymetadata.o
 .comment       0x0000006e       0x6f .\CortexM3\ARM_GCC_541\Debug\Cm3Start.o
 .comment       0x0000006e       0x6f .\CortexM3\ARM_GCC_541\Debug\ProjekPUSOC.a(IR_PIN.o)
 .comment       0x0000006e       0x6f .\CortexM3\ARM_GCC_541\Debug\ProjekPUSOC.a(IR_INT.o)
 .comment       0x0000006e       0x6f .\CortexM3\ARM_GCC_541\Debug\ProjekPUSOC.a(CyLib.o)
 .comment       0x0000006e       0x6f .\CortexM3\ARM_GCC_541\Debug\ProjekPUSOC.a(cyPm.o)
 .comment       0x0000006e       0x6f .\CortexM3\ARM_GCC_541\Debug\ProjekPUSOC.a(Timer_1.o)
 .comment       0x0000006e       0x6f .\CortexM3\ARM_GCC_541\Debug\ProjekPUSOC.a(LCD_Char_1.o)
 .comment       0x0000006e       0x6f .\CortexM3\ARM_GCC_541\Debug\ProjekPUSOC.a(Timer_1_OVR.o)
 .comment       0x0000006e       0x6f .\CortexM3\ARM_GCC_541\Debug\ProjekPUSOC.a(LED4.o)
 .comment       0x0000006e       0x6f .\CortexM3\ARM_GCC_541\Debug\ProjekPUSOC.a(LED3.o)
 .comment       0x0000006e       0x6f .\CortexM3\ARM_GCC_541\Debug\ProjekPUSOC.a(CyFlash.o)
 .comment       0x0000006e       0x6f .\CortexM3\ARM_GCC_541\Debug\ProjekPUSOC.a(CySpc.o)

.debug_weaknames
 *(.debug_weaknames)

.debug_funcnames
 *(.debug_funcnames)

.debug_typenames
 *(.debug_typenames)

.debug_varnames
 *(.debug_varnames)

.note.gnu.arm.ident
 *(.note.gnu.arm.ident)

.ARM.attributes
                0x00000000       0x29
 *(.ARM.attributes)
 .ARM.attributes
                0x00000000       0x1d c:/program files (x86)/cypress/psoc creator/4.1/psoc creator/import/gnu/arm/5.4.1/bin/../lib/gcc/arm-none-eabi/5.4.1/armv7-m/crti.o
 .ARM.attributes
                0x0000001d       0x2d c:/program files (x86)/cypress/psoc creator/4.1/psoc creator/import/gnu/arm/5.4.1/bin/../lib/gcc/arm-none-eabi/5.4.1/armv7-m/crtbegin.o
 .ARM.attributes
                0x0000004a       0x1b c:/program files (x86)/cypress/psoc creator/4.1/psoc creator/import/gnu/arm/5.4.1/bin/../lib/gcc/arm-none-eabi/5.4.1/../../../../arm-none-eabi/lib/armv7-m/crt0.o
 .ARM.attributes
                0x00000065       0x33 .\CortexM3\ARM_GCC_541\Debug\main.o
 .ARM.attributes
                0x00000098       0x33 .\CortexM3\ARM_GCC_541\Debug\cyfitter_cfg.o
 .ARM.attributes
                0x000000cb       0x33 .\CortexM3\ARM_GCC_541\Debug\cymetadata.o
 .ARM.attributes
                0x000000fe       0x33 .\CortexM3\ARM_GCC_541\Debug\Cm3Start.o
 .ARM.attributes
                0x00000131       0x33 .\CortexM3\ARM_GCC_541\Debug\ProjekPUSOC.a(IR_PIN.o)
 .ARM.attributes
                0x00000164       0x33 .\CortexM3\ARM_GCC_541\Debug\ProjekPUSOC.a(IR_INT.o)
 .ARM.attributes
                0x00000197       0x33 .\CortexM3\ARM_GCC_541\Debug\ProjekPUSOC.a(CyLib.o)
 .ARM.attributes
                0x000001ca       0x33 .\CortexM3\ARM_GCC_541\Debug\ProjekPUSOC.a(cyPm.o)
 .ARM.attributes
                0x000001fd       0x33 .\CortexM3\ARM_GCC_541\Debug\ProjekPUSOC.a(Timer_1.o)
 .ARM.attributes
                0x00000230       0x33 .\CortexM3\ARM_GCC_541\Debug\ProjekPUSOC.a(LCD_Char_1.o)
 .ARM.attributes
                0x00000263       0x33 .\CortexM3\ARM_GCC_541\Debug\ProjekPUSOC.a(Timer_1_OVR.o)
 .ARM.attributes
                0x00000296       0x33 .\CortexM3\ARM_GCC_541\Debug\ProjekPUSOC.a(LED4.o)
 .ARM.attributes
                0x000002c9       0x33 .\CortexM3\ARM_GCC_541\Debug\ProjekPUSOC.a(LED3.o)
 .ARM.attributes
                0x000002fc       0x21 .\CortexM3\ARM_GCC_541\Debug\ProjekPUSOC.a(CyBootAsmGnu.o)
 .ARM.attributes
                0x0000031d       0x33 .\CortexM3\ARM_GCC_541\Debug\ProjekPUSOC.a(CyFlash.o)
 .ARM.attributes
                0x00000350       0x33 .\CortexM3\ARM_GCC_541\Debug\ProjekPUSOC.a(CySpc.o)
 .ARM.attributes
                0x00000383       0x2d c:/program files (x86)/cypress/psoc creator/4.1/psoc creator/import/gnu/arm/5.4.1/bin/../lib/gcc/arm-none-eabi/5.4.1/../../../../arm-none-eabi/lib/armv7-m\libg_nano.a(lib_a-errno.o)
 .ARM.attributes
                0x000003b0       0x2d c:/program files (x86)/cypress/psoc creator/4.1/psoc creator/import/gnu/arm/5.4.1/bin/../lib/gcc/arm-none-eabi/5.4.1/../../../../arm-none-eabi/lib/armv7-m\libg_nano.a(lib_a-exit.o)
 .ARM.attributes
                0x000003dd       0x2d c:/program files (x86)/cypress/psoc creator/4.1/psoc creator/import/gnu/arm/5.4.1/bin/../lib/gcc/arm-none-eabi/5.4.1/../../../../arm-none-eabi/lib/armv7-m\libg_nano.a(lib_a-impure.o)
 .ARM.attributes
                0x0000040a       0x2d c:/program files (x86)/cypress/psoc creator/4.1/psoc creator/import/gnu/arm/5.4.1/bin/../lib/gcc/arm-none-eabi/5.4.1/../../../../arm-none-eabi/lib/armv7-m\libg_nano.a(lib_a-init.o)
 .ARM.attributes
                0x00000437       0x2d c:/program files (x86)/cypress/psoc creator/4.1/psoc creator/import/gnu/arm/5.4.1/bin/../lib/gcc/arm-none-eabi/5.4.1/../../../../arm-none-eabi/lib/armv7-m\libg_nano.a(lib_a-memcpy-stub.o)
 .ARM.attributes
                0x00000464       0x2d c:/program files (x86)/cypress/psoc creator/4.1/psoc creator/import/gnu/arm/5.4.1/bin/../lib/gcc/arm-none-eabi/5.4.1/../../../../arm-none-eabi/lib/armv7-m\libg_nano.a(lib_a-memset.o)
 .ARM.attributes
                0x00000491       0x2d c:/program files (x86)/cypress/psoc creator/4.1/psoc creator/import/gnu/arm/5.4.1/bin/../lib/gcc/arm-none-eabi/5.4.1/armv7-m/crtend.o
 .ARM.attributes
                0x000004be       0x1d c:/program files (x86)/cypress/psoc creator/4.1/psoc creator/import/gnu/arm/5.4.1/bin/../lib/gcc/arm-none-eabi/5.4.1/armv7-m/crtn.o

/DISCARD/
 *(.note.GNU-stack)
OUTPUT(C:\Users\Mateusz Gutowski\Documents\PSoC Creator\IR_NEC\ProjekPUSOC.cydsn\CortexM3\ARM_GCC_541\Debug\ProjekPUSOC.elf elf32-littlearm)
